:020000040800F2
:100000000010002055020008A1020008A10200080B
:1000100000000000000000000000000000000000E0
:10002000000000000000000000000000A102000825
:100030000000000000000000A1020008A10200086A
:10004000A1020008A1020008A1020008A102000804
:10005000A1020008A1020008A1020008A1020008F4
:10006000A1020008A1020008A1020008A1020008E4
:10007000A1020008A1020008A1020008A1020008D4
:10008000A1020008A102000800000000A10200086F
:10009000A1020008A1020008A1020008A1020008B4
:1000A000A1020008A1020008A1020008A1020008A4
:1000B000A102000800000000A102000800000000EA
:1000C0005FF808F180B582B000AF78600A1CFB1CB5
:1000D0001A70FB1C1B78002B06D0084B074A51698D
:1000E0007A680A435A6106E0044B044A5269796807
:1000F000C9430A405A61BD4602B080BD00100240AB
:1001000080B500AF00F010F800F032F8044B5A68E8
:100110000823134003D0034BC02292009A82FEE7CB
:10012000001002400008004880B582B000AF802374
:100130001B03181C0121FFF7C5FF3B1CC0229200C6
:100140001A603B1C01221A713B1C00229A713B1C55
:100150000022DA713B1C03225A71044A3B1C101C1A
:10016000191C00F055F9BD4602B080BD00080048DA
:1001700080B500AF324B5A680C231340082B0BD1CB
:100180002F4B2F4A526803218A435A60C0462C4B9A
:100190005A680C231340FAD1294B294A1168294A7D
:1001A0000A401A60C046264B1A6880239B041340FD
:1001B000F9D1234B224A5268802189020A435A60AE
:1001C0001F4B1F4A51681E4A50681F4A02400A438B
:1001D0005A601B4B1A4A51681C4A0A40A0218903E5
:1001E0000A435A60164B164A5268F0218A439021FE
:1001F0000A435A60124B124A5168154A0A4080213C
:10020000C9000A435A600E4B0D4A12688021490406
:100210000A431A60C0460A4B1A6880239B041340A5
:10022000F9D0074B064A526802210A435A60C04679
:10023000034B5A680C231340082BF9D1BD4680BDEF
:1002400000100240FFFFFFFEFF7FFFFFFFFFC3FF25
:10025000FFF8FFFF0C488546002103E00B4B5B587D
:10026000435004310A480B4B42189A42F6D30A4ACB
:1002700002E0002313600432084B9A42F9D300F0E5
:1002800011F8FFF73DFFFEE70010002048050008C9
:1002900000000020000000200000002000000020DE
:1002A000FEE7000080B500AF1B4B1B4A126801211E
:1002B0000A431A60184B184A5168184A0A405A6093
:1002C000154B154A1168164A0A401A60124B124A19
:1002D0001168144A0A401A600F4B0F4A5168124ABB
:1002E0000A405A600C4B0C4AD26A0F218A43DA62E8
:1002F000094B094A116B0D4A0A401A63064B064A1C
:10030000526B01218A435A63034B00229A6000F02A
:100310000FF8BD4680BDC046001002400CB8FFF883
:10032000FFFFF6FEFFFFFBFFFFFFC0FFACFEFFFF7E
:1003300080B582B000AF00237B6000233B60314B6F
:10034000304A1268802149020A431A602D4B1A680C
:1003500080239B0213403B607B6801337B603B68DA
:10036000002B04D17A68A023DB019A42EED1254B01
:100370001A6880239B02134002D001233B6001E0F6
:1003800000233B603B68012B38D11F4B11221A60C0
:100390001C4B1C4A52685A601A4B1A4A52685A60DF
:1003A000184B184A5168194A0A405A60154B154AA9
:1003B0005268882149030A435A60124B114A126855
:1003C000802149040A431A60C0460E4B1A688023F4
:1003D0009B041340F9D00B4B0A4A526803218A430D
:1003E0005A60084B074A526802210A435A60C046C5
:1003F000044B5A680C231340082BF9D1BD4602B0B8
:1004000080BDC0460010024000200240FFFFC0FF38
:1004100080B586B000AF7860396000237B6100232F
:100420003B610023FB6000237B6185E07B69012247
:10043000101C9840031C3B613B681B683A691340E1
:10044000FB60FA683B699A4273D13B681B79012BC8
:1004500003D03B681B79022B38D17B689B687A6993
:1004600052000321081C9040021CD2431A407B68B2
:100470009A607B689A683B685B79191C7B695B00B2
:10048000081C9840031C1A437B689A607B689B8811
:100490009BB27A6992B20121081C9040021C92B270
:1004A000D24392B213409AB27B689A807B689B8851
:1004B0009AB23B689B79191C7B699BB2081C9840D7
:1004C000031C9BB213439AB27B689A807B681B68BB
:1004D0007A6952000321081C9040021CD2431A4042
:1004E0007B681A607B681A683B681B79191C7B69FA
:1004F0005B00081C9840031C1A437B681A607B68E9
:10050000DB687A6992B252000321081C9040021CF9
:10051000D2431A407B68DA607B68DA683B68DB7933
:10052000191C7B695B00081C9840031C1A437B68FC
:10053000DA607B6901337B617B690F2B00D875E73B
:08054000BD4606B080BDC046B7
:0400000508000000EF
:00000001FF
