:020000040800F2
:1000000000040020F50000080501000805010008B3
:1000100005010008050100080501000800000000B6
:1000200000000000000000000000000005010008C2
:100030000501000800000000050100080501000896
:10004000F5000008F5000008F5000008F5000008BC
:10005000F5000008F5000008F5000008F5000008AC
:10006000F5000008F5000008F5000008F50000089C
:10007000F5000008F5000008F5000008F50000088C
:10008000F5000008F5000008F5000008F50000087C
:10009000F5000008F5000008F5000008F50000086C
:1000A000F5000008F5000008F5000008F50000085C
:1000B000F5000008F5000008F5000008F50000084C
:1000C000F5000008F5000008F5000008F50000083C
:1000D000F5000008F5000008F5000008F50000082C
:1000E000F5000008F5000008F5000008F50000081C
:1000F000F500000880B500AF00F008F800F04AF9FC
:1001000080BD00BF80B400AFFEE700BF80B500AF88
:100110004FF46053C4F202034FF46052C4F202027F
:10012000126842F480721A604FF46052C4F2020204
:100130004FF46053C4F2020399684CF20C03C8F602
:10014000FF030B4093604FF46053C4F202034FF47B
:100150006052C4F20202126822F0885222F00112A8
:100160001A604FF46053C4F202034FF46052C4F2B9
:100170000202126822F480221A604FF46053C4F223
:1001800002034FF46052C4F20202926822F47D022C
:100190009A604FF46053C4F202034FF00002DA6039
:1001A00000F008F84FF46D43CEF200034FF0006208
:1001B0009A6080BD80B483B000AF4FF000037B60D5
:1001C0004FF000033B604FF46053C4F202034FF45E
:1001D0006052C4F20202126842F480321A604FF494
:1001E0006053C4F202031B6803F400333B607B6876
:1001F00003F101037B603B68002B03D17B68B3F5FF
:10020000A06FECD14FF46053C4F202031B6803F4F7
:100210000033002B03D04FF001033B6002E04FF0AE
:1002200000033B603B68012B40F0AF804FF47053FC
:10023000C4F202034FF47052C4F20202126842F098
:1002400004021A604FF47053C4F202034FF4705268
:10025000C4F20202126842F002021A604FF47053B4
:10026000C4F202034FF47052C4F20202126842F068
:1002700001021A604FF46053C4F202034FF460525B
:10028000C4F20202526A42F080525A624FF4E043D2
:10029000C4F200034FF400621A6000BF4FF4E04361
:1002A000C4F200035B6803F01003002BF6D14FF497
:1002B0006053C4F202034FF46052C4F20202926827
:1002C0009A604FF46053C4F202034FF46052C4F2D8
:1002D000020292689A604FF46053C4F202034FF432
:1002E0006052C4F2020292689A604FF46053C4F202
:1002F00002034FF46052C4F20202926822F47D02BB
:100300009A604FF46053C4F202034FF46052C4F297
:100310000202926842F411029A604FF46053C4F2F0
:1003200002034FF46052C4F20202126842F080727B
:100330001A6000BF4FF46053C4F202031B6803F05D
:100340000073002BF6D04FF46053C4F202034FF455
:100350006052C4F20202926822F003029A604FF4E3
:100360006053C4F202034FF46052C4F20202926876
:1003700042F003029A6000BF4FF46053C4F20203DC
:100380009B6803F00C030C2BF6D107F10C07BD465C
:0C03900080BC704780B400AFFEE700BFE7
:0400000508000000EF
:00000001FF
