:020000040800F2
:100000000010002065030008B1030008B1030008D8
:1000100000000000000000000000000000000000E0
:10002000000000000000000000000000B103000814
:100030000000000000000000B1030008B103000848
:10004000B1030008B1030008B1030008B1030008C0
:10005000B1030008B1030008B1030008B1030008B0
:10006000B1030008B1030008B1030008B1030008A0
:10007000B1030008B1030008B1030008B103000890
:10008000B1030008B103000800000000B10300083C
:10009000B1030008B1030008B1030008B103000870
:1000A000B1030008B1030008B1030008B103000860
:1000B000B103000800000000B103000800000000C8
:1000C0005FF808F180B582B000AF78600A1CFB1CB5
:1000D0001A70FB1C1B78002B06D0084B074A51698D
:1000E0007A680A435A6106E0044B044A5269796807
:1000F000C9430A405A61BD4602B080BD00100240AB
:1001000080B582B000AF78600A1CFB1C1A70FB1C23
:100110001B78002B06D0084B074AD1697A680A433E
:10012000DA6106E0044B044AD2697968C9430A409F
:10013000DA61BD4602B080BD0010024080B582B0D9
:1001400000AF7860C0467B685A1E9341DBB27A6884
:10015000013A7A60002BF6D1BD4602B080BDC046A0
:1001600080B500AF80231B03181C0121FFF7AAFFF5
:100170000B4BC02292001A60094B01221A71084BE6
:1001800000229A71064B03225A71054B0022DA7144
:10019000044A034B101C191C00F0F8FABD4680BD40
:1001A000200000200008004880B500AF8023DB025B
:1001B000181C0121FFF786FF80239B03181C0121D7
:1001C000FFF79EFF234BC0221A60224B02221A71B6
:1001D000204B01229A711F4B0122DA711D4B032221
:1001E0005A711D4A1B4B101C191C00F0CFFA1A4BF8
:1001F000181C0621012200F065FB174B181C072173
:10020000012200F05FFB154B0022DA60134B002245
:100210005A60124B00229A60104B01221A610F4B58
:1002200000225A610D4B0E4A1A600C4B00229A6153
:100230000C4A0A4B101C191C00F0BCF8094B181C86
:10024000012100F01FF9074B181CB42100F038F908
:10025000BD4680BD200000200004004804000020AE
:100260004B1AB0000054004090B585B000AFFFF7C6
:1002700077FFFFF799FF0023FB600023BB60344B3F
:100280007B60344B334A5168334A0A405A6000233A
:10029000BB6039E02F4B181C012100F02FF9C0463C
:1002A0002C4A80231B02101C191C00F093F9031C1C
:1002B000012BF5D0294B802292009A82254B181CE5
:1002C000012100F03DF9C046224B181C012100F02D
:1002D00081F9031C002BF7D0204B802252009A8218
:1002E000BB687A68D3181B781A4A101C191C00F0D6
:1002F00063F91A4BC02292009A82194B181CFFF71F
:100300001DFFBB680133BB60BC687B68181C00F034
:1003100027FB031C9C42BDD3FB680133FB60FB68D9
:10032000022B0DD10B4B181C012100F027F9C04600
:10033000084B181C202100F04DF9031C002BF7D0AE
:10034000074B181CFFF7FAFE044B00229A829EE727
:100350007009000800540040FFFBFFFF0008004840
:10036000801A06000C488546002103E00B4B5B58C1
:10037000435004310A480B4B42189A42F6D30A4ABA
:1003800002E0002313600432084B9A42F9D300F0D4
:1003900047F9FFF769FFFEE700100020A8090008F1
:1003A00000000020000000200000002028000020A5
:1003B000FEE7000080B584B000AF786039600023AC
:1003C000FB607B681B680122191C91430A1C7B6837
:1003D0001A607B681B68FB60FA68274B1340FB6060
:1003E0003B685A683B689B681B021343FA681343D7
:1003F000FB607B68FA681A603B681A681F4B1A40FA
:100400007B681A617B681B6801221A437B681A604B
:100410000023FB607B68FA689A607B68FA68DA60A0
:100420003B689A693B681B691343FB607B68FA6809
:100430009A607B689B68802212021A437B689A60EC
:100440003B68DB68FB607B681A68FB681A437B6863
:100450001A607B685B68FB60FA68094B1340FB60BD
:100460003B685B69FA681343FB607B68FA685A6013
:10047000BD4604B080BDC046FFE0CF00FFFFFFF0E7
:10048000FF7FFF0780B582B000AF78600A1CFB1CBD
:100490001A70FB1C1B78002B06D07B681B6801229E
:1004A0001A437B681A6007E07B681B680122191CED
:1004B00091430A1C7B681A60BD4602B080BDC046ED
:1004C00080B584B000AF78600A1CBB1C1A80002382
:1004D000FB607B685B68FB60FB689B0A9B02FB60C0
:1004E000BB1C1B889B059B0DFA681343FB607B6854
:1004F000FA685A60BD4604B080BDC04680B584B07D
:1005000000AF78600A1CFB1C1A700023FB607B683C
:100510005B68FB60FA68094B1340FB60FB1C1B78AF
:100520001A04FF231B041340FA681343FB607B6823
:10053000FA685A60BD4604B080BDC046FFFF00FFA8
:1005400080B582B000AF78600A1CFB1C1A70FB1CDF
:100550001B78002B07D07B685B68802292011A43CE
:100560007B685A6005E07B685A68034B1A407B68D9
:100570005A60BD4602B080BDFFDFFFFF80B582B08C
:1005800000AF78600A1CFB1C1A70FB1C1B78002B48
:1005900007D07B685B688022D2011A437B685A606F
:1005A00005E07B685A68034B1A407B685A60BD4679
:1005B00002B080BDFFBFFFFF80B582B000AF7860A2
:1005C0000A1CFB1C1A70FB1C1A787B689A62BD46D9
:1005D00002B080BD80B584B000AF78603960002380
:1005E000BB603B1C0F3300221A707B689B69BB60A9
:1005F000BB683A681340BB60BB68002B04D03B1C4F
:100600000F3301221A7003E03B1C0F3300221A70D3
:100610003B1C0F331B78181CBD4604B080BDC04680
:1006200080B500AF1B4B1B4A126801210A431A60B8
:10063000184B184A5168184A0A405A60154B154A17
:100640001168164A0A401A60124B124A1168144A7D
:100650000A401A600F4B0F4A5168124A0A405A600A
:100660000C4B0C4AD26A0F218A43DA62094B094AC1
:10067000116B0D4A0A401A63064B064A526B012160
:100680008A435A63034B00229A6000F00FF8BD467C
:1006900080BDC046001002400CB8FFF8FFFFF6FE18
:1006A000FFFFFBFFFFFFC0FFACFEFFFF80B582B086
:1006B00000AF00237B6000233B60314B304A12685F
:1006C000802149020A431A602D4B1A6880239B023D
:1006D00013403B607B6801337B603B68002B04D197
:1006E0007A68A023DB019A42EED1254B1A68802359
:1006F0009B02134002D001233B6001E000233B60DA
:100700003B68012B38D11F4B11221A601C4B1C4A2D
:1007100052685A601A4B1A4A52685A60184B184A63
:100720005168194A0A405A60154B154A5268882187
:1007300049030A435A60124B114A12688021490446
:100740000A431A60C0460E4B1A6880239B0413406C
:10075000F9D00B4B0A4A526803218A435A60084B6E
:10076000074A526802210A435A60C046044B5A683D
:100770000C231340082BF9D1BD4602B080BDC04602
:100780000010024000200240FFFFC0FF80B586B08D
:1007900000AF7860396000237B6100233B61002358
:1007A000FB6000237B6185E07B690122101C98407F
:1007B000031C3B613B681B683A691340FB60FA68A5
:1007C0003B699A4273D13B681B79012B03D03B688C
:1007D0001B79022B38D17B689B687A695200032110
:1007E000081C9040021CD2431A407B689A607B68C8
:1007F0009A683B685B79191C7B695B00081C984010
:10080000031C1A437B689A607B689B889BB27A6959
:1008100092B20121081C9040021C92B2D24392B2C3
:1008200013409AB27B689A807B689B889AB23B6837
:100830009B79191C7B699BB2081C9840031C9BB2D6
:1008400013439AB27B689A807B681B687A6952006E
:100850000321081C9040021CD2431A407B681A6096
:100860007B681A683B681B79191C7B695B00081C54
:100870009840031C1A437B681A607B68DB687A69BE
:1008800092B252000321081C9040021CD2431A402D
:100890007B68DA607B68DA683B68DB79191C7B6906
:1008A0005B00081C9840031C1A437B68DA607B6974
:1008B00001337B617B690F2B00D875E7BD4606B01D
:1008C00080BDC04690B585B000AF7860BB1C198074
:1008D0007B1C1A700023FB600023BB607B1C1A7812
:1008E000BB1C198807230B409B00111C99400B1C53
:1008F000FB60BB1C1B88DB089BB21A1CBB1C1B8843
:10090000DB089BB2191C7B6808318900CB58B91CE5
:1009100008880721014089000F20041C8C40211CFD
:10092000C94319407B6808329200D150BB1C1B8818
:10093000DB089BB21A1C7B6808329200D258FB6815
:100940001343BB60BB1C1B88DB089BB21A1C7B6873
:1009500008329200B968D150BD4605B090BDC0467E
:100960000023C25C0133002AFBD1581E7047C046E9
:100970005468697320737472696E67206973207399
:10098000656E742066726F6D2053544D333220743F
:1009900068726F7567682049324320696E746572AA
:0809A0006661636500000000C0
:0400000508000000EF
:00000001FF
