:020000040800F2
:10000000001000209D060008E9060008E906000827
:1000100000000000000000000000000000000000E0
:10002000000000000000000000000000E9060008D9
:100030000000000000000000E9060008E9060008D2
:10004000E9060008E9060008E9060008E9060008D4
:10005000E9060008E9060008E9060008E9060008C4
:10006000E9060008E9060008E9060008E9060008B4
:10007000E9060008E9060008E9060008E9060008A4
:10008000E9060008E906000800000000E90600088B
:10009000E9060008E9060008E9060008E906000884
:1000A000E9060008E9060008B9040008E9060008A6
:1000B000E906000800000000E90600080000000052
:1000C0005FF808F180B588B000AF78600023FB616D
:1000D0000023BB6100237B6100233B610023FB60A5
:1000E000654B5A680C231340FB61FB69042B07D056
:1000F000082B09D0002B30D17B68604A1A6030E0B1
:100100007B685E4A1A602CE05B4B5A68F0239B03C5
:100110001340BB61584B5A6880235B0213407B61DC
:10012000BB699B0C0233BB617B69002B05D1BB69AA
:10013000534A5A437B681A6013E04F4BDA6A0F2325
:10014000134001333B614D48396900F09FFE031CA9
:10015000BA695A437B681A6003E07B68474A1A60B1
:10016000C046454B5A68F0231340FB61FB691B09ED
:10017000FB61444AFB69D3181B78DBB2FB607B68E8
:100180001A68FB68DA407B685A603B4B5A68E02388
:10019000DB001340FB61FB691B0AFB61394AFB6909
:1001A000D3181B78DBB2FB607B685A68FB68DA40C7
:1001B0007B689A60304B1A6B80235B00134003D13D
:1001C0007B68314ADA6010E02B4B5A688023DB01F0
:1001D000134005D17B689B685A087B68DA6004E0AD
:1001E0007B689B689A087B68DA60234B1A6B402314
:1001F000134003D17B68254A1A6103E07B688022A3
:1002000012021A611C4B1A6B1023134003D17B6836
:100210001A4A5A6103E07B681A687B685A61164B78
:100220001A6B0323134004D17B689A687B689A6138
:100230001EE0114B1A6B03231340012B04D17B6882
:100240001A687B689A6113E00B4B1A6B0323134007
:10025000022B04D17B68802212029A6108E0064BCF
:100260001A6B03231340032B02D17B68034A9A6164
:10027000BD4608B080BDC0460010024000127A00A2
:1002800000093D0000000020809FD5001280000082
:1002900080B582B000AF78600A1CFB1C1A70FB1C92
:1002A0001B78002B06D0084B074A51697A680A432D
:1002B0005A6106E0044B044A52697968C9430A400E
:1002C0005A61BD4602B080BD0010024080B582B0C8
:1002D00000AF78600A1CFB1C1A70FB1C1B78002BFB
:1002E00006D0084B074A91697A680A439A6106E08A
:1002F000044B044A92697968C9430A409A61BD4631
:1003000002B080BD0010024080B582B000AF7860BE
:100310000A1CFB1C1A70FB1C1B78002B06D0084B18
:10032000074AD1697A680A43DA6106E0044B044A55
:10033000D2697968C9430A40DA61BD4602B080BD1E
:100340000010024080B582B000AF7860C0467B6884
:100350005A1E9341DBB27A68013A7A60002BF6D1DB
:10036000BD4602B080BDC04680B582B000AF8023DC
:100370001B03181C0121FFF78BFF3B1CC0229200BE
:100380001A603B1C01221A713B1C00229A713B1C13
:1003900003225A713B1C0022DA71044A3B1C101CD8
:1003A000191C00F027FBBD4602B080BD00080048C4
:1003B00080B588B000AF8023DB01181C0121FFF756
:1003C000A3FF8023DB02181C0121FFF761FF3B1C08
:1003D0001833F02212021A603B1C183302221A71E1
:1003E0003B1C183303225A71304A3B1C1833101C33
:1003F000191C00F0FFFA2D4B181C0D21002200F0F3
:10040000A3FB2A4B181C0E21002200F09DFB274B5A
:10041000181C0F21002200F097FB3B1C1833802290
:1004200052011A603B1C183301221A713B1C18330D
:1004300000229A713B1C183303225A713B1C18335B
:100440000122DA71194A3B1C1833101C191C00F0E8
:10045000D1FA174B164A128892B2802149010A43F9
:1004600092B21A80124B3C221A80114B114A9A8088
:100470000F4B0F4A128892B240210A4392B21A805F
:100480003B1C1A221A703B1C00225A703B1C012292
:100490009A703B1C181C00F0A3FC054B181C602133
:1004A000012200F04BF9BD4608B080BD00040048B1
:1004B000003800404417000090B583B000AF104BE7
:1004C000181C602100F088F9031C002B14D0FC1DBF
:1004D0000B4B181C00F020F9031C2370FB1D1B782C
:1004E000181C00F06FF8074B181CFFF72BFF044B8C
:1004F000181C602100F060F9BD4603B090BDC046F5
:1005000000380040801A060080B588B000AF802314
:100510009B02181C0121FFF7BBFE9023DB05181C72
:100520000921012200F010FB9023DB05181C0A2191
:10053000012200F009FB3B1C1833C022D2001A60D4
:100540003B1C183303225A713B1C183302221A71C8
:100550003B1C183300229A713B1C18330122DA71BC
:100560009023DA053B1C1833101C191C00F042FACA
:100570008023DB01181C0121FFF7A8FE3B1CE122B0
:1005800052021A603B1C00225A603B1C00229A60F7
:100590003B1C0022DA603B1C00225A613B1C0C22EF
:1005A0001A61074A3B1C101C191C00F01BFB044B72
:1005B000181C012100F0C6FBBD4608B080BDC04636
:1005C0000038014080B582B000AF021CFB1D1A70DC
:1005D000C046094B181C802100F0E4FB031C002BD3
:1005E000F7D0FB1D1B789BB2034A101C191C00F0AE
:1005F000C7FBBD4602B080BD0038014080B582B067
:1006000000AFFFF7D5FEFFF77FFFFFF7ADFE1E4BF4
:100610003B601E4A80235B01101C191C00F086FA07
:100620001B4B802292009A8200237B6017E0C04619
:10063000184B1B899BB21A1C02231340F8D03A684E
:100640007B68D3181B78134A101C191C00F04EF855
:10065000114B181CFFF776FE7B6801337B603B680B
:10066000181C00F063FC021C7B689A42DFD80A4B1E
:10067000181CFFF767FE064B802252009A82064B39
:10068000181CFFF75FFECBE73C0F00080004004892
:100690000008004800380040801A06000C488546D3
:1006A000002103E00B4B5B58435004310A480B4BCD
:1006B00042189A42F6D30A4A02E000231360043239
:1006C000084B9A42F9D300F0DFF8FFF797FFFEE7F7
:1006D00000100020640F000800000020100000201F
:1006E0001000002010000020FEE7000080B584B05C
:1006F00000AF78600A1CFB1C1A700023FB607B684B
:10070000FB60FB680C33FB60FB68FA1C12781A7004
:10071000BD4604B080BDC04680B584B000AF7860EF
:100720000023FB607B68FB60FB680C33FB60FB68AD
:100730001B78DBB2181CBD4604B080BD80B584B008
:1007400000AF7860FB1C1970BB1C1A703B1C0E3389
:1007500000221A803B1C0C3300221A80FB1C1B78E1
:100760001B09DAB23B1C0E331A803B1C0E331B886C
:1007700001229A403B1C0C331A80BB1C1B78002BB7
:100780000AD07B689B889AB23B1C0C331B881343AE
:100790009AB27B689A800BE07B689B889BB23A1C7C
:1007A0000C321288D24392B213409AB27B689A807C
:1007B000BD4604B080BDC04680B582B000AF786051
:1007C0000A1CBB1C1A80BB1C1B88DB439AB27B68CB
:1007D0001A81BD4602B080BD80B584B000AF78609C
:1007E0000A1CFB1C1A703B1C0F3300221A703B1CA6
:1007F0000C3300221A803B1C0A3300221A803B1C57
:10080000083300221A80FB1C1A780F2313400122A0
:100810009A403B1C0C331A80FB1C1B781B09DAB274
:100820003B1C0A331A803B1C0A331B8801229A4066
:100830003B1C0A331A807B689B889AB23B1C0833A6
:10084000391C0A3109880A401A807B681B899BB2CF
:100850003A1C0C32128813409BB2002B09D03B1C6F
:1008600008331B88002B04D03B1C0F3301221A7065
:1008700003E03B1C0F3300221A703B1C0F331B7824
:10088000181CBD4604B080BD80B500AF1B4B1B4A91
:10089000126801210A431A60184B184A5168184A15
:1008A0000A405A60154B154A1168164A0A401A60E8
:1008B000124B124A1168144A0A401A600F4B0F4A31
:1008C0005168124A0A405A600C4B0C4AD26A0F21F6
:1008D0008A43DA62094B094A116B0D4A0A401A63CE
:1008E000064B064A526B01218A435A63034B00228E
:1008F0009A6000F00FF8BD4680BDC046001002406F
:100900000CB8FFF8FFFFF6FEFFFFFBFFFFFFC0FF85
:10091000ACFEFFFF80B582B000AF00237B600023F8
:100920003B60314B304A1268802149020A431A6009
:100930002D4B1A6880239B0213403B607B68013378
:100940007B603B68002B04D17A68A023DB019A42CC
:10095000EED1254B1A6880239B02134002D001235D
:100960003B6001E000233B603B68012B38D11F4B0B
:1009700011221A601C4B1C4A52685A601A4B1A4AC0
:1009800052685A60184B184A5168194A0A405A600E
:10099000154B154A5268882149030A435A60124B85
:1009A000114A1268802149040A431A60C0460E4B5E
:1009B0001A6880239B041340F9D00B4B0A4A5268F3
:1009C00003218A435A60084B074A526802210A43AE
:1009D0005A60C046044B5A680C231340082BF9D1C7
:1009E000BD4602B080BDC04600100240002002405B
:1009F000FFFFC0FF80B586B000AF7860396000238C
:100A00007B6100233B610023FB6000237B6185E069
:100A10007B690122101C9840031C3B613B681B68EA
:100A20003A691340FB60FA683B699A4273D13B68AC
:100A30001B79012B03D03B681B79022B38D17B68D3
:100A40009B687A6952000321081C9040021CD24323
:100A50001A407B689A607B689A683B685B79191CCE
:100A60007B695B00081C9840031C1A437B689A60F2
:100A70007B689B889BB27A6992B20121081C9040E6
:100A8000021C92B2D24392B213409AB27B689A800F
:100A90007B689B889AB23B689B79191C7B699BB2E7
:100AA000081C9840031C9BB213439AB27B689A803F
:100AB0007B681B687A6952000321081C9040021C65
:100AC000D2431A407B681A607B681A683B681B79BE
:100AD000191C7B695B00081C9840031C1A437B6847
:100AE0001A607B68DB687A6992B252000321081CA5
:100AF0009040021CD2431A407B68DA607B68DA6857
:100B00003B68DB79191C7B695B00081C9840031C5F
:100B10001A437B68DA607B6901337B617B690F2B49
:100B200000D875E7BD4606B080BDC04680B582B02E
:100B300000AF78600A1CBB1C1A807B68BA1C128844
:100B40001A85BD4602B080BD90B585B000AF786013
:100B5000BB1C19807B1C1A700023FB600023BB6048
:100B60007B1C1A78BB1C198807230B409B00111CA7
:100B700099400B1CFB60BB1C1B88DB089BB21A1C3A
:100B8000BB1C1B88DB089BB2191C7B6808318900E1
:100B9000CB58B91C08880721014089000F20041C8C
:100BA0008C40211CC94319407B6808329200D15007
:100BB000BB1C1B88DB089BB21A1C7B6808329200A6
:100BC000D258FB681343BB60BB1C1B88DB089BB27D
:100BD0001A1C7B6808329200B968D150BD4605B036
:100BE00090BDC04680B58CB000AF786039600023FE
:100BF000FB620023BB6200237B627B681B680122CF
:100C0000191C91430A1C7B681A607B685B687B62D5
:100C10007A6A474B13407B623B689B687A6A13434E
:100C20007B627B687A6A5A607B681B687B627A6A3F
:100C3000404B13407B623B685A683B68DB681A4351
:100C40003B681B6913437A6A13437B627B687A6A49
:100C50001A607B689B687B627A6A374B13407B62C1
:100C60003B685B697A6A13437B627B687A6A9A6045
:100C70003B1C0833181CFFF725FA7A682F4B9A4261
:100C800004D13B1C08339B69BB6203E03B1C083367
:100C90009B68BB627B681A6880231B02134014D0D8
:100CA000BB6A5A003B681B68101C191C00F0EEF868
:100CB000031CFB62BB6A5A003B681B68101C191CB2
:100CC00000F028F90B1C7B6210E03B681B68B86AD7
:100CD000191C00F0DBF8031CFB623B681B68BA6A56
:100CE000101C191C00F016F90B1C7B623B681B687A
:100CF0005A087B6A9A4202D8FB6A0133FB627B681E
:100D00001A6880231B0213400AD0FA6A0F2313408B
:100D10005B087B62FA6A0A4B1A407B6A1343FB62E8
:100D2000FB6A9AB27B689A81BD460CB080BDC04612
:100D3000FFCFFFFFF3E9FFFFFFFCFFFF003801409B
:100D4000F0FF000080B582B000AF78600A1CFB1C89
:100D50001A70FB1C1B78002B06D07B681B680122D5
:100D60001A437B681A6007E07B681B680122191C24
:100D700091430A1C7B681A60BD4602B080BDC04624
:100D800080B582B000AF78600A1CBB1C1A80BB1C07
:100D90001B88DB05DB0D9AB27B681A85BD4602B065
:100DA00080BDC04680B584B000AF786039603B1C20
:100DB0000F3300221A707B68DB693A68134004D055
:100DC0003B1C0F3301221A7003E03B1C0F3300223F
:100DD0001A703B1C0F331B78181CBD4604B080BD35
:100DE00080B584B000AF78600023FB607B689B789F
:100DF000002B3CD0244B7A6812789208D2B2C032D1
:100E00009200D358FB607B681B781A1C03231340A5
:100E1000DB00FF22101C9840031CDA43FB681340E0
:100E2000FB607B685B789A01FF231A407B681B7824
:100E3000191C03230B40DB00111C99400B1CFA68A2
:100E40001343FB60104B7A6812789208D2B2C0321A
:100E50009200F968D1500C4B7A681278111C1F224D
:100E60000A400121081C9040021C1A6009E0064A51
:100E70007B681B78191C1F230B400121994080239C
:100E8000D150BD4604B080BD00E100E0002934D05F
:100E90000123002210B488422CD301242407A1424C
:100EA00004D2814202D209011B01F8E7E400A14209
:100EB00004D2814202D249005B00F8E7884201D3A4
:100EC000401A1A434C08A04202D3001B5C0822437C
:100ED0008C08A04202D3001B9C082243CC08A042ED
:100EE00002D3001BDC082243002803D01B0901D0D9
:100EF0000909E3E7101C10BC7047002801D000204E
:100F0000C04307B4024802A14018029003BDC04686
:100F1000190000000029F0D003B5FFF7B9FF0EBC9F
:100F20004243891A1847C0467047C0460023C25C36
:100F30000133002AFBD1581E7047C04654686973BC
:100F400020737472696E672069732073656E7420F4
:100F500066726F6D20535049204D61737465720A3B
:040F6000000000008D
:100F6400000000000102030401020304060708094B
:0400000508000000EF
:00000001FF
