:020000040800F2
:100000000010002061030008AD030008AD030008E4
:1000100000000000000000000000000000000000E0
:10002000000000000000000000000000AD03000818
:100030000000000000000000AD030008AD03000850
:10004000AD030008AD030008AD030008AD030008D0
:10005000AD030008AD030008AD030008AD030008C0
:10006000AD030008AD030008AD030008AD030008B0
:10007000AD030008AD030008AD030008AD030008A0
:10008000AD030008AD03000800000000AD03000848
:10009000AD030008AD030008AD0300089502000899
:1000A000AD030008AD030008AD030008AD03000870
:1000B000AD03000800000000AD03000800000000D0
:1000C0005FF808F180B582B000AF78600A1CFB1CB5
:1000D0001A70FB1C1B78002B06D0084B074A51698D
:1000E0007A680A435A6106E0044B044A5269796807
:1000F000C9430A405A61BD4602B080BD00100240AB
:1001000080B582B000AF78600A1CFB1C1A70FB1C23
:100110001B78002B06D0084B074AD1697A680A433E
:10012000DA6106E0044B044AD2697968C9430A409F
:10013000DA61BD4602B080BD0010024080B582B0D9
:1001400000AF7860C0467B685A1E9341DBB27A6884
:10015000013A7A60002BF6D1BD4602B080BDC046A0
:1001600080B582B000AF80231B03181C0121FFF76C
:10017000A9FF3B1CC02292001A603B1C01221A718D
:100180003B1C00229A713B1C0022DA713B1C0322AB
:100190005A71044A3B1C101C191C00F0DDFABD46C4
:1001A00002B080BD0008004880B500AF8023DB02AC
:1001B000181C0121FFF786FF80239B03181C0121D7
:1001C000FFF79EFF2D4BC0221A602C4B02221A71A2
:1001D0002A4B01229A71294B0122DA71274B032203
:1001E0005A71274A254B101C191C00F0B5FA244BF4
:1001F000181C0621012200F04BFB214B181C072183
:10020000012200F045FB1F4B0022DA601D4B00224B
:100210005A601C4B00229A601A4BB4221A61194B87
:1002200000225A61174B184A1A60164B00229A6135
:10023000164A144B101C191C00F0BAF8134B181C6A
:10024000012100F01DF9114B181C0821012200F0BA
:1002500035F90E4B181C0221012200F02FF90C4B2E
:1002600017221A700A4B00225A70094B01229A7009
:10027000074B181C00F05AFBBD4680BD2000002033
:1002800000040048040000204B1AB0000054004055
:100290002800002080B500AF224B181C082100F078
:1002A00055F9031C002B19D01E4B181C012100F01E
:1002B00021F91C4B181C082100F08CF9194B181C53
:1002C000002100F017F9184BC02292009A82174BB8
:1002D000181CFFF733FF144B00229A82114B181C95
:1002E000022100F033F9031C002B18D0104B1A68C0
:1002F000104B1B68D3181B780A4A101C191C00F0FD
:1003000017F90C4B1B685A1C0A4B1A60054B181C3A
:10031000022100F05FF9044B802292009A82BD46D0
:1003200080BDC046005400400008004800093D0060
:100330002C0000200000002080B500AF054B064ACD
:100340001A60FFF70DFFFFF72FFF044B00221A6022
:10035000FEE7C0462C000020D8090008000000205D
:100360000C488546002103E00B4B5B584350043199
:100370000A480B4B42189A42F6D30A4A02E000237D
:1003800013600432084B9A42F9D300F02FF9FFF7BB
:10039000D3FFFEE700100020000A00080000002044
:1003A000000000200000002030000020FEE70000D8
:1003B00080B584B000AF786039600023FB607B6853
:1003C0001B680122191C91430A1C7B681A607B6818
:1003D0001B68FB60FA68274B1340FB603B685A6858
:1003E0003B689B681B021343FA681343FB607B68FE
:1003F000FA681A603B681A681F4B1A407B681A61DA
:100400007B681B6801221A437B681A600023FB602B
:100410007B68FA689A607B68FA68DA603B689A6978
:100420003B681B691343FB607B68FA689A607B68D2
:100430009B68802212021A437B689A603B68DB68E3
:10044000FB607B681A68FB681A437B681A607B68EC
:100450005B68FB60FA68094B1340FB603B685B69B3
:10046000FA681343FB607B68FA685A60BD4604B0C3
:1004700080BDC046FFE0CF00FFFFFFF0FF7FFF071A
:1004800080B582B000AF78600A1CFB1C1A70FB1CA0
:100490001B78002B06D07B681B6801221A437B68FF
:1004A0001A6007E07B681B680122191C91430A1C33
:1004B0007B681A60BD4602B080BDC04680B584B07E
:1004C00000AFF860B960FB1D1A70FB1D1B78002B94
:1004D00006D0FB681A68BB681A43FB681A6006E01E
:1004E000FB681B68BA68D2431A40FB681A60BD46B5
:1004F00004B080BD80B582B000AF78600A1CFB1CE0
:100500001A70FB1C1B78002B06D07B685A68074BBF
:100510001A407B685A6006E07B685B6880221202A2
:100520001A437B685A60BD4602B080BDFF7FFFFF63
:1005300080B582B000AF78600A1CFB1C1A70FB1CEF
:100540001A787B689A62BD4602B080BD80B586B0DD
:1005500000AF786039600023FB603B1C173300223A
:100560001A7000233B613A68FC239B01134005D0BD
:100570007B681A68802313403B610EE03A68C02311
:10058000134005D07B681A68402313403B6104E0A8
:100590007B681B683A6813403B617B689B69FB6022
:1005A000FB683A681340FB60FB68002B07D03B698F
:1005B000002B04D03B1C173301221A7003E03B1CB4
:1005C000173300221A703B1C17331B78181CBD46CA
:1005D00006B080BD80B582B000AF786039607B68BE
:1005E0003A68DA61BD4602B080BDC04680B500AF52
:1005F0001B4B1B4A126801210A431A60184B184A08
:100600005168184A0A405A60154B154A1168164A33
:100610000A401A60124B124A1168144A0A401A60C2
:100620000F4B0F4A5168124A0A405A600C4B0C4A51
:10063000D26A0F218A43DA62094B094A116B0D4ACB
:100640000A401A63064B064A526B01218A435A63D9
:10065000034B00229A6000F00FF8BD4680BDC046F3
:10066000001002400CB8FFF8FFFFF6FEFFFFFBFF93
:10067000FFFFC0FFACFEFFFF80B582B000AF0023DC
:100680007B6000233B60314B304A12688021490275
:100690000A431A602D4B1A6880239B0213403B606B
:1006A0007B6801337B603B68002B04D17A68A02310
:1006B000DB019A42EED1254B1A6880239B0213403E
:1006C00002D001233B6001E000233B603B68012B2B
:1006D00038D11F4B11221A601C4B1C4A52685A60B9
:1006E0001A4B1A4A52685A60184B184A5168194AEC
:1006F0000A405A60154B154A5268882149030A433B
:100700005A60124B114A1268802149040A431A6048
:10071000C0460E4B1A6880239B041340F9D00B4B44
:100720000A4A526803218A435A60084B074A5268B2
:1007300002210A435A60C046044B5A680C231340F6
:10074000082BF9D1BD4602B080BDC0460010024062
:1007500000200240FFFFC0FF80B586B000AF786088
:10076000396000237B6100233B610023FB60002391
:100770007B6185E07B690122101C9840031C3B6172
:100780003B681B683A691340FB60FA683B699A4210
:1007900073D13B681B79012B03D03B681B79022B7B
:1007A00038D17B689B687A6952000321081C90400D
:1007B000021CD2431A407B689A607B689A683B6847
:1007C0005B79191C7B695B00081C9840031C1A4369
:1007D0007B689A607B689B889BB27A6992B20121A0
:1007E000081C9040021C92B2D24392B213409AB2BB
:1007F0007B689A807B689B889AB23B689B79191CBE
:100800007B699BB2081C9840031C9BB213439AB2AD
:100810007B689A807B681B687A6952000321081CF8
:100820009040021CD2431A407B681A607B681A68A9
:100830003B681B79191C7B695B00081C9840031CF2
:100840001A437B681A607B68DB687A6992B252004F
:100850000321081C9040021CD2431A407B68DA60D6
:100860007B68DA683B68DB79191C7B695B00081CD4
:100870009840031C1A437B68DA607B6901337B6113
:100880007B690F2B00D875E7BD4606B080BDC0461A
:1008900090B585B000AF7860BB1C19807B1C1A70C6
:1008A0000023FB600023BB607B1C1A78BB1C1988EB
:1008B00007230B409B00111C99400B1CFB60BB1CC9
:1008C0001B88DB089BB21A1CBB1C1B88DB089BB275
:1008D000191C7B6808318900CB58B91C088807218E
:1008E000014089000F20041C8C40211CC943194081
:1008F0007B6808329200D150BB1C1B88DB089BB27E
:100900001A1C7B6808329200D258FB681343BB6004
:10091000BB1C1B88DB089BB21A1C7B680832920048
:10092000B968D150BD4605B090BDC04680B584B011
:1009300000AF78600023FB607B689B78002B3CD085
:10094000244B7A6812789208D2B2C0329200D358FF
:10095000FB607B681B781A1C03231340DB00FF221B
:10096000101C9840031CDA43FB681340FB607B6853
:100970005B789A01FF231A407B681B78191C0323BC
:100980000B40DB00111C99400B1CFA681343FB6001
:10099000104B7A6812789208D2B2C0329200F9688D
:1009A000D1500C4B7A681278111C1F220A40012189
:1009B000081C9040021C1A6009E0064A7B681B78FC
:1009C000191C1F230B40012199408023D150BD46A3
:1009D00004B080BD00E100E0546869732073747254
:1009E000696E672069732073656E742066726F6D1F
:1009F0002049324320536C617665723B0000000051
:0400000508000000EF
:00000001FF
