:020000040800F2
:1000000000100020E9060008350700083507000841
:1000100000000000000000000000000000000000E0
:10002000000000000000000000000000350700088C
:100030000000000000000000350700083507000838
:1000400035070008350700083507000835070008A0
:100050003507000835070008350700083507000890
:100060003507000835070008350700083507000880
:100070003507000835070008350700083507000870
:10008000CD0400083507000800000000350700080F
:100090003507000835070008350700083507000850
:1000A0003507000835070008350700083507000840
:1000B00035070008000000003507000800000000B8
:1000C0005FF808F180B588B000AF78600023FB616D
:1000D0000023BB6100237B6100233B610023FB60A5
:1000E000654B5A680C231340FB61FB69042B07D056
:1000F000082B09D0002B30D17B68604A1A6030E0B1
:100100007B685E4A1A602CE05B4B5A68F0239B03C5
:100110001340BB61584B5A6880235B0213407B61DC
:10012000BB699B0C0233BB617B69002B05D1BB69AA
:10013000534A5A437B681A6013E04F4BDA6A0F2325
:10014000134001333B614D48396901F09BF9031CB1
:10015000BA695A437B681A6003E07B68474A1A60B1
:10016000C046454B5A68F0231340FB61FB691B09ED
:10017000FB61444AFB69D3181B78DBB2FB607B68E8
:100180001A68FB68DA407B685A603B4B5A68E02388
:10019000DB001340FB61FB691B0AFB61394AFB6909
:1001A000D3181B78DBB2FB607B685A68FB68DA40C7
:1001B0007B689A60304B1A6B80235B00134003D13D
:1001C0007B68314ADA6010E02B4B5A688023DB01F0
:1001D000134005D17B689B685A087B68DA6004E0AD
:1001E0007B689B689A087B68DA60234B1A6B402314
:1001F000134003D17B68254A1A6103E07B688022A3
:1002000012021A611C4B1A6B1023134003D17B6836
:100210001A4A5A6103E07B681A687B685A61164B78
:100220001A6B0323134004D17B689A687B689A6138
:100230001EE0114B1A6B03231340012B04D17B6882
:100240001A687B689A6113E00B4B1A6B0323134007
:10025000022B04D17B68802212029A6108E0064BCF
:100260001A6B03231340032B02D17B68034A9A6164
:10027000BD4608B080BDC0460010024000127A00A2
:1002800000093D0000000020809FD5001280000082
:1002900080B582B000AF78600A1CFB1C1A70FB1C92
:1002A0001B78002B06D0084B074A51697A680A432D
:1002B0005A6106E0044B044A52697968C9430A400E
:1002C0005A61BD4602B080BD0010024080B582B0C8
:1002D00000AF78600A1CFB1C1A70FB1C1B78002BFB
:1002E00006D0084B074A91697A680A439A6106E08A
:1002F000044B044A92697968C9430A409A61BD4631
:1003000002B080BD0010024080B582B000AF7860BE
:100310000A1CFB1C1A70FB1C1B78002B06D0084B18
:10032000074AD1697A680A43DA6106E0044B044A55
:10033000D2697968C9430A40DA61BD4602B080BD1E
:100340000010024080B584B000AF78600023FB60ED
:100350000023FB6002E0FB680133FB60FA687B6806
:100360009A42F8D3BD4604B080BDC04680B582B085
:1003700000AF80231B03181C0121FFF789FF3B1CE2
:10038000C02292001A603B1C01221A713B1C002201
:100390009A713B1C0022DA713B1C03225A71044AF9
:1003A0003B1C101C191C00F07DFABD4602B080BD3C
:1003B0000008004880B58AB000AF80239B02181C5B
:1003C0000121FFF765FF9023DB05181C072101229F
:1003D00000F004FB3B1C203380221A603B1C2033BE
:1003E00002221A713B1C203300229A713B1C2033DD
:1003F0000022DA713B1C203300225A719023DA0567
:100400003B1C2033101C191C00F04CFA0220012167
:10041000FFF77AFF3B1C1433294A1A803B1C143324
:10042000284A5A603B1C143300221A813B1C1433A7
:1004300000225A80244A3B1C1433101C191C00F063
:1004400019FC3B1C083304221A803B1C0833002291
:100450005A803B1C083301229A803B1C083300223F
:10046000DA803B1C083300221A81174A3B1C0833F0
:10047000101C191C00F096FC134B181C012100F0F5
:1004800071FC114B00221A820F4B181C042101220F
:1004900000F062FD0C4B181C0121002200F05CFDF5
:1004A0003B1D10221A703B1D00225A703B1D012279
:1004B0009A703B1D181C00F08FFFBD460AB080BD2E
:1004C0003F1F0000E70300000004004080B59EB01D
:1004D00000AF304B181C042100F062FD031C012BFF
:1004E00054D100237B672B4B181C00F0B3FC031C7A
:1004F000FB66294BC02292009A82FB6E002B21D111
:10050000264B181C00F0CAF834E0FB6E181C0A21B8
:1005100000F0FCFF0B1C1A1C3B1C6B331A70FB6EAB
:10052000181C0A2100F0AEFF031CFB663B1C6B335A
:100530001B783033DAB2391D7B6FCB181A707B6FA2
:1005400001337B67FB6E002BDFD1154B181C00F0CD
:10055000A5F87B6F013B3B6709E03A1D3B6FD31861
:100560001B78181C00F07EF83B6F013B3B673B6F2C
:10057000002BF2DA0B4B181CFFF7E4FE064B0022AF
:100580009A82044B181C042100F04AFDBD461EB09F
:1005900080BDC04600040040000800483415000833
:1005A0003C150008801A060080B588B000AF802393
:1005B0009B02181C0121FFF76BFE9023DB05181C22
:1005C0000921012200F00AFA9023DB05181C0A21F8
:1005D000012200F003FA3B1C1833C022D2001A603B
:1005E0003B1C183303225A713B1C183302221A7128
:1005F0003B1C183300229A713B1C18330122DA711C
:100600009023DA053B1C1833101C191C00F04AF922
:100610008023DB01181C0121FFF758FE3B1CE1225F
:1006200052021A603B1C00225A603B1C00229A6056
:100630003B1C0022DA603B1C00225A613B1C0C224E
:100640001A61074A3B1C101C191C00F015FA044BD8
:10065000181C012100F0C0FABD4608B080BDC0469C
:100660000038014080B582B000AF021CFB1D1A703B
:10067000C046094B181C802100F0DEFA031C002B39
:10068000F7D0FB1D1B789BB2034A101C191C00F00D
:10069000C1FABD4602B080BD0038014090B585B0BA
:1006A00000AF78600023FB6009E0FB687A68D3182C
:1006B0001B78181CFFF7D6FFFB680133FB60FC6852
:1006C0007B68181C00F02EFF031C9C42EDD3BD4636
:1006D00005B090BD80B500AFFFF76CFEFFF764FF7B
:1006E000FFF744FEFEE7C0460C488546002103E0C4
:1006F0000B4B5B58435004310A480B4B42189A424B
:10070000F6D30A4A02E0002313600432084B9A42EF
:10071000F9D300F011F8FFF7DDFFFEE7001000202D
:1007200044150008000000201000002010000020E8
:1007300010000020FEE7000080B500AF1B4B1B4AF5
:10074000126801210A431A60184B184A5168184A66
:100750000A405A60154B154A1168164A0A401A6039
:10076000124B124A1168144A0A401A600F4B0F4A82
:100770005168124A0A405A600C4B0C4AD26A0F2147
:100780008A43DA62094B094A116B0D4A0A401A631F
:10079000064B064A526B01218A435A63034B0022DF
:1007A0009A6000F00FF8BD4680BDC04600100240C0
:1007B0000CB8FFF8FFFFF6FEFFFFFBFFFFFFC0FFD7
:1007C000ACFEFFFF80B582B000AF00237B6000234A
:1007D0003B60314B304A1268802149020A431A605B
:1007E0002D4B1A6880239B0213403B607B680133CA
:1007F0007B603B68002B04D17A68A023DB019A421E
:10080000EED1254B1A6880239B02134002D00123AE
:100810003B6001E000233B603B68012B38D11F4B5C
:1008200011221A601C4B1C4A52685A601A4B1A4A11
:1008300052685A60184B184A5168194A0A405A605F
:10084000154B154A5268882149030A435A60124BD6
:10085000114A1268802149040A431A60C0460E4BAF
:100860001A6880239B041340F9D00B4B0A4A526844
:1008700003218A435A60084B074A526802210A43FF
:100880005A60C046044B5A680C231340082BF9D118
:10089000BD4602B080BDC0460010024000200240AC
:1008A000FFFFC0FF80B586B000AF786039600023DD
:1008B0007B6100233B610023FB6000237B6185E0BB
:1008C0007B690122101C9840031C3B613B681B683C
:1008D0003A691340FB60FA683B699A4273D13B68FE
:1008E0001B79012B03D03B681B79022B38D17B6825
:1008F0009B687A6952000321081C9040021CD24375
:100900001A407B689A607B689A683B685B79191C1F
:100910007B695B00081C9840031C1A437B689A6043
:100920007B689B889BB27A6992B20121081C904037
:10093000021C92B2D24392B213409AB27B689A8060
:100940007B689B889AB23B689B79191C7B699BB238
:10095000081C9840031C9BB213439AB27B689A8090
:100960007B681B687A6952000321081C9040021CB6
:10097000D2431A407B681A607B681A683B681B790F
:10098000191C7B695B00081C9840031C1A437B6898
:100990001A607B68DB687A6992B252000321081CF6
:1009A0009040021CD2431A407B68DA607B68DA68A8
:1009B0003B68DB79191C7B695B00081C9840031CB1
:1009C0001A437B68DA607B6901337B617B690F2B9B
:1009D00000D875E7BD4606B080BDC04690B585B06D
:1009E00000AF7860BB1C19807B1C1A700023FB6071
:1009F0000023BB607B1C1A78BB1C198807230B40A3
:100A00009B00111C99400B1CFB60BB1C1B88DB0866
:100A10009BB21A1CBB1C1B88DB089BB2191C7B6891
:100A200008318900CB58B91C08880721014089008A
:100A30000F20041C8C40211CC94319407B680832DC
:100A40009200D150BB1C1B88DB089BB21A1C7B6830
:100A500008329200D258FB681343BB60BB1C1B8852
:100A6000DB089BB21A1C7B6808329200B968D1502F
:100A7000BD4605B090BDC04680B58CB000AF786073
:100A800039600023FB620023BB6200237B627B682A
:100A90001B680122191C91430A1C7B681A607B6841
:100AA0005B687B627A6A474B13407B623B689B685A
:100AB0007A6A13437B627B687A6A5A607B681B6838
:100AC0007B627A6A404B13407B623B685A683B68A2
:100AD000DB681A433B681B6913437A6A13437B62E2
:100AE0007B687A6A1A607B689B687B627A6A374B9C
:100AF00013407B623B685B697A6A13437B627B6865
:100B00007A6A9A603B1C0833181CFFF7DBFA7A6894
:100B10002F4B9A4204D13B1C08339B69BB6203E014
:100B20003B1C08339B68BB627B681A6880231B02EE
:100B3000134014D0BB6A5A003B681B68101C191C78
:100B400000F0A0FC031CFB62BB6A5A003B681B68F8
:100B5000101C191C00F0DAFC0B1C7B6210E03B68D7
:100B60001B68B86A191C00F08DFC031CFB623B6813
:100B70001B68BA6A101C191C00F0C8FC0B1C7B62B5
:100B80003B681B685A087B6A9A4202D8FB6A0133A9
:100B9000FB627B681A6880231B0213400AD0FA6A42
:100BA0000F2313405B087B62FA6A0A4B1A407B6A88
:100BB0001343FB62FB6A9AB27B689A81BD460CB014
:100BC00080BDC046FFCFFFFFF3E9FFFFFFFCFFFF43
:100BD00000380140F0FF000080B582B000AF7860BF
:100BE0000A1CFB1C1A70FB1C1B78002B06D07B68B0
:100BF0001B6801221A437B681A6007E07B681B6848
:100C00000122191C91430A1C7B681A60BD4602B080
:100C100080BDC04680B582B000AF78600A1CBB1CA6
:100C20001A80BB1C1B88DB05DB0D9AB27B681A851A
:100C3000BD4602B080BDC04680B584B000AF7860CC
:100C400039603B1C0F3300221A707B68DB693A68FD
:100C5000134004D03B1C0F3301221A7003E03B1CED
:100C60000F3300221A703B1C0F331B78181CBD4633
:100C700004B080BD80B584B000AF786039603B1CA3
:100C80000E3300221A803B1C0E337A6812881A80B9
:100C90007A682D4B9A4208D07A688023DB059A4205
:100CA00003D07A68294B9A4210D13B1C0E333A1C70
:100CB0000E32128870218A431A803B6859883B1C87
:100CC0000E333A1C0E3212880A431A807A68204B7F
:100CD0009A4210D03B1C0E333A1C0E3211881D4A2A
:100CE0000A401A803B6819893B1C0E333A1C0E32AD
:100CF00012880A431A807B683A1C0E3212881A80C6
:100D00003B685A687B68DA623B681A887B681A8598
:100D10007A680D4B9A420BD07A680F4B9A4207D0F3
:100D20007A680E4B9A4203D07A680D4B9A4204D1EE
:100D30003B689B7A1A1C7B681A867B6801229A8220
:100D4000BD4604B080BDC046002C014000040040F8
:100D500000100040FFFCFFFF004001400044014044
:100D60000048014080B582B000AF78600A1CFB1CCF
:100D70001A70FB1C1B78002B08D07B681B889BB269
:100D8000012213439AB27B681A8007E07B681B88B4
:100D90009BB2012293439AB27B681A80BD4602B08F
:100DA00080BDC04680B582B000AF786039603B68D6
:100DB0001B88002B10D13B6859883B689A883B6898
:100DC0001B89786800F03CF93B68DB887A68101C66
:100DD000191C00F049F839E03B681B88042B10D13E
:100DE0003B6859883B689A883B681B89786800F0A3
:100DF0008BF93B68DB887A68101C191C00F050F8EE
:100E000024E03B681B88082B10D13B6859883B685D
:100E10009A883B681B89786800F0EEF93B68DB88AC
:100E20007A68101C191C00F05BF80FE03B685988C9
:100E30003B689A883B681B89786800F051FA3B68E8
:100E4000DB887A68101C191C00F066F8BD4602B0F9
:100E500080BDC04680B582B000AF78607B689B6B78
:100E6000181CBD4602B080BD80B582B000AF78606E
:100E70000A1CBB1C1A807B681B8B9BB20C22934301
:100E80009AB27B681A837B681B8B9AB2BB1C1B8847
:100E900013439AB27B681A83BD4602B080BDC04638
:100EA00080B582B000AF78600A1CBB1C1A807B68DA
:100EB0001B8B9AB2094B13409AB27B681A837B68EA
:100EC0001B8B9AB2BB1C1B881B029BB213439AB2AA
:100ED0007B681A83BD4602B080BDC046FFF3FFFFAA
:100EE00080B582B000AF78600A1CBB1C1A807B689A
:100EF0009B8B9BB20C2293439AB27B689A837B684C
:100F00009B8B9AB2BB1C1B8813439AB27B689A8353
:100F1000BD4602B080BDC04680B582B000AF7860EB
:100F20000A1CBB1C1A807B689B8B9AB2094B13402E
:100F30009AB27B689A837B689B8B9AB2BB1C1B8896
:100F40001B029BB213439AB27B689A83BD4602B0E0
:100F500080BDC046FFF3FFFF80B582B000AF786070
:100F6000BB1C19807B1C1A707B1C1B78002B09D0C2
:100F70007B689B899AB2BB1C1B8813439AB27B681F
:100F80009A810AE07B689B899BB2BA1C1288D24383
:100F900092B213409AB27B689A81BD4602B080BD7E
:100FA00080B584B000AF78600A1CBB1C1A803B1C63
:100FB0000F3300221A703B1C0C3300221A803B1C9A
:100FC0000A3300221A807B681B8A9AB23B1C0C33BE
:100FD000B91C09880A401A807B689B899AB23B1C1D
:100FE0000A33B91C09880A401A803B1C0C331B8841
:100FF000002B09D03B1C0A331B88002B04D03B1C60
:101000000F3301221A7003E03B1C0F3300221A70C9
:101010003B1C0F331B78181CBD4604B080BDC04676
:1010200080B582B000AF78600A1CBB1C1A80BB1C64
:101030001B88DB439AB27B681A82BD4602B080BD32
:1010400080B586B000AFF860081C111C1A1C3B1C50
:101050000A3318803B1C08331980BB1D1A803B1CC7
:10106000163300221A803B1C143300221A80FB68BE
:101070001B8C9BB2012293439AB2FB681A843B1CDF
:101080001633FA68128B1A803B1C1433FA68128CE0
:101090001A803B1C16333A1C16321288F3218A43FD
:1010A0001A80BB1D1B881B019AB23B1C08331B888E
:1010B000134399B23B1C16333A1C163212880A436A
:1010C0001A803B1C14333A1C143212880A218A43BA
:1010D0001A803A1C0A323B1C143312881B881343B3
:1010E0009AB23B1C143301210A431A80FB683A1C54
:1010F000163212881A83FB683A1C143212881A843A
:10110000BD4606B080BDC04680B586B000AFF86071
:10111000081C111C1A1C3B1C0A3318803B1C08338A
:101120001980BB1D1A803B1C163300221A803B1C01
:10113000143300221A803B1C123300221A80FB68F1
:101140001B8C9BB2102293439AB2FB681A843B1CFF
:101150001633FA68128B1A803B1C1433FA68128C0F
:101160001A803B1C12333A1C0A32128812011A8070
:101170003B1C16333A1C163211881E4A0A401A804C
:10118000BB1D1B881B0399B23B1C16333A1C16323D
:1011900012880A431A803B1C08331B881B0299B231
:1011A0003B1C16333A1C163212880A431A803B1C29
:1011B00014333A1C14321288A0218A431A803A1C34
:1011C00012323B1C143312881B8813439AB23B1C07
:1011D000143310210A431A80FB683A1C1632128815
:1011E0001A83FB683A1C143212881A84BD4606B072
:1011F00080BDC046FF0C000080B586B000AFF8602F
:10120000081C111C1A1C3B1C0A3318803B1C083399
:101210001980BB1D1A803B1C163300221A803B1C10
:10122000143300221A803B1C123300221A80FB6800
:101230001B8C9AB2284B13409AB2FB681A843B1C51
:101240001633FA68928B1A803B1C1433FA68128C9E
:101250001A803B1C12333A1C0A32128812021A807E
:101260003B1C16333A1C16321288F3218A431A802B
:10127000BB1D1B881B019AB23B1C08331B88134300
:1012800099B23B1C16333A1C163212880A431A8054
:101290003B1C14333A1C14321188104A0A401A803D
:1012A0003A1C12323B1C143312881B8813439AB227
:1012B0003B1C1433802149000A431A80FB683A1C06
:1012C000163212889A83FB683A1C143212881A84E8
:1012D000BD4606B080BDC046FFFEFFFFFFF5FFFF25
:1012E00080B586B000AFF860081C111C1A1C3B1CAE
:1012F0000A3318803B1C08331980BB1D1A803B1C25
:10130000163300221A803B1C143300221A803B1C27
:10131000123300221A80FB681B8C9AB22B4B1340AD
:101320009AB2FB681A843B1C1633FA68928B1A80B7
:101330003B1C1433FA68128C1A803B1C12333A1C83
:101340000A32128812031A803B1C16333A1C1632DA
:1013500011881F4A0A401A803B1C08331B881B0255
:1013600099B23B1C16333A1C163212880A431A8073
:10137000BB1D1B881B0399B23B1C16333A1C16324B
:1013800012880A431A803B1C14333A1C1432118809
:10139000104A0A401A803A1C12323B1C143312883D
:1013A0001B8813439AB23B1C1433802149010A4322
:1013B0001A80FB683A1C163212889A83FB683A1C22
:1013C000143212881A84BD4606B080BDFFEFFFFFBD
:1013D000FF0C0000FF5F000080B584B000AF7860B4
:1013E0000023FB607B689B78002B3CD0244B7A6801
:1013F00012789208D2B2C0329200D358FB607B6858
:101400001B781A1C03231340DB00FF22101C98409A
:10141000031CDA43FB681340FB607B685B789A012E
:10142000FF231A407B681B78191C03230B40DB0049
:10143000111C99400B1CFA681343FB60104B7A682F
:1014400012789208D2B2C0329200F968D1500C4B97
:101450007A681278111C1F220A400121081C904052
:10146000021C1A6009E0064A7B681B78191C1F23BE
:101470000B40012199408023D150BD4604B080BD6E
:1014800000E100E0002934D00123002210B488429A
:101490002CD301242407A14204D2814202D20901A3
:1014A0001B01F8E7E400A14204D2814202D24900C4
:1014B0005B00F8E7884201D3401A1A434C08A04267
:1014C00002D3001B5C0822438C08A04202D3001BFD
:1014D0009C082243CC08A04202D3001BDC08224314
:1014E000002803D01B0901D00909E3E7101C10BC38
:1014F0007047002801D00020C04307B4024802A171
:101500004018029003BDC046190000000029F0D029
:1015100003B5FFF7B9FF0EBC4243891A1847C0460E
:101520007047C0460023C25C0133002AFBD1581E1D
:101530007047C046434E543A300000000A434E54B0
:041540003A2000004D
:101544000000000001020304010203040607080965
:0400000508000000EF
:00000001FF
