:020000040800F2
:10000000001000207D020008C9020008C902000893
:1000100000000000000000000000000000000000E0
:10002000000000000000000000000000C9020008FD
:100030000000000000000000C9020008C90200081A
:10004000C9020008C9020008C9020008C902000864
:10005000C9020008C9020008C9020008C902000854
:10006000C9020008C9020008C9020008C902000844
:10007000C9020008C9020008C9020008C902000834
:1000800085010008C902000800000000C90200083C
:10009000C9020008C9020008C9020008C902000814
:1000A000C9020008C9020008C9020008C902000804
:1000B000C902000800000000C9020008000000009A
:1000C0005FF808F180B582B000AF78600A1CFB1CB5
:1000D0001A70FB1C1B78002B06D0084B074A51698D
:1000E0007A680A435A6106E0044B044A5269796807
:1000F000C9430A405A61BD4602B080BD00100240AB
:1001000080B582B000AF78600A1CFB1C1A70FB1C23
:100110001B78002B06D0084B074AD1697A680A433E
:10012000DA6106E0044B044AD2697968C9430A409F
:10013000DA61BD4602B080BD0010024080B582B0D9
:1001400000AF80231B03181C0121FFF7BBFF3B1CE2
:10015000C02292001A603B1C01221A713B1C002233
:100160009A713B1C0022DA713B1C03225A71044A2B
:100170003B1C101C191C00F05FF9BD4602B080BD8D
:100180000008004880B500AF0C4B181C012100F09E
:10019000ABFA031C002B0AD0094BC02292009A82B2
:1001A000084B181C00F04EF8054B00229A82034BB6
:1001B000181C012100F0D8FABD4680BD00040040A3
:1001C00000080048409C000080B584B000AF0220C9
:1001D0000121FFF795FF3B1C174A1A803B1C174A69
:1001E0005A603B1C00221A813B1C00225A80144A90
:1001F0003B1C101C191C00F0BBF9114B181C0121F1
:10020000012200F04DFA0E4B181C012100F028FAD3
:100210003B1C0C3310221A703B1C0C3300225A700A
:100220003B1C0C3301229A703B1C0C33181C00F051
:10023000ABFABD4604B080BD9F0F00002F750000D3
:100240000004004080B584B000AF78600023FB60FC
:100250000023FB6002E0FB680133FB60FA687B6807
:100260009A42F8D3BD4604B080BDC04680B500AF09
:10027000FFF764FFFFF7A8FFFEE7C0460C4885467E
:10028000002103E00B4B5B58435004310A480B4BF1
:1002900042189A42F6D30A4A02E00023136004325D
:1002A000084B9A42F9D300F011F8FFF7DFFFFEE7A1
:1002B000001000203408000800000020000000208A
:1002C0000000002000000020FEE7000080B500AF25
:1002D0001B4B1B4A126801210A431A60184B184A2B
:1002E0005168184A0A405A60154B154A1168164A57
:1002F0000A401A60124B124A1168144A0A401A60E6
:100300000F4B0F4A5168124A0A405A600C4B0C4A74
:10031000D26A0F218A43DA62094B094A116B0D4AEE
:100320000A401A63064B064A526B01218A435A63FC
:10033000034B00229A6000F00FF8BD4680BDC04616
:10034000001002400CB8FFF8FFFFF6FEFFFFFBFFB6
:10035000FFFFC0FFACFEFFFF80B582B000AF0023FF
:100360007B6000233B60314B304A12688021490298
:100370000A431A602D4B1A6880239B0213403B608E
:100380007B6801337B603B68002B04D17A68A02333
:10039000DB019A42EED1254B1A6880239B02134061
:1003A00002D001233B6001E000233B603B68012B4E
:1003B00038D11F4B11221A601C4B1C4A52685A60DC
:1003C0001A4B1A4A52685A60184B184A5168194A0F
:1003D0000A405A60154B154A5268882149030A435E
:1003E0005A60124B114A1268802149040A431A606C
:1003F000C0460E4B1A6880239B041340F9D00B4B68
:100400000A4A526803218A435A60084B074A5268D5
:1004100002210A435A60C046044B5A680C23134019
:10042000082BF9D1BD4602B080BDC0460010024085
:1004300000200240FFFFC0FF80B586B000AF7860AB
:10044000396000237B6100233B610023FB600023B4
:100450007B6185E07B690122101C9840031C3B6195
:100460003B681B683A691340FB60FA683B699A4233
:1004700073D13B681B79012B03D03B681B79022B9E
:1004800038D17B689B687A6952000321081C904030
:10049000021CD2431A407B689A607B689A683B686A
:1004A0005B79191C7B695B00081C9840031C1A438C
:1004B0007B689A607B689B889BB27A6992B20121C3
:1004C000081C9040021C92B2D24392B213409AB2DE
:1004D0007B689A807B689B889AB23B689B79191CE1
:1004E0007B699BB2081C9840031C9BB213439AB2D1
:1004F0007B689A807B681B687A6952000321081C1C
:100500009040021CD2431A407B681A607B681A68CC
:100510003B681B79191C7B695B00081C9840031C15
:100520001A437B681A607B68DB687A6992B2520072
:100530000321081C9040021CD2431A407B68DA60F9
:100540007B68DA683B68DB79191C7B695B00081CF7
:100550009840031C1A437B68DA607B6901337B6136
:100560007B690F2B00D875E7BD4606B080BDC0463D
:1005700080B584B000AF786039603B1C0E33002238
:100580001A803B1C0E337A6812881A807A682D4BC9
:100590009A4208D07A688023DB059A4203D07A68B1
:1005A000294B9A4210D13B1C0E333A1C0E32128852
:1005B00070218A431A803B6859883B1C0E333A1CD1
:1005C0000E3212880A431A807A68204B9A4210D061
:1005D0003B1C0E333A1C0E3211881D4A0A401A8009
:1005E0003B6819893B1C0E333A1C0E3212880A43B1
:1005F0001A807B683A1C0E3212881A803B685A684F
:100600007B68DA623B681A887B681A857A680D4BCA
:100610009A420BD07A680F4B9A4207D07A680E4BF9
:100620009A4203D07A680D4B9A4204D13B689B7A78
:100630001A1C7B681A867B6801229A82BD4604B028
:1006400080BDC046002C0140000400400010004066
:10065000FFFCFFFF00400140004401400048014012
:1006600080B582B000AF78600A1CFB1C1A70FB1CBE
:100670001B78002B08D07B681B889BB20122134398
:100680009AB27B681A8007E07B681B889BB20122C4
:1006900093439AB27B681A80BD4602B080BDC046C3
:1006A00080B582B000AF7860BB1C19807B1C1A70CB
:1006B0007B1C1B78002B09D07B689B899AB2BB1CE2
:1006C0001B8813439AB27B689A810AE07B689B89F6
:1006D0009BB2BA1C1288D24392B213409AB27B6882
:1006E0009A81BD4602B080BD80B584B000AF78600D
:1006F0000A1CBB1C1A803B1C0F3300221A703B1CC7
:100700000C3300221A803B1C0A3300221A807B68BB
:100710001B8A9AB23B1C0C33B91C09880A401A8008
:100720007B689B899AB23B1C0A33B91C09880A4032
:100730001A803B1C0C331B88002B09D03B1C0A334E
:100740001B88002B04D03B1C0F3301221A7003E0DE
:100750003B1C0F3300221A703B1C0F331B78181CF4
:10076000BD4604B080BDC04680B582B000AF7860A1
:100770000A1CBB1C1A80BB1C1B88DB439AB27B681B
:100780001A82BD4602B080BD80B584B000AF7860EB
:100790000023FB607B689B78002B3CD0244B7A685D
:1007A00012789208D2B2C0329200D358FB607B68B4
:1007B0001B781A1C03231340DB00FF22101C9840F7
:1007C000031CDA43FB681340FB607B685B789A018B
:1007D000FF231A407B681B78191C03230B40DB00A6
:1007E000111C99400B1CFA681343FB60104B7A688C
:1007F00012789208D2B2C0329200F968D1500C4BF4
:100800007A681278111C1F220A400121081C9040AE
:10081000021C1A6009E0064A7B681B78191C1F231A
:100820000B40012199408023D150BD4604B080BDCA
:0408300000E100E003
:0400000508000000EF
:00000001FF
