:020000040800F2
:1000000000100020DD050008290600082906000868
:1000100000000000000000000000000000000000E0
:100020000000000000000000000000002906000899
:100030000000000000000000290600082906000852
:1000400029060008290600082906000829060008D4
:1000500029060008290600082906000829060008C4
:1000600029060008290600082906000829060008B4
:1000700029060008290600082906000829060008A4
:1000800029060008290600080000000029060008CB
:100090002906000829060008290600082906000884
:1000A000290600082906000875040008290600082A
:1000B00029060008000000002906000800000000D2
:1000C0005FF808F180B588B000AF78600023FB616D
:1000D0000023BB6100237B6100233B610023FB60A5
:1000E000654B5A680C231340FB61FB69042B07D056
:1000F000082B09D0002B30D17B68604A1A6030E0B1
:100100007B685E4A1A602CE05B4B5A68F0239B03C5
:100110001340BB61584B5A6880235B0213407B61DC
:10012000BB699B0C0233BB617B69002B05D1BB69AA
:10013000534A5A437B681A6013E04F4BDA6A0F2325
:10014000134001333B614D48396900F009FE031C3F
:10015000BA695A437B681A6003E07B68474A1A60B1
:10016000C046454B5A68F0231340FB61FB691B09ED
:10017000FB61444AFB69D3181B78DBB2FB607B68E8
:100180001A68FB68DA407B685A603B4B5A68E02388
:10019000DB001340FB61FB691B0AFB61394AFB6909
:1001A000D3181B78DBB2FB607B685A68FB68DA40C7
:1001B0007B689A60304B1A6B80235B00134003D13D
:1001C0007B68314ADA6010E02B4B5A688023DB01F0
:1001D000134005D17B689B685A087B68DA6004E0AD
:1001E0007B689B689A087B68DA60234B1A6B402314
:1001F000134003D17B68254A1A6103E07B688022A3
:1002000012021A611C4B1A6B1023134003D17B6836
:100210001A4A5A6103E07B681A687B685A61164B78
:100220001A6B0323134004D17B689A687B689A6138
:100230001EE0114B1A6B03231340012B04D17B6882
:100240001A687B689A6113E00B4B1A6B0323134007
:10025000022B04D17B68802212029A6108E0064BCF
:100260001A6B03231340032B02D17B68034A9A6164
:10027000BD4608B080BDC0460010024000127A00A2
:1002800000093D0000000020809FD5001280000082
:1002900080B582B000AF78600A1CFB1C1A70FB1C92
:1002A0001B78002B06D0084B074A51697A680A432D
:1002B0005A6106E0044B044A52697968C9430A400E
:1002C0005A61BD4602B080BD0010024080B582B0C8
:1002D00000AF78600A1CFB1C1A70FB1C1B78002BFB
:1002E00006D0084B074A91697A680A439A6106E08A
:1002F000044B044A92697968C9430A409A61BD4631
:1003000002B080BD0010024080B582B000AF7860BE
:100310000A1CFB1C1A70FB1C1B78002B06D0084B18
:10032000074AD1697A680A43DA6106E0044B044A55
:10033000D2697968C9430A40DA61BD4602B080BD1E
:100340000010024080B582B000AF7860C0467B6884
:100350005A1E9341DBB27A68013A7A60002BF6D1DB
:10036000BD4602B080BDC04680B582B000AF8023DC
:100370001B03181C0121FFF78BFF3B1CC0229200BE
:100380001A603B1C01221A713B1C00229A713B1C13
:1003900003225A713B1C0022DA71044A3B1C101CD8
:1003A000191C00F09FFABD4602B080BD000800484D
:1003B00080B588B000AF8023DB01181C0121FFF756
:1003C000A3FF8023DB02181C0121FFF761FF3B1C08
:1003D0001833F02212021A603B1C183302221A71E1
:1003E0003B1C183303225A71204A3B1C1833101C43
:1003F000191C00F077FA1D4B181C0C21002200F08C
:100400000DFB1A4B181C0D21002200F007FB174BA7
:10041000181C0E21002200F001FB144B181C0F21A8
:10042000002200F0FBFA124BBA2252019A80104BC4
:100430000F4A128892B240210A4392B21A803B1CA2
:100440001A221A703B1C00225A703B1C01229A701F
:100450003B1C181C00F02EFC054B181C60210122CF
:1004600000F0E4F8BD4608B080BDC0460004004876
:100470000038004080B582B000AF114B181C6021DD
:1004800000F022F9031C002B16D00D4B9B899AB269
:10049000FB1D1A70FB1D1B78181C00F075F8094B2A
:1004A000C02292009A82084B181CFFF74BFF044BA6
:1004B000181C602100F0F8F8BD4602B080BDC046AF
:1004C0000038004000080048801A060080B588B057
:1004D00000AF80239B02181C0121FFF7D9FE902357
:1004E000DB05181C0921012200F098FA9023DB0596
:1004F000181C0A21012200F091FA3B1C1833C0227B
:10050000D2001A603B1C183303225A713B1C18336B
:1005100002221A713B1C183300229A713B1C1833BB
:100520000122DA719023DA053B1C1833101C191CC8
:1005300000F0D8F98023DB01181C0121FFF7C6FE6B
:100540003B1CE12252021A603B1C00225A603B1CF9
:1005500000229A603B1C0022DA603B1C00225A6198
:100560003B1C0C221A61074A3B1C101C191C00F092
:10057000A3FA044B181C012100F04EFBBD4608B045
:1005800080BDC0460038014080B582B000AF021C7B
:10059000FB1D1A70C046094B181C802100F06CFB33
:1005A000031C002BF7D0FB1D1B789BB2034A101CC9
:1005B000191C00F04FFBBD4602B080BD0038014061
:1005C00080B582B000AFFFF7F3FEFFF77FFFFFF7C4
:1005D000CBFE014B7B60FEE7000E00080C48854611
:1005E000002103E00B4B5B58435004310A480B4B8E
:1005F00042189A42F6D30A4A02E0002313600432FA
:10060000084B9A42F9D300F0B7F8FFF7D9FFFEE79D
:1006100000100020240E0008000000201000002020
:100620001000002010000020FEE7000080B584B01C
:1006300000AF7860FB1C1970BB1C1A703B1C0E339A
:1006400000221A803B1C0C3300221A80FB1C1B78F2
:100650001B09DAB23B1C0E331A803B1C0E331B887D
:1006600001229A403B1C0C331A80BB1C1B78002BC8
:100670000AD07B689B889AB23B1C0C331B881343BF
:100680009AB27B689A800BE07B689B889BB23A1C8D
:100690000C321288D24392B213409AB27B689A808D
:1006A000BD4604B080BDC04680B582B000AF786062
:1006B0000A1CBB1C1A80BB1C1B88DB439AB27B68DC
:1006C0001A81BD4602B080BD80B584B000AF7860AD
:1006D0000A1CFB1C1A703B1C0F3300221A703B1CB7
:1006E0000C3300221A803B1C0A3300221A803B1C68
:1006F000083300221A80FB1C1A780F2313400122B2
:100700009A403B1C0C331A80FB1C1B781B09DAB285
:100710003B1C0A331A803B1C0A331B8801229A4077
:100720003B1C0A331A807B689B889AB23B1C0833B7
:10073000391C0A3109880A401A807B681B899BB2E0
:100740003A1C0C32128813409BB2002B09D03B1C80
:1007500008331B88002B04D03B1C0F3301221A7076
:1007600003E03B1C0F3300221A703B1C0F331B7835
:10077000181CBD4604B080BD80B500AF1B4B1B4AA2
:10078000126801210A431A60184B184A5168184A26
:100790000A405A60154B154A1168164A0A401A60F9
:1007A000124B124A1168144A0A401A600F4B0F4A42
:1007B0005168124A0A405A600C4B0C4AD26A0F2107
:1007C0008A43DA62094B094A116B0D4A0A401A63DF
:1007D000064B064A526B01218A435A63034B00229F
:1007E0009A6000F00FF8BD4680BDC0460010024080
:1007F0000CB8FFF8FFFFF6FEFFFFFBFFFFFFC0FF97
:10080000ACFEFFFF80B582B000AF00237B60002309
:100810003B60314B304A1268802149020A431A601A
:100820002D4B1A6880239B0213403B607B68013389
:100830007B603B68002B04D17A68A023DB019A42DD
:10084000EED1254B1A6880239B02134002D001236E
:100850003B6001E000233B603B68012B38D11F4B1C
:1008600011221A601C4B1C4A52685A601A4B1A4AD1
:1008700052685A60184B184A5168194A0A405A601F
:10088000154B154A5268882149030A435A60124B96
:10089000114A1268802149040A431A60C0460E4B6F
:1008A0001A6880239B041340F9D00B4B0A4A526804
:1008B00003218A435A60084B074A526802210A43BF
:1008C0005A60C046044B5A680C231340082BF9D1D8
:1008D000BD4602B080BDC04600100240002002406C
:1008E000FFFFC0FF80B586B000AF7860396000239D
:1008F0007B6100233B610023FB6000237B6185E07B
:100900007B690122101C9840031C3B613B681B68FB
:100910003A691340FB60FA683B699A4273D13B68BD
:100920001B79012B03D03B681B79022B38D17B68E4
:100930009B687A6952000321081C9040021CD24334
:100940001A407B689A607B689A683B685B79191CDF
:100950007B695B00081C9840031C1A437B689A6003
:100960007B689B889BB27A6992B20121081C9040F7
:10097000021C92B2D24392B213409AB27B689A8020
:100980007B689B889AB23B689B79191C7B699BB2F8
:10099000081C9840031C9BB213439AB27B689A8050
:1009A0007B681B687A6952000321081C9040021C76
:1009B000D2431A407B681A607B681A683B681B79CF
:1009C000191C7B695B00081C9840031C1A437B6858
:1009D0001A607B68DB687A6992B252000321081CB6
:1009E0009040021CD2431A407B68DA607B68DA6868
:1009F0003B68DB79191C7B695B00081C9840031C71
:100A00001A437B68DA607B6901337B617B690F2B5A
:100A100000D875E7BD4606B080BDC04690B585B02C
:100A200000AF7860BB1C19807B1C1A700023FB6030
:100A30000023BB607B1C1A78BB1C198807230B4062
:100A40009B00111C99400B1CFB60BB1C1B88DB0826
:100A50009BB21A1CBB1C1B88DB089BB2191C7B6851
:100A600008318900CB58B91C08880721014089004A
:100A70000F20041C8C40211CC94319407B6808329C
:100A80009200D150BB1C1B88DB089BB21A1C7B68F0
:100A900008329200D258FB681343BB60BB1C1B8812
:100AA000DB089BB21A1C7B6808329200B968D150EF
:100AB000BD4605B090BDC04680B58CB000AF786033
:100AC00039600023FB620023BB6200237B627B68EA
:100AD0001B680122191C91430A1C7B681A607B6801
:100AE0005B687B627A6A474B13407B623B689B681A
:100AF0007A6A13437B627B687A6A5A607B681B68F8
:100B00007B627A6A404B13407B623B685A683B6861
:100B1000DB681A433B681B6913437A6A13437B62A1
:100B20007B687A6A1A607B689B687B627A6A374B5B
:100B300013407B623B685B697A6A13437B627B6824
:100B40007A6A9A603B1C0833181CFFF7BBFA7A6874
:100B50002F4B9A4204D13B1C08339B69BB6203E0D4
:100B60003B1C08339B68BB627B681A6880231B02AE
:100B7000134014D0BB6A5A003B681B68101C191C38
:100B800000F0EEF8031CFB62BB6A5A003B681B686E
:100B9000101C191C00F028F90B1C7B6210E03B684C
:100BA0001B68B86A191C00F0DBF8031CFB623B6889
:100BB0001B68BA6A101C191C00F016F90B1C7B622A
:100BC0003B681B685A087B6A9A4202D8FB6A013369
:100BD000FB627B681A6880231B0213400AD0FA6A02
:100BE0000F2313405B087B62FA6A0A4B1A407B6A48
:100BF0001343FB62FB6A9AB27B689A81BD460CB0D4
:100C000080BDC046FFCFFFFFF3E9FFFFFFFCFFFF02
:100C100000380140F0FF000080B582B000AF78607E
:100C20000A1CFB1C1A70FB1C1B78002B06D07B686F
:100C30001B6801221A437B681A6007E07B681B6807
:100C40000122191C91430A1C7B681A60BD4602B040
:100C500080BDC04680B582B000AF78600A1CBB1C66
:100C60001A80BB1C1B88DB05DB0D9AB27B681A85DA
:100C7000BD4602B080BDC04680B584B000AF78608C
:100C800039603B1C0F3300221A707B68DB693A68BD
:100C9000134004D03B1C0F3301221A7003E03B1CAD
:100CA0000F3300221A703B1C0F331B78181CBD46F3
:100CB00004B080BD80B584B000AF78600023FB60D5
:100CC0007B689B78002B3CD0244B7A681278920882
:100CD000D2B2C0329200D358FB607B681B781A1CDA
:100CE00003231340DB00FF22101C9840031CDA434F
:100CF000FB681340FB607B685B789A01FF231A4016
:100D00007B681B78191C03230B40DB00111C9940E6
:100D10000B1CFA681343FB60104B7A681278920838
:100D2000D2B2C0329200F968D1500C4B7A68127876
:100D3000111C1F220A400121081C9040021C1A604D
:100D400009E0064A7B681B78191C1F230B40012110
:100D500099408023D150BD4604B080BD00E100E041
:100D6000002934D00123002210B488422CD301245E
:100D70002407A14204D2814202D209011B01F8E7F3
:100D8000E400A14204D2814202D249005B00F8E7AC
:100D9000884201D3401A1A434C08A04202D3001BD8
:100DA0005C0822438C08A04202D3001B9C0822430B
:100DB000CC08A04202D3001BDC082243002803D049
:100DC0001B0901D00909E3E7101C10BC704700287B
:100DD00001D00020C04307B4024802A1401802908D
:100DE00003BDC046190000000029F0D003B5FFF78D
:100DF000B9FF0EBC4243891A1847C0467047C04627
:100E00005468697320737472696E67206973207304
:100E1000656E742066726F6D2053504920536C616B
:040E200076650000F3
:100E2400000000000102030401020304060708098C
:0400000508000000EF
:00000001FF
