:020000040800F2
:1000000000040020450200085502000855020008BF
:1000100055020008550200085502000800000000C3
:100020000000000000000000000000005502000871
:1000300055020008000000005502000855020008A3
:100040004502000845020008450200084502000874
:100050004502000845020008450200084502000864
:100060004502000845020008450200084502000854
:100070004502000845020008450200084502000844
:100080004502000845020008450200084502000834
:100090004502000845020008450200084502000824
:1000A0004502000845020008450200084502000814
:1000B0004502000845020008450200084502000804
:1000C00045020008450200084502000845020008F4
:1000D00045020008450200084502000845020008E4
:1000E00045020008450200084502000845020008D4
:1000F0004502000880B487B000AF786039604FF0E7
:1001000000037B614FF000033B614FF00003FB6095
:100110004FF000037B618CE07B694FF0010202FA33
:1001200003F33B613B681A683B691340FB60FA6864
:100130003B699A4279D17B681A687B694FEA43032D
:100140004FF0030101FA03F36FEA03031A407B68DF
:100150001A607B681A683B681B7919467B694FEA0D
:10016000430301FA03F31A437B681A603B681B7967
:10017000012B03D03B681B79022B3AD17B689A682C
:100180007B694FEA43034FF0030101FA03F36FEA7F
:1001900003031A407B689A607B689A683B685B79C6
:1001A00019467B694FEA430301FA03F31A437B685C
:1001B0009A607B689B889AB27B699BB24FF0010181
:1001C00001FA03F39BB26FEA03039BB213409AB2A6
:1001D0007B689A807B689B889AB23B689B791946BA
:1001E0007B699BB201FA03F39BB213439AB27B681B
:1001F0009A807B68DA687B699BB24FEA43034FF0D1
:10020000030101FA03F36FEA03031A407B68DA6023
:100210007B68DA683B68DB7919467B694FEA430300
:1002200001FA03F31A437B68DA607B6903F1010387
:100230007B617B690F2B7FF66FAF07F11C07BD4613
:1002400080BC704780B500AF00F032F800F074F960
:1002500080BD00BF80B400AFFEE700BF80B483B0B4
:1002600000AF78600B46FB70FB78002B0CD04FF48E
:100270006053C4F202034FF46052C4F20202D16927
:100280007A680A43DA610DE04FF46053C4F2020366
:100290004FF46052C4F20202D1697A686FEA020236
:1002A0000A40DA6107F10C07BD4680BC704700BF09
:1002B00080B500AF4FF46053C4F202034FF46052B4
:1002C000C4F20202126842F480721A604FF4605263
:1002D000C4F202024FF46053C4F2020399684CF274
:1002E0000C03C8F6FF030B4093604FF46053C4F255
:1002F00002034FF46052C4F20202126822F08852E4
:1003000022F001121A604FF46053C4F202034FF45A
:100310006052C4F20202126822F480221A604FF482
:100320006053C4F202034FF46052C4F202029268B6
:1003300022F47D029A604FF46053C4F202034FF03E
:100340000002DA6000F008F84FF46D43CEF20003CB
:100350004FF000629A6080BD80B483B000AF4FF070
:1003600000037B604FF000033B604FF46053C4F226
:1003700002034FF46052C4F20202126842F4803267
:100380001A604FF46053C4F202031B6803F4003395
:100390003B607B6803F101037B603B68002B03D16A
:1003A0007B68B3F5A06FECD14FF46053C4F2020345
:1003B0001B6803F40033002B03D04FF001033B60B4
:1003C00002E04FF000033B603B68012B40F0AF8040
:1003D0004FF47053C4F202034FF47052C4F202029D
:1003E000126842F004021A604FF47053C4F2020320
:1003F0004FF47052C4F20202126842F002021A6014
:100400004FF47053C4F202034FF47052C4F202026C
:10041000126842F001021A604FF46053C4F2020302
:100420004FF46052C4F20202526A42F080525A62A1
:100430004FF4E043C4F200034FF400621A6000BFBF
:100440004FF4E043C4F200035B6803F01003002B99
:10045000F6D14FF46053C4F202034FF46052C4F279
:10046000020292689A604FF46053C4F202034FF4A0
:100470006052C4F2020292689A604FF46053C4F270
:1004800002034FF46052C4F2020292689A604FF481
:100490006053C4F202034FF46052C4F20202926845
:1004A00022F47D029A604FF46053C4F202034FF4C9
:1004B0006052C4F20202926842F411029A604FF450
:1004C0006053C4F202034FF46052C4F20202126895
:1004D00042F080721A6000BF4FF46053C4F202030E
:1004E0001B6803F00073002BF6D04FF46053C4F286
:1004F00002034FF46052C4F20202926822F0030237
:100500009A604FF46053C4F202034FF46052C4F295
:100510000202926842F003029A6000BF4FF46053F7
:10052000C4F202039B6803F00C030C2BF6D107F115
:100530000C07BD4680BC704780B584B000AF4FF05B
:1005400004004FF00101FFF789FE4FF44073BB60D8
:100550004FF000033B734FF00003BB734FF00003F9
:10056000FB734FF003037B7307F108034FF4006044
:10057000C4F202001946FFF7BDFD4FF001004FF035
:100580000101FFF76BFE4FF001033B604FF00003EA
:100590003B714FF00003BB714FF00003FB714FF054
:1005A00003037B713B464FF00000C4F20200194682
:1005B000FFF7A0FD4FF00003C4F202031B8A9BB2B9
:1005C00003F00103002B06D04FF40063C4F20203D2
:1005D0004FF440729A8242F2107000F01FF84FF40C
:1005E0000063C4F202034FF000029A82E2E700BF08
:1005F00080B483B000AF786000BF7B68002B0CBF75
:1006000000230123DBB27A6802F1FF327A60002B0B
:10061000F3D107F10C07BD4680BC704780B584B0AC
:1006200000AF78604FF00003FB6007E04FF41670F6
:10063000FFF7DEFFFB6803F10103FB60FA687B68EC
:0C0640009A42F3D307F11007BD4680BDBD
:0400000508000000EF
:00000001FF
