:020000040800F2
:10000000BC8E00204D590008497400085574000842
:100010005D740008657400086D740008000000003D
:1000200000000000000000000000000075740008DF
:1000300081740008000000008D74000899740008A5
:10004000BD590008BD590008BD590008BD59000838
:10005000BD590008BD590008BD590008BD59000828
:10006000BD590008BD590008BD590008BD59000818
:10007000BD590008BD590008BD590008BD59000808
:10008000BD590008BD590008BD590008BD590008F8
:10009000BD590008BD590008BD590008BD590008E8
:1000A000BD590008BD590008BD590008BD590008D8
:1000B000BD590008BD590008BD590008BD590008C8
:1000C000BD590008BD590008BD590008BD590008B8
:1000D000BD590008BD590008BD590008BD590008A8
:1000E000A5740008BD590008BD590008BD59000895
:1000F000BD590008BD590008BD590008BD59000888
:10010000BD590008BD590008BD590008BD59000877
:10011000BD590008BD590008BD590008BD59000867
:10012000BD590008BD590008BD590008BD59000857
:10013000BD590008BD590008BD590008BD59000847
:10014000BD590008BD590008BD590008BD59000837
:10015000BD590008BD590008BD590008BD59000827
:10016000BD590008BD590008BD590008BD59000817
:10017000BD590008BD590008BD590008BD59000807
:10018000BD590008BD59000890B484B000AF0246C4
:100190000B46FA71BB714FF00003FB60BB7903F0B3
:1001A00003034FEA83034FF00F0202FA03F3FB60ED
:1001B0004FF46053C4F20103BA794FEA9202D2B20B
:1001C00010464FF46052C4F20102B9794FEA91012E
:1001D000C9B201F1020152F82110FA686FEA020275
:1001E000114000F1020243F822104FF46053C4F2B0
:1001F0000103BA794FEA9202D2B210464FF460522C
:10020000C4F20102B9794FEA9101C9B201F10201C8
:1002100052F82110FC79BA7902F003024FEA820207
:1002200004FA02F2114300F1020243F8221007F12E
:100230001007BD4690BC704780B483B000AF7860B3
:100240004FF0DC03C4F227237A681A6007F10C0729
:10025000BD4680BC704700BF80B485B000AF7860F9
:1002600043F20013C2F200031A687B681B88D3189C
:10027000FB607A68FB689A422ED0FB681B79002BE2
:100280002AD143F20413C2F200031B68FA689A42AF
:1002900022D043F20813C2F200031A68FB689A42A4
:1002A00005D143F20813C2F200037A681A60FB68B2
:1002B0001A887B681A8043F20013C2F200031A689E
:1002C000FB681B88D218796843F20013C2F200035E
:1002D0001B68CB1A9BB2538043F20013C2F2000397
:1002E0001A687B685B88D318BB60BA687B689A42DF
:1002F00026D0BB681B79002B22D143F20813C2F22F
:1003000000031A687B689A4205D143F20813C2F2CF
:100310000003BA681A607B681A88BB681A8043F2C7
:100320000013C2F200031A687B681B88D218B968F0
:1003300043F20013C2F200031B68CB1A9BB2538036
:1003400007F11407BD4680BC704700BF80B483B07E
:1003500000AF40F6EC03C2F2000303F1030323F005
:1003600003031A4643F20013C2F200031A6043F279
:100370000013C2F200031B687B607B684FF42052BD
:100380001A807B684FF000025A807B684FF00002B1
:100390001A7143F20013C2F200031B6803F52052E6
:1003A00043F20413C2F200031A6043F20413C2F2D0
:1003B00000031B684FF001021A7143F20413C2F2EA
:1003C00000031B684FF420521A8043F20413C2F258
:1003D00000031B684FF420525A8043F20C13C2F200
:1003E00000034FF001021A7043F20013C2F200033F
:1003F0001A6843F20813C2F200031A6007F10C07EF
:10040000BD4680BC704700BF80B584B000AF786047
:100410007B68002B06D144F2CC40C0F6010008F006
:100420006DF836E043F20013C2F200031B687A68ED
:100430009A4243F20013C2F200031B687A689A42A0
:1004400007D343F20413C2F200031B687A689A428E
:1004500006D344F2EC40C0F6010008F04FF818E073
:100460007B68A3F10803FB60FB684FF000021A7180
:1004700043F20813C2F200031B68FA689A4205D2DD
:1004800043F20813C2F20003FA681A60F868FFF733
:10049000E3FE07F11007BD4680BD00BF80B586B002
:1004A00000AF78600B467B807B8803F103039BB22F
:1004B00023F003037B807B880B2B02D84FF00C03C7
:1004C0007B807B88B3F5205F02D94FF00003D0E03A
:1004D00043F20013C2F200031B687A689A4243F2A7
:1004E0000013C2F200031B687A689A4207D343F2F2
:1004F0000413C2F200031B687A689A4207D344F2DD
:100500000850C0F6010007F0F9FF7B68B1E07B6896
:10051000A3F108037B617A6943F20013C2F200037E
:100520001B68D31A7B827B691A887B8AD31A9BB299
:10053000A3F108033B827A883B8A9A4202D94FF0A2
:10054000000396E07A883B8A9A4201D17B6890E06A
:1005500043F20013C2F200031A687B691B88D318A8
:10056000FB60FB681B79002B42D1FB681B887B81F9
:100570007A8A7B88D3189BB203F108033B8143F24C
:100580000813C2F200031A68FB689A420BD143F2C7
:100590000013C2F200031A683B89D21843F2081311
:1005A000C2F200031A6043F20013C2F200031A6899
:1005B0003B89D318FB60FB684FF000021A71FB689F
:1005C0007A891A80FB687A8A5A807B693A891A800C
:1005D000FB681B88B3F5205F4AD043F20013C2F2D8
:1005E00000031A68FB681B88D3183A895A803FE0D9
:1005F0007B8803F114023B8A9A4239D87A8A7B8835
:10060000D3189BB203F108033B8143F20013C2F2FB
:1006100000031A683B89D318FB6043F20813C2F247
:1006200000031B68FA689A4205D243F20813C2F22B
:100630000003FA681A60FB684FF000021A717B69C8
:100640001A88FB681A80FB687A8A5A807B693A8923
:100650001A80FB681B88B3F5205F09D043F20013B2
:10066000C2F200031A68FB681B88D3183A895A80C3
:100670007B68184607F11807BD4680BD80B586B077
:1006800000AF0346FB80FB88002B02D14FF0000334
:10069000D1E0FB8803F103039BB223F00303FB804B
:1006A000FB880B2B02D84FF00C03FB80FB88B3F5C3
:1006B000205F02D94FF00003BDE043F20813C2F2FD
:1006C00000031B681A4643F20013C2F200031B68C2
:1006D000D31AFB829DE043F20013C2F200031A68B2
:1006E000FB8AD3183B613B691B79002B40F0888063
:1006F0003B691B881A46FB8AD31AA3F10802FB88C0
:100700009A427DD33B691B881A46FB8AD31AA3F110
:100710000802FB8803F114039A4230D3FA8AFB885B
:10072000D3189BB203F10803FB8143F20013C2F21A
:1007300000031A68FB89D318BB60BB684FF0000246
:100740001A713B691A88BB681A80BB68FA8A5A809A
:100750003B69FA891A803B694FF001021A71BB6844
:100760001B88B3F5205F0ED043F20013C2F20003E2
:100770001A68BB681B88D318FA895A8003E03B6962
:100780004FF001021A7143F20813C2F200031B6812
:100790003A699A4230D110E043F20013C2F20003EA
:1007A0001A6843F20813C2F200031B681B88D218B0
:1007B00043F20813C2F200031A6043F20813C2F2B4
:1007C00000031B681B79002B0BD043F20813C2F205
:1007D00000031A6843F20413C2F200031B689A4232
:1007E000DAD143F20813C2F200031A6843F2041389
:1007F000C2F200031B689A423B6903F108031AE046
:1008000043F20013C2F200031A68FB8AD3181B8854
:10081000FB82FA8AFB88C3F520539A42FFF65BAF4E
:10082000FB881BB244F22450C0F60100194607F0C1
:100830004FFE4FF00003184607F11807BD4680BD74
:1008400080B500AF00F0BAFE43F21013C2F200030D
:100850001B7803F10103DAB243F21013C2F2000372
:100860001A7043F21013C2F200031B7803F0010365
:10087000002B01D000F0F8FB80BD00BF80B584B034
:1008800000AF786044F2E050C0F6010007F020FEAF
:100890007B681B7C184601F009FB7B681B7C072BDF
:1008A00000F2BD8001A252F823F000BFCD0800087D
:1008B0007309000899090008BF090008DF0900084A
:1008C0001F0A00081F0A0008FF0900084FF0000374
:1008D000FB7346F2BC03C2F200031A687B689A42BB
:1008E0000BD146F2BC03C2F200031B68DA6846F281
:1008F000BC03C2F200031A602EE046F2BC03C2F24F
:1009000000031A6846F2B803C2F200031A601CE042
:1009100046F2B803C2F200031B68DA687B689A42A9
:1009200008D146F2B803C2F200031B687A68D268A5
:10093000DA6011E046F2B803C2F200031B68DA681D
:1009400046F2B803C2F200031A6046F2B803C2F2DC
:1009500000031B68002BDBD17B684FF00002DA60DC
:100960004FF00200796803F0B1FF4FF000037B60A5
:1009700061E04FF00003FB7346F2B400C2F20000E6
:10098000796801F0EBF84FF00300796803F09EFFFF
:100990004FF000037B604EE04FF00003FB7346F224
:1009A000AC00C2F20000796801F0D8F84FF0020004
:1009B000796803F08BFF4FF000037B603BE07868C1
:1009C0004FF001010FF0A2FF0346FB7397F90F30C0
:1009D000002B2BD17B684FF005021A7426E0786853
:1009E0004FF001010FF092FF0346FB7397F90F30B0
:1009F000002B1DD17B684FF005021A7418E078684F
:100A00004FF001010FF082FF0346FB7397F90F309F
:100A1000002B0FD17B684FF009021A740AE04FF0E7
:100A20000003FB734FF000037B6004E000BF02E0B3
:100A300000BF00E000BF7B68002B06D097F90F30A5
:100A4000002B02D1786810F0B9FBFB7B5BB2184633
:100A500007F11007BD4680BD80B58CB002AF78604D
:100A600039607B681B7C0A2B0CD146F2C000C2F2B5
:100A70000000796801F072F84FF00200796803F025
:100A800025FF61E07B689B6D7B627B685B6A3B62F4
:100A90007B68002B02D07B681B6801E04FF00003ED
:100AA000FB607B6803F10403002B02D07B685B686A
:100AB00001E04FF000033B617B681B8BFB837B688D
:100AC0001B8CBB837B68D3F89030BB617B685B6910
:100AD0007B6146F2AC00C2F20000796801F03EF89A
:100AE0007B689B6F002B04D07B689B6F184600F0DF
:100AF000CFFD7B685B6F002B04D07B685B6F184673
:100B000000F0C6FD4FF00200796803F0DFFEBB691C
:100B1000002B04D0BB6978696FF0040198473B68EB
:100B2000002B11D044F2F850C0F6010007F0E6FCAB
:100B300007F10C0207F11003F98B0091B98B0191B9
:100B4000786A396A10F004FE07F12807BD4680BDB7
:100B500080B586B000AFF860B9601346FB80FB68D3
:100B60001B7C002B02D04FF0F303C1E0FB88002B6D
:100B700003D100F005FA0346FB8046F2B403C2F24B
:100B800000031B687B611EE07B691B8BFA889A421D
:100B900016D17B69002B10D07B691B68002B0CD011
:100BA000BB68002B09D0BB681B68002B05D07B6994
:100BB0001A68BB681B689A4202D14FF0F50397E0B0
:100BC0007B69DB687B617B69002BDDD146F2AC037E
:100BD000C2F200031B687B611EE07B691B8BFA88F5
:100BE0009A4216D17B69002B10D07B691B68002BC1
:100BF0000CD0BB68002B09D0BB681B68002B05D04C
:100C00007B691A68BB681B689A4202D14FF0F503F2
:100C10006EE07B69DB687B617B69002BDDD146F28E
:100C2000BC03C2F200031B687B611EE07B691B8B67
:100C3000FA889A4216D17B69002B10D07B691B6819
:100C4000002B0CD0BB68002B09D0BB681B68002BA5
:100C500005D07B691A68BB681B689A4202D14FF0C5
:100C6000F50345E07B69DB687B617B69002BDDD1A7
:100C700046F2C003C2F200031B687B6110E07B698F
:100C80001B8BFA889A4208D17B691A68BB681B687B
:100C90009A4202D14FF0F5032AE07B69DB687B6161
:100CA0007B69002BEBD1BB68002B07D0BB681B68AE
:100CB000002B03D0FB68BA6810681860FB68FA88DC
:100CC0001A8346F2BC03C2F200031A68FB68DA60BA
:100CD00046F2BC03C2F20003FA681A60FB8844F2D1
:100CE0001460C0F60100194607F0F2FB4FF0000354
:100CF0005BB2184607F11807BD4680BD80B485B0C9
:100D000000AFF860B9601346FB714FF0FB035BB2B4
:100D1000184607F11407BD4680BC704780B584B003
:100D200000AF78600B46FB707B681B7C002B02D009
:100D30004FF0000399E07B681B7C012B01D17B689D
:100D400093E04FF0030003F08DFDF860FB68002B8B
:100D500002D14FF0000388E07B685A69FB685A6152
:100D60007B681A8BFB681A83FB684FF001021A74C8
:100D70007B681A89FB681A81FB681B8943F00203B0
:100D80009AB2FB681A817B68DA7AFB68DA727B6850
:100D90009A7AFB689A727B68002B02D07B681B688A
:100DA00001E04FF00003FA68136046F2BC03C2F2A0
:100DB00000031A687B689A420BD146F2BC03C2F268
:100DC00000031B68DA6846F2BC03C2F200031A6033
:100DD0002EE046F2BC03C2F200031A6846F2B803E2
:100DE000C2F200031A601CE046F2B803C2F200032C
:100DF0001B68DA687B689A4208D146F2B803C2F2EF
:100E000000031B687A68D268DA6011E046F2B80322
:100E1000C2F200031B68DA6846F2B803C2F20003AC
:100E20001A6046F2B803C2F200031B68002BDBD144
:100E30007B684FF00002DA604FF00200796803F03F
:100E400045FDFA6840F6FD43C0F60003D36146F263
:100E5000B403C2F200031A68FB68DA6046F2B40316
:100E6000C2F20003FA681A60FB68184607F110071F
:100E7000BD4680BD80B485B000AF78607B685A6A9B
:100E80007B681B8DD318FB607B68DA6A7B68198FDF
:100E900040F2B453994202D87B681B8F01E040F2C4
:100EA000B453D318FA68D31A002B08DB7B681A8D69
:100EB0007B685A857B68DB6AFA68D31A17E07B681F
:100EC0005A6A7B68DB6AD31A002B04DD7B684FF01B
:100ED00000025A8509E07B68DB6A9AB27B685B6A2C
:100EE0009BB2D31A9AB27B685A854FF0000318461A
:100EF00007F11407BD4680BC704700BF80B584B0C1
:100F000000AF78600B467B807B681A8D7B88D31896
:100F10009AB27B681A857B681A8D40F668339A42CC
:100F200003D97B6840F668321A857868FFF7A2FF1C
:100F30000346FB60FA6840F2D9239A420BDD7B68D6
:100F400093F8223043F00203DAB27B6883F8222060
:100F5000786810F033F979887B681B8D1A467B68B6
:100F60001B8DC3F5366303F1080344F23060C0F60D
:100F7000010007F0ADFA07F11007BD4680BD00BFC4
:100F800080B483B000AF04E000BF02E000BF00E027
:100F900000BF40F23003C2F200031B8803F10103DB
:100FA0009AB240F23003C2F200031A8040F23003DA
:100FB000C2F200031B889BB21BB2002B06DA40F280
:100FC0003003C2F200034FF480521A8046F2AC03A1
:100FD000C2F200031B687B600BE07B681A8B40F257
:100FE0003003C2F200031B889A42CDD07B68DB68D5
:100FF0007B607B68002BF0D146F2C003C2F2000395
:101000001B687B600BE07B681A8B40F23003C2F2F6
:1010100000031B889A42B9D07B68DB687B607B68E1
:10102000002BF0D146F2B403C2F200031B687B60D0
:101030000BE07B681A8B40F23003C2F200031B887E
:101040009A42A5D07B68DB687B607B68002BF0D17F
:1010500040F23003C2F200031B88184607F10C0768
:10106000BD4680BC704700BFF0B589B002AF4FF0FD
:1010700000037B7346F2B003C2F200031B6803F166
:10108000010246F2B003C2F200031A604FF00003FF
:101090003B6146F2AC03C2F200031B687B617B69D3
:1010A000002B40F03F8244F28060C0F6010007F060
:1010B00025FA37E244F29C60C0F6010007F01EFA00
:1010C0004FF00003FB734FF00003BB737B691B7C85
:1010D000022B0FD17B6993F84A30062B0AD1FB7B98
:1010E00003F10103FB7344F2C060C0F6010007F096
:1010F00005FAC6E07B6993F84A300C2B0AD1FB7BDA
:1011000003F10103FB7344F2E860C0F6010007F04D
:10111000F5F9B6E07B6993F89C30002B2ED07B6903
:10112000D3F8983003F101027B69C3F898207B69FA
:10113000D3F898207B6993F89C3003F1FF3144F297
:10114000D853C0F601035B5C9A42C0F09A807B6979
:101150004FF00002C3F898207B6993F89C30062B6F
:1011600008D87B6993F89C3003F10103DAB27B69FC
:1011700083F89C20786910F007FD82E07B69DB8EA4
:101180001BB2002B06DB7B69DB8E03F101039AB2F5
:101190007B69DA867B699B6F002B72D07B69DA8E64
:1011A0007B69B3F8483012B21BB29A4269DB7B69A3
:1011B000DB8E1AB27B69B3F848301BB244F2107070
:1011C000C0F6010011461A4607F082F97B691B7CC4
:1011D000022B1BD07B69B3F844301BB24FEAE30308
:1011E0009BB21AB27B69B3F846301BB2D2187B6946
:1011F00093F84A30194644F2C853C0F601035B5CC9
:1012000002FA03F39AB27B69A3F848207B694FF096
:101210000002DA867B69B3F85C207B69B3F8523050
:101220009A4238BF13467B817B894FEA53039AB2B7
:101230007B69A3F854207B69B3F854207B691B8F2A
:101240009A4207D27B691B8F4FEA43039AB27B69AC
:10125000A3F854207B691A8F7B69A3F852207B691D
:10126000B3F852301A467B69B3F8543044F2347004
:10127000C0F6010011461A4607F02AF9786910F005
:10128000F9FA7B691B7C062B13D146F2B003C2F23C
:1012900000031A687B691B6BD31A282B09D9FB7BC7
:1012A00003F10103FB7344F25870C0F6010007F02C
:1012B00025F97B691B8903F00803002B00F0868069
:1012C0007B691B7C042B03D07B691B7C072B7DD1A6
:1012D00046F2B003C2F200031A687B691B6BD11A95
:1012E0007B69D3F8943003F5242202F6B84244F621
:1012F000D353C1F26203A3FB02034FEA5313994293
:1013000038D97B695B6818460AF090FD03464FEABE
:1013100013639BB2DEB27B695B6818460AF086FDF8
:1013200003464FEA13439BB2DDB27B695B68184604
:101330000AF07CFD03464FEA13239BB2DCB27B69C3
:101340005B6818460AF072FD03469BB2DBB200935D
:1013500044F28870C0F6010031462A46234607F061
:10136000B7F8FB7B03F10103FB73BB7B03F10103C4
:10137000BB732BE046F2B003C2F200031A687B692C
:101380001B6BD21A7B69D3F894107B6993F89D305C
:10139000184642F2F843C0F2010303FB00F3C918F8
:1013A00044F6D353C1F26203A3FB01034FEA531384
:1013B0009A420BD9786910F05DFB7B6993F89D30F8
:1013C00003F10103DAB27B6983F89D207B691B7C02
:1013D000032B13D146F2B003C2F200031A687B69F3
:1013E0001B6BD31A282B09D9FB7B03F10103FB7379
:1013F00044F2D470C0F6010007F080F87B691B7CD2
:10140000092B13D146F2B003C2F200031A687B69BC
:101410001B6BD31AF02B09D9FB7B03F10103FB7380
:1014200044F60000C0F6010007F068F8FB7B002BD3
:101430003DD0786900F03EFB3B69002B04D07B690E
:10144000DA683B69DA6006E07B69DA6846F2AC0389
:10145000C2F200031A607B69D3F89030002B08D0E9
:101460007B69D3F890307A69526910466FF00401B5
:101470009847BB7B002B0FD07B69986D7B69596ABD
:101480007A697B6903F104037C69258B7C69248C70
:101490000095019410F05CF97B69DB687B604FF08C
:1014A0000200796903F012FA7B687B613AE07B699C
:1014B00093F8343003F10103DAB27B6983F8342006
:1014C0007B6993F834207B6993F835309A4224D3B2
:1014D0007B694FF0000283F8342044F62C00C0F6FC
:1014E000010007F00BF87B69D3F88C30002B0AD091
:1014F0007B69D3F88C307A695269104679699847CC
:1015000003467B7302E04FF000037B7397F90D30C5
:10151000002B02D178690FF051FE7B693B617B693A
:10152000DB687B617B69002B7FF4C4AD4FF0000367
:101530003B6146F2C003C2F200031B687B6135E0E9
:101540004FF00003FB7346F2B003C2F200031A68C7
:101550007B691B6BD31AF02B03D9FB7B03F10103CF
:10156000FB73FB7B002B1CD0786900F0A3FA3B696E
:10157000002B04D07B69DA683B69DA6006E07B699E
:10158000DA6846F2C003C2F200031A607B69DB68C6
:101590007B604FF00200796903F098F97B687B610A
:1015A00004E07B693B617B69DB687B617B69002BC5
:1015B000C6D107F11C07BD46F0BD00BF90B583B092
:1015C00000AF46F2AC03C2F200031B687B6057E039
:1015D0007B68DB6F002B2ED044F65000C0F6010074
:1015E00006F08CFF7B68D3F88430002B0FD07B682B
:1015F000D3F884407B685A697B68DB6F1046796852
:101600001A464FF00003A0470346FB700BE07B68CF
:10161000DB6F4FF0000079681A464FF0000300F0CE
:1016200087F80346FB7097F90330002B03D17B68E2
:101630004FF00002DA677B6893F8223003F0010371
:10164000002B1AD044F67000C0F6010006F056FFD9
:101650007B6893F8223043F00203DAB27B6883F8A8
:10166000222078680FF0AAFD7B6893F8223023F0DF
:101670000303DAB27B6883F822207B68DB687B6037
:101680007B68002BA4D107F10C07BD4690BD00BFBD
:1016900080B584B000AF78604FF00003FB730CE0BE
:1016A0007B681B68BB60786800F010F803461A4638
:1016B000FB7BD318FB73BB687B607B68002BEFD18F
:1016C000FB7B184607F11007BD4680BD80B584B08E
:1016D00000AF78604FF00003FB737B68002B13D0E2
:1016E0007B685B68002B0AD07B685B6818460AF051
:1016F0006FF90346FB737B684FF000025A604FF0AE
:101700000400796803F0E2F8FB7B184607F1100744
:10171000BD4680BD80B483B000AF78600B46FB70DF
:101720007B68FA785A7407F10C07BD4680BC704795
:1017300080B584B000AFF860B9607A60FB707B68F8
:10174000002B09D07B681B89B8681946FFF7D6FBC8
:1017500078680AF03DF908E097F90330002B04D1CE
:10176000B868FFF78BF8034601E04FF000035BB267
:10177000184607F11007BD4680BD00BF80B586B092
:1017800000AF0346FB714FF07F03FB724FF0000385
:10179000FB604FF000033B6146F2AC03C2F2000372
:1017A0001B687B6125E07B695B7CFA799A421DD3DB
:1017B0007B695B7CFA7A9A4218D346F2B003C2F294
:1017C00000031A687B691B6BD21AFB689A420DD31F
:1017D00046F2B003C2F200031A687B691B6BD31A8E
:1017E000FB607B693B617B695B7CFB727B69DB68CF
:1017F0007B617B69002BD6D13B69002B0CD044F672
:101800008C00C0F601003969FA6806F061FE38699B
:101810004FF00101FFF720F907F11807BD4680BD21
:1018200080B584B000AF4FF000037B604FF0000341
:10183000BB6046F2C003C2F200031B68FB6018E005
:1018400046F2B003C2F200031A68FB681B6BD21A9F
:101850007B689A420AD346F2B003C2F200031A68C8
:10186000FB681B6BD31A7B60FB68BB60FB68DB68A3
:10187000FB60FB68002BE3D1BB68002B0CD044F667
:10188000B800C0F60100B9687A6806F021FEB868B1
:101890004FF00101FFF7E0F807F11007BD4680BDEA
:1018A00080B584B000AF0346FB714FF0020002F038
:1018B000D9FFF860FB68002B20D144F6F400C0F695
:1018C000010006F01BFEFFF7ABFF4FF0020002F035
:1018D000C9FFF860FB68002B10D1FB7944F6281093
:1018E000C0F60100194606F0F3FDFB791846FFF734
:1018F00045FF4FF0020002F0B5FFF860FB68002BD7
:101900006ED0F8684FF000014FF0A00210F05AFFBF
:10191000FB684FF040025A74FB6841F2D062A3F8B2
:101920006E20FB684FF00002A3F87020FB6840F6C1
:1019300068321A85FB6840F668325A85FB684FF0BA
:1019400000029A72FB684FF0FF02DA72FB684FF4F4
:1019500006721A87FB684FF00602A3F84820FB685E
:101960004FF00002A3F84420FB684FF00602A3F8F2
:101970004620FB684FF6FF72DA86FB684FF00102E3
:10198000A3F8522000F056F9B860FB68BA685A66AE
:10199000FB68BA689A65FB68BA68DA64FB68BA687B
:1019A0009A6646F2B003C2F200031A68FB681A6333
:1019B000FB684FF0000283F83420FA6841F231737B
:1019C000C0F60003C2F88430FA684FF45D43C0F2F9
:1019D0006D03C2F89430FB684FF0000283F89D203D
:1019E000FB68184607F11007BD4680BD80B500AF03
:1019F0004FF04000FFF754FF0346184680BD00BF7C
:101A000080B483B000AF786039607B683A685A610F
:101A100007F10C07BD4680BC704700BF80B483B09F
:101A200000AF786039607B683A68C3F8842007F1BA
:101A30000C07BD4680BC704780B483B000AF7860AF
:101A400039607B683A68C3F8802007F10C07BD460F
:101A500080BC704780B483B000AF786039607B6829
:101A60003A68C3F8902007F10C07BD4680BC704768
:101A700080B483B000AF786039607B683A68DA611F
:101A800007F10C07BD4680BC704700BF80B485B02D
:101A900000AFF860B9601346FB71FB68BA68C3F821
:101AA0008C20FB68FA7983F8352007F11407BD46CE
:101AB00080BC704780B582B000AF78607B681B7CCB
:101AC000002B46D07B681B7C0A2B42D07B681B7C9A
:101AD000012B3ED044F66010C0F6010006F00EFD6A
:101AE0007B68DB6F002B0ED044F67010C0F601004F
:101AF00006F004FD7B68DB6F184609F069FF7B6820
:101B00004FF00002DA677B685B6F002B05D044F66C
:101B10009C10C0F6010006F0F1FC7B689B6F002B67
:101B200005D044F6C010C0F6010006F0E7FC7B6863
:101B30005B6F1846FFF7ACFD7B689B6F1846FFF79D
:101B4000A7FD7B684FF000025A677B685A6F7B687D
:101B50009A6707F10807BD4680BD00BF80B582B017
:101B600000AF786039607B681A683B689A4205D19B
:101B70007B681B68DA687B681A602BE07B681A68F0
:101B800046F2B803C2F200031A601CE046F2B80342
:101B9000C2F200031B68DA683B689A4208D146F239
:101BA000B803C2F200031B683A68D268DA6011E039
:101BB00046F2B803C2F200031B68DA6846F2B803C3
:101BC000C2F200031A6046F2B803C2F200031B68B7
:101BD000002BDBD13B684FF00002DA603868FFF77A
:101BE00069FF3B681B7C0A2B16D03B681B7C012BD2
:101BF00012D03B6893F8223003F00103002B0BD086
:101C00003B6893F8223043F00203DAB23B6883F872
:101C1000222038680FF0D2FA3B681B7C012B3B680E
:101C20004FF000021A7400F0BDF907F10807BD4635
:101C300080BD00BF80B400AF40F22C03C2F20003AD
:101C40001A6846F2B003C2F200031B68D21840F2D1
:101C50002C03C2F200031A6040F22C03C2F200030C
:101C60001B681846BD4680BC704700BF80B584B075
:101C700000AF03463960FB8038680BF037FCF86032
:101C8000FB68002B0ED0FB681B8D002B0AD0FB6875
:101C90001B8DA3F128037B817A89FB889A4238BF88
:101CA0001346FB80FB88184607F11007BD4680BD30
:101CB0002DE9F04F89B006AF786044F6E810C0F621
:101CC000010006F01BFC44F6F410C0F6010006F01B
:101CD00015FC7B681B889BB218460AF079F803460E
:101CE0001C467B685B889BB218460AF071F8034675
:101CF00044F61820C0F6010021461A4606F0E8FB1B
:101D000044F6F410C0F6010006F0F8FB7B685B684F
:101D100018460AF08BF8034644F65020C0F601003E
:101D2000194606F0D5FB44F6F410C0F6010006F0A3
:101D3000E5FB7B689B6818460AF078F8034644F692
:101D40007820C0F60100194606F0C2FB44F6F410F4
:101D5000C0F6010006F0D2FB7B689B899BB2184657
:101D60000AF036F803464FEA13339BB21E467B68EF
:101D70009B899BB218460AF02BF8034603F03F03F9
:101D80004FEA531303F001057B689B899BB2184609
:101D90000AF01EF8034603F03F034FEA131303F063
:101DA00001047B689B899BB218460AF011F8034630
:101DB00003F03F034FEAD30303F0010B7B689B89D9
:101DC0009BB218460AF004F8034603F03F034FEABB
:101DD000930303F0010A7B689B899BB2184609F0C4
:101DE000F7FF034603F03F034FEA530303F00109F3
:101DF0007B689B899BB2184609F0EAFF034603F013
:101E000001087B68DB899BB2184609F0E1FF0346B5
:101E1000CDF800B0CDF804A0CDF80890CDF80C8036
:101E2000049344F6A020C0F6010031462A4623461A
:101E300006F04EFB7B689B899BB2184609F0C8FFF1
:101E40000346DBB203F03F03DBB2184600F046F86E
:101E500044F6E020C0F6010006F050FB44F6F41012
:101E6000C0F6010006F04AFB7B681B8A9BB218464D
:101E700009F0AEFF03461C467B685B8A9BB218469E
:101E800009F0A6FF034644F6E820C0F6010021460B
:101E90001A4606F01DFB44F6F410C0F6010006F0E9
:101EA0002DFB07F10C07BD46BDE8F08F80B582B071
:101EB00000AF0346FB71FA7940F20003C2F200035F
:101EC00053F8223044F61C30C0F60100194606F0E3
:101ED000FFFA07F10807BD4680BD00BF80B582B09C
:101EE00000AF0346FB71FB7903F00103002B05D023
:101EF00044F62830C0F6010006F0EAFAFB7903F058
:101F00000203002B05D044F63030C0F6010006F085
:101F1000DFFAFB7903F00403002B05D044F63830D8
:101F2000C0F6010006F0D4FAFB7903F00803002B99
:101F300005D044F64030C0F6010006F0C9FAFB793E
:101F400003F01003002B05D044F64830C0F6010022
:101F500006F0BEFAFB7903F02003002B05D044F60F
:101F60005030C0F6010006F0B3FAFB7903F04003ED
:101F7000002B05D044F65830C0F6010006F0A8FA50
:101F8000FB795BB2002B05DA44F66030C0F6010045
:101F900006F09EFA4FF00A0010F0AAFC07F10807BD
:101FA000BD4680BD80B483B000AF46F2AC03C2F240
:101FB00000031B687B6002E07B68DB687B607B68FA
:101FC000002BF9D146F2C003C2F200031B687B600C
:101FD00002E07B68DB687B607B68002BF9D14FF007
:101FE00001031BB2184607F10C07BD4680BC7047C1
:101FF000B0B588B002AF786039607B685A6843F248
:102000002C13C2F200031A607B685C6843F22C1345
:10201000C2F200031B681B889BB2184609F0D8FE69
:1020200003464FEA13239BB203F00F034FEA8303E7
:10203000E21843F22813C2F200031A6043F2281395
:10204000C2F200031B681846FFF732FE43F22C135E
:10205000C2F200031B681B889BB2184609F0B8FE49
:1020600003464FEA13239BB203F00F039BB24FEAE0
:1020700083039BB2C3F100039BB29BB21BB278688F
:10208000194609F015FC0346002B03D17B681B8918
:10209000132B0CD87B681B8944F6E030C0F6010096
:1020A000194606F015FA786809F092FCBAE343F293
:1020B0002C13C2F200031B6803F1100318463968A1
:1020C00004F0A0FD0346002B12D143F22C13C2F200
:1020D00000031B681C694FF0704009F0A7FE03461F
:1020E0001C404FF0604009F0A1FE03469C4203D122
:1020F000786809F06DFC95E343F22813C2F20003FF
:102100001B689B899BB2184609F062FE03464FEAA2
:1021100013339BB2BB72BB7A9BB21A464FEA823230
:10212000D31A4FEA83039BB29BB21BB2786819465D
:1021300009F0BEFB0346002B09D044F61040C0F660
:10214000010006F0DBF9786809F042FC6AE343F22B
:102150002813C2F200031C6843F22813C2F20003E2
:102160001B681B889BB2184609F032FE0346238089
:1021700043F22813C2F200031C6843F22813C2F290
:1021800000031B685B889BB2184609F021FE0346DA
:10219000638043F22813C2F200031C6843F2281341
:1021A000C2F200031B685B68184609F03FFE034655
:1021B0006360626843F23013C2F200031A6043F2B4
:1021C0002813C2F200031C6843F22813C2F2000372
:1021D0001B689B68184609F029FE0346A360A268A5
:1021E00043F23413C2F200031A6043F22813C2F21E
:1021F00000031C6843F22813C2F200031B68DB894A
:102200009BB2184609F0E4FD0346E38143F228132C
:10221000C2F200031B689B899BB2184609F0D8FDE7
:102220000346DBB203F03F03DAB243F23813C2F2E3
:1022300000031A707B681A8943F23813C2F2000354
:102240001B7803F00303002B0CBF00230123DBB238
:10225000D3189AB243F23A13C2F200031A804FF035
:1022600000033B6146F2AC03C2F200031B687B61D2
:1022700043E07B691A8C43F22813C2F200031B6807
:102280001B889BB29A4233D17B691A8B43F2281385
:10229000C2F200031B685B889BB29A4228D17B691B
:1022A0005A6843F22C13C2F200031B68DB689A429F
:1022B0001ED17B691A6843F22C13C2F200031B681B
:1022C0001B699A4214D13B69002B1AD07B69DA68EA
:1022D0003B69DA6046F2AC03C2F200031A687B691C
:1022E000DA6046F2AC03C2F200037A691A6008E0D1
:1022F0007B693B617B69DB687B617B69002BB8D1C3
:1023000000E000BF7B69002B40F0938046F2C003E1
:10231000C2F200031B687B6139E07B691A8C43F2CF
:102320002813C2F200031B681B889BB29A422BD170
:102330007B691A8B43F22813C2F200031B685B8887
:102340009BB29A4220D17B695A6843F22C13C2F2A5
:1023500000031B68DB689A4216D17B691A6843F256
:102360002C13C2F200031B681B699A420CD144F67D
:102370002840C0F6010006F0C1F8786900F086FB3D
:10238000786809F025FB4DE27B69DB687B617B693E
:10239000002BC2D14FF000033B6146F2B403C2F2FE
:1023A00000031B68FB6041E0FB68002B0DD0FB685D
:1023B0001B68002B09D0FB681A6843F22C13C2F289
:1023C00000031B681B699A422BD1FB681A8B43F2EE
:1023D0002813C2F200031B685B889BB29A4220D18B
:1023E0003B69002B10D0FB68DA683B69DA6046F283
:1023F000B403C2F200031A68FB68DA6046F2B40361
:10240000C2F20003FA681A6044F65840C0F60100B0
:1024100006F074F8F86800F009FA786809F0D8FA5C
:1024200000E2FB683B61FB68DB68FB60FB68002B3C
:10243000BAD144F68440C0F6010006F049F843F2F0
:102440002813C2F200031B689B899BB2184609F04F
:10245000BFFC0346DBB203F03F03DBB21846FFF7D5
:102460003DFD44F6B440C0F6010006F047F87B6934
:10247000002B00F08B817B691B7C1846FFF716FD53
:1024800043F21413C2F200034FF000021A607B689B
:102490001A8943F21413C2F200039A817B685A68C6
:1024A00043F21413C2F200039A6043F21413C2F20F
:1024B00000037A685A6043F22813C2F200031A68D4
:1024C00043F21413C2F200031A6143F24013C2F242
:1024D00000034FF000021A6043F23C13C2F2000303
:1024E0004FF000021A707B69DB6F002B39D044F685
:1024F000D440C0F6010006F001F87B69D3F88430BF
:10250000002B0FD07B69D3F884407B695A697B69C3
:10251000DB6F104679691A464FF00003A047034667
:10252000FB720BE07B69DB6F4FF0000079691A46A4
:102530004FF00003FFF7FCF80346FB7297F90B30EE
:10254000002B04D17B694FF00002DA6709E044F602
:10255000F440C0F6010005F0D1FF786809F038FAC0
:1025600060E146F2C403C2F200037A691A60786936
:1025700000F01EFB0346FB7297F90B3013F1050FB9
:1025800000F0E68043F23C13C2F200031B7803F034
:102590000803002B1AD07B69D3F89030002B08D0A9
:1025A0007B69D3F890307A69526910466FF0050163
:1025B000984746F2AC00C2F200007969FFF7CEFA04
:1025C0004FF00200796902F081F9C1E043F23C1357
:1025D000C2F200031B7803F01003002B0CD046F26C
:1025E000AC00C2F200007969FFF7B8FA4FF00200C0
:1025F000796902F06BF9ABE04FF00003FB727B6985
:10260000B3F86C30002B15D07B69D3F88030002BE9
:102610000DD07B69D3F880307A6951697A69B2F854
:102620006C200846796998470346FB7202E04FF038
:102630000003FB7243F24013C2F200031B68002B3D
:102640004FD043F23813C2F200031B7803F00803A3
:10265000002B0ED043F24013C2F200031A6843F27B
:102660004013C2F200031B685B7B43F00103DBB243
:1026700053737B69D3F88430002B12D07B69D3F875
:1026800084407B695A6943F24013C2F200031B681D
:10269000104679691A464FF00003A0470346FB72C3
:1026A0000EE043F24013C2F200031B684FF000003B
:1026B00079691A464FF00003FFF73AF80346FB72B8
:1026C00097F90B30002B0CD043F24013C2F20003F9
:1026D0001A687B69DA6744F62C50C0F6010005F0F1
:1026E0000DFF43F23C13C2F200031B7803F02003FA
:1026F000002B1ED07B69D3F88430002B0ED07B6971
:10270000D3F884407B695B69184679694FF0000211
:102710004FF00003A0470346FB720AE04FF00000B1
:1027200079694FF000024FF00003FFF701F803460C
:10273000FB7246F2C403C2F200034FF000021A60BB
:1027400078690EF03BFD7B691B7C1846FFF7AEFBFA
:1027500046F2C403C2F200034FF000021A6043F2D3
:102760001413C2F200035B68002B59D043F2141318
:10277000C2F200035B68184609F02AF943F2141309
:10278000C2F200034FF000025A6049E044F6645080
:10279000C0F6010005F0B2FE43F22813C2F20003B6
:1027A0001B689B899BB2184609F012FB034603F095
:1027B0000403002B31D143F23413C2F20003186832
:1027C00043F23A13C2F200031B881A4643F2301355
:1027D000C2F200031B68D11843F22C13C2F20003AB
:1027E0001B6803F1100243F22C13C2F200031B68B2
:1027F00003F10C0443F22813C2F200031B685B8848
:102800009DB243F22813C2F200031B681B889BB2DF
:102810000095019323460EF09BFF786809F0D8F8E5
:10282000FFF7C0FB07F11807BD46B0BDB0B586B0D5
:1028300002AF786043F23813C2F200031B7803F052
:102840001003002B3AD044F69050C0F6010005F07A
:1028500055FE43F23413C2F200031B6803F101007A
:1028600043F23A13C2F200031B881A4643F23013B4
:10287000C2F200031B68D11843F22C13C2F200030A
:102880001B6803F1100243F22C13C2F200031B6811
:1028900003F10C0443F22813C2F200031B685B88A7
:1028A0009DB243F22813C2F200031B681B889BB23F
:1028B0000095019323460EF04BFFDFE043F23813FF
:1028C000C2F200031B7803F00203002B00F0D68055
:1028D00043F22813C2F200031B681B889BB21A46FE
:1028E00043F22813C2F200031B685B889BB244F6D4
:1028F000C050C0F6010011461A4605F0E9FD7B689C
:102900005B7C1846FEF7CCFFF860FB68002B08D113
:1029100044F6E450C0F6010005F0F0FD4FF0FF036F
:10292000AEE043F22C13C2F200031B6803F1100364
:10293000002B06D043F22C13C2F200031B681B6964
:1029400001E04FF00003FA6813607B681A8BFB68A4
:102950001A8343F22C13C2F200031B6803F10C0329
:10296000002B06D043F22C13C2F200031B68DB6875
:1029700001E04FF00003FA68536043F22813C2F2FB
:1029800000031B681B889AB2FB681A84FB684FF02F
:1029900003021A7443F23013C2F200031B6803F1FE
:1029A0000102FB685A62FB685A6AFB68DA6243F20A
:1029B0002813C2F200031B68DB899AB2FB68A3F8F4
:1029C0005C20FB68B3F85C20FB68A3F8542043F25A
:1029D0003013C2F200031B6803F1FF32FB681A6672
:1029E0007B685A69FB685A617B68DA69FB68DA615F
:1029F0007B681A8940F2991313409AB2FB681A81D6
:102A000046F2AC03C2F200031A68FB68DA6046F2D1
:102A1000AC03C2F20003FA681A60F86801F08CFC9B
:102A2000FB681A8FFB6803F1040310461946FFF791
:102A30001DF903461A46FB681A874FF000030093FE
:102A40004FF001030193F8684FF000014FF00002CE
:102A50004FF012030DF0BAFF0346FB7297F90B30EB
:102A6000002B06D0F8684FF00001FDF7F5FFFB7A68
:102A700006E0F8680EF0A2FB034601E04FF0000309
:102A80005BB2184607F11007BD46B0BDB0B584B0C3
:102A900002AF786043F23813C2F200031B7803F0F0
:102AA0000403002B02D04FF000037BE043F2381305
:102AB000C2F200031B7803F00203002B4BD043F259
:102AC0003013C2F200031A687B685B6AD31A002BCA
:102AD00051DB43F23013C2F200031A687B68596A73
:102AE0007B681B8DCB18D31A002B44DC43F23413C4
:102AF000C2F20003186843F23A13C2F200031B88C3
:102B00001A4643F23013C2F200031B68D11843F295
:102B10002C13C2F200031B6803F1100243F22C13C2
:102B2000C2F200031B6803F10C0443F22813C2F243
:102B300000031B685B889DB243F22813C2F20003B6
:102B40001B681B889BB20095019323460EF000FE84
:102B50004FF0000326E043F23813C2F200031B7863
:102B600003F00103002B06D046F2B003C2F20003CB
:102B70001A687B681A6343F23A13C2F200031B8897
:102B8000002B0DD07B6893F8223043F00203DAB2B9
:102B90007B6883F8222078680EF010FB034601E082
:102BA0004FF000035BB2184607F10807BD46B0BD01
:102BB000B0B588B002AF78604FF00003FB754FF0FE
:102BC0000003BB7543F23813C2F200031B7803F015
:102BD0000403002B6FD07B681B7C022B0CD17B681D
:102BE0009A6D43F23413C2F200031B689A421DD15E
:102BF0004FF00103FB7519E043F23013C2F20003FA
:102C00001A687B685B6AD31A002B0FDB43F2301320
:102C1000C2F200031A687B68596A7B681B8DCB1867
:102C2000D31A002B02DC4FF00103FB75FB7D002B58
:102C30001FD044F61060C0F6010005F05FFC43F2BF
:102C40003C13C2F200031B7843F00803DAB243F2EC
:102C50003C13C2F200031A707B6893F8223023F011
:102C60000103DAB27B6883F822204FF0FA0300F008
:102C7000C4BC43F23013C2F200031A687B685B6A7B
:102C800044F63060C0F6010011461A4605F020FCFB
:102C900043F23013C2F200031A687B685B6A44F6A1
:102CA0003060C0F6010011461A4605F011FC4FF0E5
:102CB000000300F0A2BC43F23813C2F200031B78F9
:102CC00003F00203002B17D07B681B7C022B13D070
:102CD0007B681B7C032B0FD07B6893F8223043F07A
:102CE0000203DAB27B6883F8222078680EF066FA75
:102CF0004FF0000300F081BC46F2B003C2F20003C3
:102D00001A687B681A637B684FF0000283F89D2085
:102D1000786801F011FB7B681B7CA3F10203072B91
:102D200000F25A8401A252F823F000BF4D2D000892
:102D30009D2F00086B310008A731000839330008C7
:102D40006B310008513400086535000843F2341334
:102D5000C2F200031D687B689C6D7B689B6F1B69DA
:102D60005B68184609F062F8034644F66860C0F6EE
:102D700001002946224605F0ABFB43F23813C2F2AC
:102D800000031B7803F01003002B00F0CA8043F20D
:102D90003813C2F200031B7803F00203002B00F08B
:102DA000C0807B689B6F1B695B68184609F03EF822
:102DB000034603F1010243F23413C2F200031B681D
:102DC0009A4240F0AE807B68B3F86E3003F10103A5
:102DD0009AB27B68A3F86E2043F23013C2F200036C
:102DE0001B6803F101027B685A627B685A6A7B6840
:102DF000DA6243F23413C2F200031A687B68DA64C1
:102E000043F22813C2F200031B68DB899AB27B6885
:102E1000A3F85C2043F23013C2F200031B6803F1F5
:102E2000FF327B681A667B684FF004021A747B6875
:102E30001A8F7B6803F1040310461946FEF716FF4C
:102E400003461A467B681A877B681B8F1A464FEA2F
:102E50008202D3184FEA43039AB27B68A3F8542046
:102E60007B68B3F85230012B05D17B681B8F4FEA8A
:102E700043039BB201E07B681B8F7A68A2F8523053
:102E80007B68B3F8703003F1FF339AB27B68A3F824
:102E900070207B68B3F8703044F69860C0F601008B
:102EA000194605F015FB7B689B6F3B613B691A680F
:102EB0007B689A677B689B6F002B04D17B684FF619
:102EC000FF72DA8608E07B684FF00002DA867B68E2
:102ED0004FF0000283F84A203869FEF7F7FB7B6861
:102EE000D3F88830002B0CD07B68D3F888307A6810
:102EF0005269104679684FF0000298470346BB7547
:102F000002E04FF00003BB757B6893F8223043F07A
:102F10000203DAB27B6883F8222078680EF04EF95B
:102F20005CE343F23813C2F200031B7803F0100392
:102F3000002B00F0538343F23413C2F200031868ED
:102F400043F23A13C2F200031B881A4643F23013CD
:102F5000C2F200031B68D11843F22C13C2F2000323
:102F60001B6803F1100243F22C13C2F200031B682A
:102F700003F10C0443F22813C2F200031B685B88C0
:102F80009DB243F22813C2F200031B681B889BB258
:102F90000095019323460EF0DBFB1FE343F2381349
:102FA000C2F200031B7803F01003002B00F0C38073
:102FB0007B68DB6C6FEA030243F23413C2F2000356
:102FC0001B68D318002BC0F2818043F23413C2F285
:102FD00000031A687B689B6DD31A002B76DC7B6834
:102FE0004FF004021A7443F21413C2F200031B6977
:102FF0001B889BB21A4643F21413C2F200031B69EA
:103000005B889BB244F6C060C0F6010011461A46C8
:1030100005F05EFA7B68DB69002B0BD07B68DB690F
:103020007A685269104679684FF000029847034663
:10303000BB7502E04FF00003BB7597F91630002B0B
:1030400007D078684FF00101FDF706FD4FF0FB0354
:10305000D3E27B68B3F85230FB81786800F0D4FA91
:103060007B68B3F86C30002B08D07B68B3F86C3009
:1030700003F1FF339AB27B68A3F86C20FB89012B24
:1030800005D17B681B8F4FEA43039BB201E07B684D
:103090001B8F7A68A2F8523043F23C13C2F200034D
:1030A0001B7803F02003002B43D07B6893F8223079
:1030B00043F00203DAB27B6883F8222078680EF0CE
:1030C0007DF87B684FF007021A7432E043F2341344
:1030D000C2F20003186843F23A13C2F200031B88DD
:1030E0001A4643F23013C2F200031B68D11843F2B0
:1030F0002C13C2F200031B6803F1100243F22C13DD
:10310000C2F200031B6803F10C0443F22813C2F25D
:1031100000031B685B889DB243F22813C2F20003D0
:103120001B681B889BB20095019323460EF010FB91
:1031300056E200BF54E243F23813C2F200031B7898
:1031400003F00203002B00F04B827B685B6A03F103
:10315000FF3243F23013C2F200031B689A4240F080
:103160003F8278680EF0BCFB3AE2786800F04CFAD7
:1031700043F23C13C2F200031B7803F02003002B40
:1031800000F030827B6893F8223043F00203DAB219
:103190007B6883F8222078680EF010F87B684FF087
:1031A00007021A741EE2786800F02EFA43F23C130C
:1031B000C2F200031B7803F02003002B00F0A38071
:1031C00043F23813C2F200031B7803F01003002B04
:1031D00000F088807B689A6D43F23413C2F20003DA
:1031E0001B689A427ED143F21413C2F200031B699A
:1031F0001B889BB21A4643F21413C2F200031B69E8
:103200005B889BB244F6E860C0F6010011461A469E
:1032100005F05EF97B6893F8223043F00203DAB2DE
:103220007B6883F8222078680DF0C8FF7868FEF785
:1032300041FC46F2AC03C2F200031A687B689A4272
:103240000BD146F2AC03C2F200031B68DA6846F207
:10325000AC03C2F200031A602EE046F2AC03C2F2E5
:1032600000031A6846F2B803C2F200031A601CE0B9
:1032700046F2B803C2F200031B68DA687B689A4220
:1032800008D146F2B803C2F200031B687A68D2681C
:10329000DA6011E046F2B803C2F200031B68DA6894
:1032A00046F2B803C2F200031A6046F2B803C2F253
:1032B00000031B68002BDBD17B684FF00002DA6053
:1032C0007B684FF00A021A7446F2C003C2F2000390
:1032D0001A687B68DA6046F2C003C2F200037A68BB
:1032E0001A6081E17B6893F8223043F00203DAB27E
:1032F0007B6883F8222078680DF060FF7B684FF0D0
:1033000008021A7470E143F23813C2F200031B780A
:1033100003F01003002B00F067817B689A6D43F285
:103320003413C2F200031B689A4240F05D817B684F
:103330004FF006021A7457E1786800F065F943F21D
:103340003C13C2F200031B7803F02003002B00F0B3
:103350004D8143F21413C2F200031B691B889BB218
:103360001A4643F21413C2F200031B695B889BB236
:1033700044F61870C0F6010011461A4605F0A8F888
:103380007B6893F8223043F00203DAB27B6883F85B
:10339000222078680DF012FF7868FEF78BFB46F26A
:1033A000AC03C2F200031A687B689A420BD146F262
:1033B000AC03C2F200031B68DA6846F2AC03C2F247
:1033C00000031A602EE046F2AC03C2F200031A6852
:1033D00046F2B803C2F200031A601CE046F2B803DA
:1033E000C2F200031B68DA687B689A4208D146F291
:1033F000B803C2F200031B687A68D268DA6011E091
:1034000046F2B803C2F200031B68DA6846F2B8035A
:10341000C2F200031A6046F2B803C2F200031B684E
:10342000002BDBD17B684FF00002DA607B684FF045
:103430000A021A7446F2C003C2F200031A687B68DB
:10344000DA6046F2C003C2F200037A681A60CDE087
:10345000786800F0D9F843F23813C2F200031B7801
:1034600003F01003002B00F0C3807B689A6D43F2D9
:103470003413C2F200031B689A4240F0B98043F251
:103480001413C2F200031B691B889BB21A4643F255
:103490001413C2F200031B695B889BB244F64870A8
:1034A000C0F6010011461A4605F012F87868FEF7DA
:1034B00001FB46F2AC03C2F200031A687B689A4231
:1034C0000BD146F2AC03C2F200031B68DA6846F285
:1034D000AC03C2F200031A602EE046F2AC03C2F263
:1034E00000031A6846F2B803C2F200031A601CE037
:1034F00046F2B803C2F200031B68DA687B689A429E
:1035000008D146F2B803C2F200031B687A68D26899
:10351000DA6011E046F2B803C2F200031B68DA6811
:1035200046F2B803C2F200031A6046F2B803C2F2D0
:1035300000031B68002BDBD17B684FF00002DA60D0
:103540007B684FF00A021A7446F2C003C2F200030D
:103550001A687B68DA6046F2C003C2F200037A6838
:103560001A6045E0786800F04FF843F23813C2F271
:1035700000031B7803F01003002B3BD07B689A6D8F
:1035800043F23413C2F200031B689A4232D143F271
:103590001413C2F200031B691B889BB21A4643F244
:1035A0001413C2F200031B695B889BB244F674706B
:1035B000C0F6010011461A4604F08AFF43F23C139C
:1035C000C2F200031B7843F01003DAB243F23C135B
:1035D000C2F200031A700DE000BF0CE000BF0AE069
:1035E00000BF08E000BF06E000BF04E000BF02E04B
:1035F00000BF00E000BF4FF000035BB2184607F1C8
:103600001807BD46B0BD00BF2DE9F0418CB002AF38
:1036100078604FF00003BB6143F23813C2F200033D
:103620001B7803F01003002B00F01A847B68B3F8BA
:103630005C301A467B685B6ED3187B617B681A6EC0
:1036400043F23013C2F200031B68D31A002B27DBAE
:103650007B681A6E43F23013C2F200031B689A4271
:1036600009D17B685A6E43F23413C2F200031B681F
:10367000D31A002B14DB7B685A6E43F23413C2F268
:1036800000031B689A423DD143F22813C2F20003A3
:103690001B68DB899AB27B68B3F85C309A4231D9F7
:1036A00043F22813C2F200031B68DB899AB27B68DD
:1036B000A3F85C2043F23013C2F200031A687B685F
:1036C0001A6643F23413C2F200031A687B685A6622
:1036D0007B68B3F85C30002B09D07B6893F89C3092
:1036E000002B04D07B684FF0000283F89C207B689D
:1036F000B3F85C3044F6A470C0F60100194604F03B
:10370000E7FE24E07B68B3F85C2043F22813C2F2A2
:1037100000031B68DB899BB29A4218D07B68D96C86
:1037200043F23413C2F200031A687B681C6E43F242
:103730003013C2F2000318687B685B6E009001933F
:1037400044F6C470C0F60100234604F0C1FE43F203
:103750003413C2F200031A687B68DB6CD31A002BA7
:1037600066DC7B684FF00002A3F86C2043F23A134A
:10377000C2F200031B88002B50D17B685A6E7B6815
:10378000B3F85C30D2187B699A4247D17B68DB8EF4
:103790001BB2002B42DB7B68DA6C43F23413C2F2BB
:1037A00000031B689A4239D14FF00103BB617B686B
:1037B00093F8503003F101027B6893F850309A423D
:1037C00008DD7B6893F8503003F10103DAB27B68BF
:1037D00083F850207B6893F85030032B16D97B6810
:1037E000B3F852207B681B8FD3189AB27B68B3F86A
:1037F00052309A4212D97B68B3F852207B681B8FF3
:10380000D3189AB27B68A3F8522007E07B6893F83C
:103810005030032B02D178680EF0AAF8BB69002B58
:1038200040F04D827B684FF0000283F8502046E262
:103830007B68DB6C6FEA030243F23413C2F20003CD
:103840001B68D318002BC0F2B18143F23413C2F2CB
:1038500000031A687B689B6DD31A002B00F3A681C6
:103860007B6893F8223003F00403002B0ED07B68B2
:1038700093F8223023F00403DAB27B6883F8222025
:103880007B68B3F854207B68A3F852207B684FF024
:10389000000283F84A207B68B3F844301BB24FEA39
:1038A000E3039BB29AB27B68B3F846309BB2D3185D
:1038B0009BB29AB27B68A3F8482043F23413C2F259
:1038C00000031B689AB27B68DB6C9BB2D31A9AB276
:1038D0007B68A3F86C207B68B3F86E207B68B3F834
:1038E0006C30D3189AB27B68A3F86E207B684FF0D7
:1038F000000283F8502043F23413C2F200031A6826
:103900007B68DA647B681B7C032B4DD97B68B3F83A
:1039100052207B68B3F854309A4220D27B68B3F8C7
:1039200052207B681B8FD3189AB27B68B3F8523051
:103930009A4209D97B68B3F852207B681B8FD31851
:103940009AB27B68A3F852207B68B3F8523045F2F4
:103950001000C0F60100194604F0BAFD24E07B68AF
:10396000B3F852207B681B8F7968098F01FB03F144
:103970007B68B3F8523091FBF3F39BB2D3187B8290
:103980007B68B3F852307A8A9A4203D97B687A8A84
:10399000A3F852207B68B3F8523045F23400C0F6E9
:1039A0000100194604F094FD43F23413C2F20003FF
:1039B0001D687B689B6F002B08D07B689B6F1B6921
:1039C0005B68184608F032FA044601E04FF0000444
:1039D0007B689B6F002B1ED07B689B6F1B695B68AD
:1039E000184608F023FA06467B689B6F9B89984629
:1039F0007B689B6F1B699B899BB2184608F0E8F9AE
:103A0000034603F00303002B0CBF00230123DBB2AA
:103A10004344F31801E04FF0000345F26000C0F6A4
:103A200001002946224604F053FD81E07B689B6F2C
:103A30001B695B68184608F0F9F904467B689B6FC0
:103A40001B695B68184608F0F1F905467B689B6FB7
:103A50009B891E467B689B6F1B699B899BB218469E
:103A600008F0B6F9034603F00303002B0CBF002354
:103A70000123DBB2F318EB1845F29000C0F6010009
:103A800021461A4604F024FD7B689B6FFB607B682F
:103A90009B6F1A687B689A677B68B3F8703045F251
:103AA000C000C0F60100194604F012FDFB685B6817
:103AB000184608F001F87B68B3F86C30002B14D07E
:103AC000FB681B699B899BB2184608F081F9034685
:103AD00003F00103002B08D07B68B3F86C3003F1CE
:103AE000FF339AB27B68A3F86C207B68B3F8704010
:103AF000FB685B68184607F0DFFF0346E31A9AB2DB
:103B00007B68A3F87020F868FDF7E0FD7B68B3F8E8
:103B1000703045F2E000C0F60100194604F0D8FC10
:103B20007B68B3F87030002B02D07B689B6F002B52
:103B30007B689B6F002B26D07B689B6F1B695B6843
:103B4000184608F073F904467B689B6F9B891D46F5
:103B50007B689B6F1B699B899BB2184608F038F9FC
:103B6000034603F00303002B0CBF00230123DBB249
:103B7000EB18E21843F23413C2F200031B68D31AA5
:103B8000002B7FF753AF7B689B6F002B04D17B68C2
:103B90004FF6FF72DA8603E07B684FF00002DA86A8
:103BA0007B684FF0000283F8342088E07B684FF098
:103BB0000002A3F86C2082E07B685B6F1B695B6886
:103BC000184608F033F904467B685B6F1B695B6835
:103BD000184608F02BF905467B685B6F9B891E46EB
:103BE0007B685B6F1B699B899BB2184608F0F0F8F5
:103BF000034603F00303002B0CBF00230123DBB2B9
:103C0000F318EB1845F20010C0F6010021461A46E1
:103C100004F05EFC7B685B6FFB607B685B6F1A681F
:103C20007B685A677B68B3F8703045F2C000C0F615
:103C30000100194604F04CFCFB685B68184607F06D
:103C40003BFF7B68B3F86C30002B14D0FB681B691A
:103C50009B899BB2184608F0BBF8034603F00103AA
:103C6000002B08D07B68B3F86C3003F1FF339AB2B5
:103C70007B68A3F86C207B68B3F87040FB685B68D6
:103C8000184607F019FF0346E31A9AB27B68A3F8B7
:103C90007020F868FDF71AFD7B68B3F8703045F2C4
:103CA0003010C0F60100194604F012FC7B68B3F82E
:103CB0007030002B04D07B689B6F002B00E000BFAE
:103CC0007B685B6F002B30D043F23413C2F20003E9
:103CD0001C687B685B6F1B695B68184608F0A6F878
:103CE00005467B685B6F9B891E467B685B6F1B6923
:103CF0009B899BB2184608F06BF8034603F0030358
:103D0000002B0CBF00230123DBB2F318EB18E31ADE
:103D1000002B0ADB43F23413C2F200031A687B68FB
:103D20009B6DD31A002B7FF747AF7B68D96B7B68FD
:103D30001A6C43F23413C2F200031B6845F24C10B4
:103D4000C0F6010004F0C4FB7B68DB6B002B00F0C5
:103D500087807B681A6C43F23413C2F200031B683D
:103D6000D31A002B7CDA46F2B003C2F200031B68C0
:103D70009AB27B68DB6B9BB2D31A9BB2FB83B7F919
:103D80001E20B7F91E304FF4FA7101FB03F345F220
:103D90007C10C0F6010011461A4604F099FBFA8B1C
:103DA0007B68B3F844301BB24FEAE3039BB29BB28B
:103DB000D31A9BB2FB837B68B3F844309AB2FB8B77
:103DC000D3189BB29AB27B68A3F84420B7F91E308F
:103DD000002B04DAFB8BC3F100039BB2FB83FA8B4D
:103DE0007B68B3F846301BB24FEAA3039BB29BB289
:103DF000D31A9BB2FB837B68B3F846309AB2FB8B35
:103E0000D3189BB29AB27B68A3F846207B68B3F8BC
:103E100044301BB24FEAE3039BB29AB27B68B3F81B
:103E200046309BB2D3189BB29AB27B68A3F8482065
:103E30007B68B3F848301AB27B68B3F848301BB2DD
:103E40004FF4FA7101FB03F345F2B010C0F6010024
:103E500011461A4604F03CFB7B684FF00002DA631F
:103E600043F23A13C2F200031B88002B00F03982A0
:103E70007B685A6A43F23013C2F200031B686FEA90
:103E80000303D318002BC0F29A807B685A6A43F26E
:103E90003A13C2F200031B88194643F23013C2F2F0
:103EA00000031B68CB18D31A03F10103002B00F3A6
:103EB00086807B685A6A43F23013C2F200031B68A3
:103EC000D31A3B6243F21413C2F200035B687B62B5
:103ED00043F21413C2F200035B685B891A463B6A23
:103EE0009A422BDA43F21413C2F200035B681A8978
:103EF0003B6A9BB2D31A7B810EE07B6A5B893A6A8C
:103F0000D31A3B627B6A7A891A817B6A4FF000027E
:103F10005A817B6A1B687B627B6A5B891A463B6AB3
:103F20009A42EADB3B6A9BB2C3F100039BB29BB2AD
:103F30001BB2786A194607F0BBFC0FE043F214137A
:103F4000C2F200035A683B6A9BB2C3F100039BB202
:103F50009BB21BB21046194607F0AAFC7B6A5A684E
:103F600043F21413C2F200039A6043F21413C2F234
:103F700000039A8943F23013C2F200031B6899B21E
:103F80007B685B6A9BB2CB1A9BB2D3189AB243F29E
:103F90001413C2F200039A8143F21413C2F2000315
:103FA0001A697B68596A43F23013C2F20003196040
:103FB00043F23013C2F200031B68536021E043F266
:103FC0003013C2F200031A687B685B6AD31A002BB5
:103FD00017DA43F23013C2F200031B6845F2DC101B
:103FE000C0F60100194604F073FA7B6893F822309A
:103FF00043F00203DAB27B6883F8222078680DF080
:10400000DDF843F23013C2F200031A687B685B6A82
:10401000D31A002BC0F2618143F23013C2F20003C5
:104020001A687B68596A7B681B8DCB18D31A03F119
:104030000103002B00F351817B685A6A43F230136D
:10404000C2F200031B689A4240F0428143F214130B
:10405000C2F200039C8943F21413C2F200031B69ED
:104060009B899BB2184607F0B3FE034603F0030397
:10407000002B0CBF00230123DBB2E3189AB243F2FA
:104080003A13C2F200031A807B681A8D43F23A1386
:10409000C2F200031B889A4280F09C8043F23013E6
:1040A000C2F20003196843F23A13C2F200031B88FC
:1040B0001A467B68586A7B681B8DC31845F200203E
:1040C000C0F6010004F004FA43F21413C2F2000334
:1040D0001B699B899BB2184607F07AFE034603F0E2
:1040E0000103002B27D043F21413C2F200031C6912
:1040F00043F21413C2F200031B699B899DB24FF671
:10410000C07007F04DFE03462B409DB243F21413DE
:10411000C2F200031B699B899BB2184607F058FE48
:10412000034603F03E039BB2184607F039FE0346F0
:104130002B439BB2A3817B681A8D43F21413C2F206
:1041400000039A8143F21413C2F200031B699B8996
:104150009BB2184607F03CFE034603F00203002B17
:104160000CD043F21413C2F200039B8903F1FF3316
:104170009AB243F21413C2F200039A8143F2141369
:10418000C2F200035A6843F21413C2F200039B897F
:104190001046194607F026FB43F21413C2F200033F
:1041A0009C8943F21413C2F200031B699B899BB2E2
:1041B000184607F00DFE034603F00303002B0CBF67
:1041C00000230123DBB2E3189AB243F23A13C2F29E
:1041D00000031A8043F23A13C2F200031B881A4606
:1041E00043F23013C2F200031B68D2187B685A6294
:1041F0007B681A8D43F23A13C2F200031B88D31A6C
:104200009AB27B681A857868FCF734FE43F214137F
:10421000C2F200035B681B89002B10D043F2141319
:10422000C2F200035A6843F24013C2F200031A605C
:1042300043F21413C2F200034FF000025A6043F23B
:104240001413C2F200031B699B899BB2184607F046
:10425000BFFD034603F00103002B12D045F24C20B2
:10426000C0F6010004F04AF943F23C13C2F2000325
:104270001B7843F02003DAB243F23C13C2F200038E
:104280001A707B6893F8223003F00103002B15D0DD
:104290007B6893F8223023F00103DAB27B6883F85D
:1042A00022207B6893F8223043F00203DAB27B6865
:1042B00083F8222078680CF081FF37E07B6893F860
:1042C000223043F00103DAB27B6883F822202DE02C
:1042D00078680CF019FF00BF28E078680CF014FF34
:1042E00024E043F23013C2F200031A687B685B6A71
:1042F000D31A002B0EDB43F23013C2F200031A680C
:104300007B68596A7B681B8DCB18D31A03F10103B4
:10431000002B0BDD7B6893F8223043F00203DAB206
:104320007B6883F8222078680CF048FF07F12807A3
:10433000BD46BDE8F08100BF80B586B000AF7860B3
:1043400043F22813C2F200031B6803F114033B611C
:1043500043F22813C2F200031B689B899BB21846E4
:1043600007F036FD03464FEA13339BB2052B40F2AC
:104370009A8043F22813C2F200031B689B899BB208
:10438000184607F025FD03464FEA13339BB2A3F10D
:1043900005039BB24FEA8303FB814FF00003FB82CE
:1043A0007CE0FB8A3A69D3181B787B737B7B012BFB
:1043B0000AD0022B13D0002B51D145F26820C0F651
:1043C000010004F09BF86EE0FB8A03F10103FB821D
:1043D00045F27C20C0F6010004F090F85EE045F262
:1043E0009020C0F6010004F089F8FB8A03F1010374
:1043F0003A69D3181B78042B05D1FB8A03F1040218
:10440000FB899A4206DD45F2A420C0F6010004F0C3
:1044100075F848E0FB8A03F102033A69D3181B7868
:104420004FEA03239AB2FB8A03F103033969CB18DD
:104430001B7813439BB27B817A8940F2B4539A4232
:1044400004D87B89002B01D07B8901E040F2B45372
:104450007A681387FB8A03F10403FB821EE045F2AE
:10446000C020C0F6010004F049F8FB8A03F1010303
:104470003A69D3181B78002B06D145F2A420C0F668
:10448000010004F03BF80EE0FB8A03F101033A69F6
:10449000D3181B781A46FB8AD318FB82FA8AFB8949
:1044A0009A42FFF47EAF07F11807BD4680BD00BFFA
:1044B00080B58AB000AF786039604FF000037B624E
:1044C0004FF000033B624FF00003FB614FF000032D
:1044D000BB617B681B8A9BB27B627B6A23F440537F
:1044E0007B623B68DB887A6A13437B627B6A9AB2A1
:1044F0007B681A827B689B899BB27B627B6A23F410
:10450000B05323F00C037B623B689A883B681B899D
:1045100013439AB23B685B8913439BB27A6A134395
:104520007B627B6A9AB27B689A817B689B8A9BB22A
:104530007B627B6A23F440737B623B689B897A6A67
:1045400013437B627B6A9AB27B689A8207F1080305
:10455000184602F0B9FC7A684FF48053C4F20103A4
:104560009A4206D07A684FF4A053C4F201039A42EB
:1045700002D17B693B6201E03B693B627B689B89BE
:104580009BB29BB21BB2002B0FDA3A6A13464FEA7A
:1045900083039B184FEA83029A183B681B684FEA13
:1045A0004303B2FBF3F3FB610EE03A6A13464FEAB2
:1045B00083039B184FEA83029A183B681B684FEAF3
:1045C0008303B2FBF3F3FB61FA6948F21F53C5F2B0
:1045D000EB13A3FB02134FEA53134FEA03137B625F
:1045E0007B6A4FEA13134FF0640202FB03F3FA698C
:1045F000D31ABB617B689B899BB29BB21BB2002B19
:1046000012DABB694FEAC30303F1320248F21F53C7
:10461000C5F2EB13A3FB02134FEA531303F0070396
:104620007A6A13437B6211E0BB694FEA031303F11B
:10463000320248F21F53C5F2EB13A3FB02134FEAF9
:10464000531303F00F037A6A13437B627B6A9AB2B7
:104650007B681A8107F12807BD4680BD80B483B00E
:1046600000AF78600B46FB70FB78002B08D07B68AE
:104670009B899BB243F400539AB27B689A8107E00E
:104680007B689B899BB223F400539AB27B689A8122
:1046900007F10C07BD4680BC704700BF80B483B0F3
:1046A00000AF78600B467B807B884FEAC3534FEAAC
:1046B000D3539AB27B689A8007F10C07BD4680BC41
:1046C000704700BF80B487B000AF786013460A46D9
:1046D0007A807B704FF000033B614FF00003FB607A
:1046E0004FF00003BB604FF000037B617B687B6190
:1046F0007B88DBB24FEA5313DBB23B617B8803F06C
:104700001F03FB60FB684FF0010202FA03F3BB607A
:104710003B69012B04D17B6903F10C037B610BE046
:104720003B69022B04D17B6903F110037B6103E039
:104730007B6903F114037B617B78002B06D07B69D6
:104740007A691168BA680A431A6007E07B697A6976
:104750001168BA686FEA02020A401A6007F11C0782
:10476000BD4680BC704700BF80B485B000AF7860A4
:104770000B467B804FF00003FB737B681B889AB26B
:104780007B8813409BB2002B03D04FF00103FB73D7
:1047900002E04FF00003FB73FB7B184607F11407A0
:1047A000BD4680BC704700BF80B483B000AF4FF0FF
:1047B00000037B8003E07B8803F101037B807B881F
:1047C000082BF8D943F26813C2F2000303F1030384
:1047D00023F003037B604FF000037B8039E07A888D
:1047E00043F24413C2F200034FF0000143F82210D9
:1047F0004FF000033B801EE07A8843F24413C2F27C
:10480000000353F822207B681A607A8843F244132D
:10481000C2F20003796843F822107A8845F2D42363
:10482000C0F6010333F812307A68D3187B603B88F6
:1048300003F101033B807A8845F2E823C0F60103C7
:1048400033F812303A889A42D6D37B8803F10103B9
:104850007B807B88082BC2D907F10C07BD4680BC42
:10486000704700BF80B584B000AF0346FB71FB7991
:10487000082B02D94FF0000323E0FA7943F24413E6
:10488000C2F2000353F82230FB60FB68002B09D012
:10489000FA79FB68196843F24413C2F2000343F843
:1048A00022100DE0FA7940F23403C2F2000353F80B
:1048B000223045F26030C0F60100194603F008FED0
:1048C000FB68184607F11007BD4680BD80B485B06F
:1048D00000AF03463960FB713B68002B13D03B6887
:1048E000FB60FA7943F24413C2F2000353F822202A
:1048F000FB681A60FA7943F24413C2F20003F968C4
:1049000043F8221000E000BF07F11407BD4680BC49
:10491000704700BF80B584B000AF78604FF00103EE
:10492000FB73FB7B002B1DD07B685B6A1B7A002B23
:1049300009D045F29830C0F6010003F0DFFD786839
:1049400000F0A0F817E045F2EC30C0F6010003F0EB
:10495000D5FD786800F06EF87B685B6A4FF0640202
:104960001A7208E045F22C40C0F6010003F0C6FDC3
:10497000786800F087F807F11007BD4680BD00BFDA
:1049800080B584B000AF786039607B6893F82F30D1
:104990001A467B6893F830304FEA03231A434FF4EA
:1049A0008073CAF6FE13D318184607F021FA03469F
:1049B000184607F03BFAF8607B685B6A5B7AFA6836
:1049C000D318FB60FB684FEA03434FEA134343F0FD
:1049D000294343F47E03FB60FA684FF0FF03CAF6F5
:1049E000FE139A4203D8FB6803F57E43FB60FA6826
:1049F0004FF6FF63CAF6FE139A4203D9FB68A3F58C
:104A00007E43FB60F86807F0F3F902463B681A60E2
:104A10007B685B6A5B7A1A463B681B6845F26840B4
:104A2000C0F6010011461A4603F052FD07F11007C7
:104A3000BD4680BD90B587B004AF78607B6803F158
:104A40002B027B6803F12B047B685B6A7968496AF7
:104A5000009341F6C833C0F60203019302914FF070
:104A6000010303937868114641F6C032C0F6020292
:104A7000234604F0DDFF0346184607F10C07BD4648
:104A800090BD00BF80B586B002AF78607B685B6A7E
:104A9000FB604FF00003FB72786807F0F7FC0346F9
:104AA000002B02D0786807F0D7FC7B684FF000023B
:104AB0005A607B684FF000029A607B684FF00002FA
:104AC000DA607B6893F832301A467B6893F83330AB
:104AD000796891F83410009145F2C440C0F60100A5
:104AE000796803F0F5FCFB68002B27D145F2E44020
:104AF000C0F6010003F002FD4FF00A00FBF7BEFD17
:104B0000F860FB68002B08D145F21050C0F6010098
:104B100003F0F4FC4FF0FF0338E0F8684FF00001B9
:104B20004FF00A020DF04EFE7B68FA685A6245F2B9
:104B30003C50C0F6010003F0CBFC17E0FB684FF0DF
:104B400000021A71FB684FF00002DA80FB684FF038
:104B500000025A71FB6818464FF000014FF0040242
:104B60000DF030FEFB684FF000021A72FB687868A7
:104B70001946FFF705FFFB685B7A03F10103DAB220
:104B8000FB685A72786800F007F8FB7A5BB2184647
:104B900007F11007BD4680BD80B485B000AF7860D6
:104BA0007B685B6AFB60FB684FF001021A71FB686F
:104BB0004FF000025A717B6893F830304FEA03627D
:104BC0007B6893F82E304FEA03431A437B6893F8CF
:104BD0002D304FEA03231A437B6893F82F301A4392
:104BE0007B685B6A002B03D07B685B6A5B7A01E0C1
:104BF0004FF00003D1184CF6CD43CCF6CC43A3FBC9
:104C000001234FEAD30213464FEA83039B184FEA6E
:104C10004303CA1A92B2FB68DA80FB685B7A0A2BFC
:104C200003D9FB684FF41672DA8007F11407BD460A
:104C300080BC704780B586B000AF7860396045F2BF
:104C4000D450C0F6010003F059FC7B685B6A002B6E
:104C50007CD07B685B6A1B79002B77D07B6893F8EC
:104C60002B303B727B6893F82C307B727B6893F817
:104C70002D30BB727B6893F82E30FB727B6893F803
:104C80002F303B737B6893F830307B733A6807F1C1
:104C9000140302F10E02106818603A6807F110035D
:104CA00002F11802106818607B685B6A1B79012B9F
:104CB00009D07B685B6A1B79022B28D17B685B6A11
:104CC0005B79002B23D17A697B685B6A1B689A4207
:104CD00013D03A697B685B6A1B689A4235D13B689E
:104CE00003F1080307F10802104619464FF00602C7
:104CF0000DF06AFC0346002B27D045F2E850C0F6C1
:104D0000010003F0FBFB7868FFF7BCFE1DE07A6949
:104D10007B685B6A1B689A4218D13B6803F1080301
:104D200007F10802104619464FF006020DF04CFC40
:104D30000346002B0AD045F21460C0F6010003F0D0
:104D4000DDFB7868FFF7E6FD00E000BF07F118071C
:104D5000BD4680BD80B586B000AF786039604FF049
:104D600000037B613B68002B7B685B685B68FB60D2
:104D7000FB689B889BB2002B20D17B685B683B6102
:104D8000FB681A687B685A603B695A687B6803F164
:104D90000803104619464FF014020DF071FC3869F3
:104DA0004FF0010109F0DCFA386906F085FE034690
:104DB0007A69D3187B61386906F00AFE7B685B6804
:104DC0003B6111E03B695B68FB603B69BB60FB6872
:104DD0001B683B61B86806F06FFE03467A69D3181A
:104DE0007B61B86806F0F4FD3B69002BEAD1786876
:104DF000396800F0C5F845F28053C2F200031A8802
:104E00007B699BB2D31A9AB245F28053C2F2000377
:104E10001A807B69184607F11807BD4680BD00BFA0
:104E200080B588B000AF786039604FF000033B6117
:104E30004FF00003BB614FF000037B614FF00003B4
:104E4000FB6045F27C53C2F200031B68FB612DE05E
:104E5000FB695A697B68DB689A420CD1FB699A69E5
:104E60007B681B699A4206D1FB699A897B689B889B
:104E70009BB29A4211D0FB6803F10103FB60BB694E
:104E8000002B02D1FB69BB6107E0FB69DA7FBB69DC
:104E9000DB7F9A4201D8FB69BB61FB691B68002B71
:104EA00001D0FB697B61FB691B68FB61FB69002B1F
:104EB000CED1BB69002B08D0B8697969FFF74AFFEA
:104EC000B8603A69BB68D3183B613A693B689A425B
:104ED00002DAFB68012BABDC3B69184607F12007BF
:104EE000BD4680BD80B584B000AF786039604FF0BA
:104EF0000500FFF7B7FCF860FB68002B18D1786855
:104F00003968FFF78DFF02463B689A4204DB4FF099
:104F10000500FFF7A7FCF860FB68002B08D145F2FD
:104F20008860C0F6010003F0E9FA4FF0000321E0C9
:104F3000F8684FF000014FF020020DF043FCFB68D1
:104F40004FF00302DA7745F27C53C2F200031A688D
:104F5000FB681A6045F27C53C2F20003FA681A60DB
:104F6000FB6803F10803184679684FF014020DF04E
:104F700087FBFB68184607F11007BD4680BD00BFE0
:104F800080B582B000AF7860396045F27C53C2F2E0
:104F900000031A687B689A4207D17B681A6845F259
:104FA0007C53C2F200031A6003E07B681A683B6816
:104FB0001A604FF005007968FFF788FC07F10807D1
:104FC000BD4680BD90B58BB000AF786039604FF0C2
:104FD00000033B624FF00103BB613B685B687B6190
:104FE0007B695B889BB2184606F0F2FE03461C46BE
:104FF0007B691B889BB2184606F0EAFE03464FEA1F
:1050000013239BB203F00F039BB21A464FEA82327E
:10501000D31A4FEA83039BB2E3187B827B69DB8858
:105020009BB2184606F0D4FE03464FEAC3434FEA4C
:10503000D3439BB24FEAC3033B823B685B687B620E
:105040007B6A4FF000021A704FF000025A704FF066
:1050500000029A704FF00002DA707B6A3A8A9A80F6
:105060003A8A7B8AD3189AB27B6ADA807B685B685B
:10507000FB614DE0FB695B68FB607B6A9B889AB2D1
:10508000FB689B889BB29A421FD27B6AFA691A60BE
:105090003B6A002B15D07B6A9B889AB23B6ADB88FF
:1050A0009BB29A42C0F091807B6ADB889AB2FB681F
:1050B0009B889BB29A4200F288803B6A3A681A60E9
:1050C00029E07B683A685A6025E07B6A9B889AB23F
:1050D000FB689B889BB29A4274D07B6A9B889AB289
:1050E000FB68DB889BB29A426ED33B6A002B0AD0E6
:1050F0003B6ADB889AB2FB689B889BB29A4202D0DB
:105100004FF00003BB61FB681B68FB61FB683B62FF
:10511000FB69002BAED1FB69002B18D13B6A002B39
:1051200012D03B6ADB887B6A9B883B6A3A681A60CC
:105130003B6ADB889AB27B6A9B889BB29A4206D014
:105140004FF00003BB6102E07B683A685A607B68FD
:105150009B7F03F00103002B31D0BB69002B2CD0C7
:105160007B685B685B689B889BB2002B03D04FF029
:105170000003BB6121E07B6A3B627B6A1B68FB61C9
:1051800013E0FB695B687B623B6ADB889AB27B6AEF
:105190009B889BB29A4203D04FF00003BB6107E0AB
:1051A0007B6A3B627B6A1B68FB61FB69002BE8D171
:1051B000BB69002B01D07B6ADB88BB691AE04FF02A
:1051C000000317E000BF00E000BF45F28053C2F2C9
:1051D00000031C88386806F06FFC0346E31A9AB295
:1051E00045F28053C2F200031A80386806F0F0FBE3
:1051F0004FF00003184607F12C07BD4690BD00BFD5
:1052000090B58BB000AF78604FF00003FB617B6816
:105210005B68BB61BB691B889BB2184606F0D8FD72
:1052200003464FEA13239BB203F00F034FEA8303B5
:10523000142B06D045F2AC60C0F6010003F05EF915
:1052400069E1BB69DB889BB2184606F0C1FD0346E5
:105250004FEAC3434FEAD3439BB24FEAC303FB82F7
:10526000BB695B889BB2184606F0B2FD03461C463C
:10527000BB691B889BB2184606F0AAFD03464FEA9D
:1052800013239BB203F00F039BB21A464FEA8232FC
:10529000D31A4FEA83039BB2E318BB82786806F007
:1052A0000BFC0346FB7445F28053C2F200031B88DB
:1052B0001A46FB7CD3180A2B23DDFB7CB869194600
:1052C000FFF7AEFD0346002B09D045F28053C2F232
:1052D00000031B881A46FB7CD3180A2B11DD45F20C
:1052E0008053C2F200031B881A46FB7C45F2DC6047
:1052F000C0F6010011461A464FF00A0303F0E8F821
:1053000009E145F27C53C2F200031B683B6226E0D0
:105310003B6A5A69BB69DB689A421BD13B6A9A694E
:10532000BB691B699A4215D13B6A9A89BB699B8804
:105330009BB29A420ED1BB699B889BB2184606F07D
:1053400047FD034645F21870C0F60100194603F008
:10535000BFF807E03B6AFB613B6A1B683B623B6A44
:10536000002BD5D13B6A002B09D1FB7CB8691946CB
:10537000FFF7B8FD38623B6A002B22D1CBE0BB6956
:10538000DB889BB2184606F023FD03464FEAC34371
:105390004FEAD343002B14D13B6ADB89184606F051
:1053A00017FD03464FEAC3434FEAD343002B08D00F
:1053B0003B6A03F108031846B9694FF014020DF077
:1053C0005FF9FB7C9AB245F28053C2F200031B885E
:1053D000D3189AB245F28053C2F200031A80BB6917
:1053E000DB889BB2184606F0F3FC034603F4005337
:1053F000002B15D13B6A9B7F43F00103DAB23B6A75
:105400009A77FA8ABB8AD3189AB23B6A9A833B6A24
:105410009B8B45F24870C0F60100194603F058F81E
:10542000386A7968FFF7CEFD0346002B64D03B6AEB
:105430009B8B03F114039AB23B6A9A833B6A5B68C5
:105440005B681B687B623B6A5B685B68BB613B6A4D
:1054500003F10803B86919464FF014020DF010F972
:105460003B6A9B8B184606F09BFC03461A46BB69B9
:105470005A80BB694FF000029A714FF00002DA7156
:10548000BB694FF000029A724FF00002DA72B869FD
:105490004FF0140101F058FC03461A46BB695A81CB
:1054A0003B6A5B687B600EE07B6A5B68FB60786AE6
:1054B0006FF0130106F0FCF97868796A06F02AFBB0
:1054C000FB681B687B627B6A002BEDD1386AF96947
:1054D000FFF756FD45F28053C2F200031C8878683E
:1054E00006F0EAFA0346E31A9AB245F28053C2F292
:1054F00000031A807B6819E045F28053C2F2000372
:105500001B8845F27470C0F60100194602F0E0FFF6
:105510004FF000030AE045F29070C0F6010002F07F
:10552000EDFF786806F054FA4FF00003184607F1D3
:105530002C07BD4690BD00BF80B58CB000AFF860B1
:10554000B9607A60BB681B8DFB844FF014037B85C8
:105550004FF002004FF000014FF0020205F0FCFF97
:1055600038623B6A002B08D145F2A870C0F60100F2
:1055700002F0C4FF4FF0FF03D4E03B6AFA8C5A817B
:105580003B6A5A893B6A1A8145F28453C2F200038E
:1055900003F1030323F003031A463B6A5A603B6A94
:1055A0005B68FB61FB685B68F86919464FF01402A1
:1055B0000DF066F8FB69DB889BB2184606F008FC24
:1055C00003463B853B8D4FEAC3434FEAD343BB853C
:1055D0003B8D03F400537B83FB681B89A3F1140309
:1055E000FB85FB8CA3F11403002B01DA03F1070305
:1055F0004FEAE3033B838CE0FA8DFB8CA3F11403A9
:105600009A42CCBF00230123DBB2FB82BB8D4FEA61
:10561000C3434FEAD3439AB27B8B13433B85FB8A48
:10562000002B03D13B8D43F400533B85FB8A002BB9
:1056300004D13B8B4FEAC3039BB200E0FB8DBB82DE
:10564000FB6903F11401BA8A7B8DF86806F03EFB12
:1056500003461A467B8DD3187B853B8D184606F092
:105660009FFB03461A46FB69DA80BB8A03F11403E9
:105670009BB2184606F094FB03461A46FB695A8013
:10568000FB694FF000029A724FF00002DA72F8697B
:105690004FF0140101F058FB03461A46FB695A818A
:1056A000FB8A002B07D0FB8D03F114039BB2386AF1
:1056B000194606F097F84FF002004FF000014FF046
:1056C000000205F049FF38613B69002B15D03869AD
:1056D000396A06F04DFABB685B69B86839697A685F
:1056E0009847386906F074F9FA8DBB8AD31AFB859E
:1056F000BA8D3B8BD318BB850BE045F2DC70C0F64E
:10570000010002F0FBFE386A06F062F94FF0FF0379
:1057100008E0FB8D002B7FF46FAF386A06F058F974
:105720004FF000035BB2184607F13007BD4680BD5D
:1057300080B483B000AF4FF000037B6032E046F2EC
:10574000C802C2F2000279680B464FEA43035B18B5
:105750004FEAC303D31803F110031B79002B1DD1AB
:1057600046F2C802C2F2000279680B464FEA4303D0
:105770005B184FEAC303D31803F110034FF0010283
:105780001A717A6813464FEA43039B184FEAC30322
:1057900046F2C802C2F200029B1808E07B6803F1DF
:1057A00001037B607B68092BC9DD4FF000031846BD
:1057B00007F10C07BD4680BC704700BF80B485B0C0
:1057C00000AF78604FF00003FB6026E0FA681346F4
:1057D0004FEA43039B184FEAC30346F2C802C2F2E2
:1057E00000029A187B689A4213D146F2C802C2F2AC
:1057F0000002F9680B464FEA43035B184FEAC30304
:10580000D31803F110034FF000021A7100BF00BF5C
:1058100006E0FB6803F10103FB60FB68092BD5DDA3
:1058200000BF07F11407BD4680BC704780B584B047
:1058300000AF7860FFF77CFFB860BB68002B02D137
:105840004FF000032FE041F6E823C0F60203FB60AF
:1058500021E0FB685B68786819460DF0D1F80346D3
:10586000002B15D1FB689A68BB681A60FB68DA6880
:10587000BB685A60FB68DA68BB689A60BB684FF027
:105880000002DA60FB681A7CBB681A74BB680AE025
:10589000FB681B68FB60FB68002BDAD1B868FFF778
:1058A0008DFF4FF00003184607F11007BD4680BD7D
:1058B00080B582B000AF78607868FFF77FFF07F1AE
:1058C0000807BD4680BD00BF80B586B000AFF86058
:1058D000B9607A60FB689A68FB685B689A4202D19B
:1058E0004FF0FF331DE0FB685A68FB689B68D31AD2
:1058F0007B617A697B689A4201DD7B687B61FB682A
:105900001A68FB689B68D2187B69B86811461A460A
:105910000CF0B6FEFB689A687B69D218FB689A6047
:105920007B69184607F11807BD4680BD80B483B077
:1059300000AF78607B685A687B689B68D31A18460A
:1059400007F10C07BD4680BC704700BF80B582B030
:1059500000AF44F66C13C0F602037B6040F2000314
:10596000C2F200033B600BE07B681A683B681A6078
:105970003B6803F104033B607B6803F104037B6035
:105980003A6840F6EC03C2F200039A42ECD30948AD
:1059900009494FF000028842B8BF40F8042BFFF6D7
:1059A000FAAF06F07DFE01F041FA07F10807BD46A7
:1059B00080BD0000EC080020BC86002080B400AF51
:1059C000FEE700BF80B584B000AF0346FB71FA79F3
:1059D00041F60433C0F6020353F8223018464FF064
:1059E000010101F057FBFA7941F6FC23C0F60203EE
:1059F00033F81230BB604FF001033B734FF00003EC
:105A0000BB734FF00103FB734FF002037B73FA7912
:105A100040F25803C2F2000353F8222007F10803B2
:105A20001046194606F046FD07F11007BD4680BD39
:105A300080B483B000AF0346FB71FA7940F258039B
:105A4000C2F2000353F82220F97941F6FC23C0F694
:105A5000020333F81130538307F10C07BD4680BCB5
:105A6000704700BF80B483B000AF0346FB71FA7982
:105A700040F25803C2F2000353F82220F97941F6AC
:105A8000FC23C0F6020333F81130138307F10C072F
:105A9000BD4680BC704700BF80B483B000AF0346F2
:105AA000FB71FA7940F25803C2F2000353F8222046
:105AB000F97940F25803C2F2000353F821305969D2
:105AC000F87941F6FC23C0F6020333F810304B405E
:105AD000536107F10C07BD4680BC704780B588B0A4
