:020000040800F2
:1000000090BE00209D010008271400084F0F000833
:100010002514000875020008951B00080000000068
:10002000000000000000000000000000211A00088D
:100030007702000800000000A1140008251B00083A
:10004000B7010008B7010008B7010008B7010008B0
:10005000B7010008B7010008B7010008B7010008A0
:10006000B7010008B7010008B7010008B701000890
:10007000B7010008B7010008B7010008B701000880
:10008000B7010008B7010008B7010008B701000870
:10009000B7010008B7010008B7010008B701000860
:1000A000B7010008B7010008B7010008B701000850
:1000B000B7010008B7010008B7010008B701000840
:1000C000B7010008B7010008B7010008B701000830
:1000D000B7010008B7010008B7010008B701000820
:1000E000810B0008B7010008B7010008B70100083C
:1000F000B7010008B7010008B7010008B701000800
:10010000B7010008B7010008B7010008B7010008EF
:10011000B7010008B7010008B7010008B7010008DF
:10012000B7010008B7010008B7010008B7010008CF
:10013000B7010008B7010008B7010008B7010008BF
:10014000B7010008B7010008B7010008B7010008AF
:10015000B7010008B7010008B7010008B70100089F
:10016000B7010008B7010008B7010008B70100088F
:10017000B7010008B7010008B7010008B70100087F
:10018000B7010008B7010008DFF80CD000F060F8F4
:1001900000480047FD32000890BE00200648804716
:1001A00006480047FEE7FEE7FEE7FEE7FEE7FEE75C
:1001B000FEE7FEE7FEE7FEE7291B000889010008CD
:1001C00040EA01039B0703D009E008C9121F08C0D9
:1001D000042AFAD203E011F8013B00F8013B521E59
:1001E000F9D27047D2B201E000F8012B491EFBD2D0
:1001F00070470022F6E710B513460A460446194632
:10020000FFF7F0FF204610BD30B50446002003463E
:1002100000E05B1C934203D2E05CCD5C401BF8D055
:1002200030BD30B50B46014600202022012409E0F4
:1002300021FA02F59D4205D303FA02F5491B04FA9F
:1002400002F52844151EA2F10102F1DC30BD0000C8
:10025000064C074D06E0E06840F0010394E8070013
:1002600098471034AC42F6D3FFF792FF9470000821
:10027000B4700008FEE770471FB500F017F900F0F2
:100280001DFB1E484068F8B1012000F073FD00F02E
:10029000D7FC042001F03AFC684601F033F90198DC
:1002A0006421B0FBF1F0B0F1807F0CD220F07F41EF
:1002B0004FF0E020491E4161114AF02111700021E8
:1002C0008161072101611FBD4FF4784001F01AF8E8
:1002D00000F082FFC0880BA100EB800080B200F02C
:1002E000F5FE00F079FFC0884FF6FF7100EB40008B
:1002F00001EA400008A100F0E9FEFEE7100000203E
:1003000023ED00E020202045746865726E6574203E
:10031000496E697420202000202020202020666162
:10032000696C65642020202020200000174A506856
:1003300003681146002B896808DB0368DB0505D5D7
:1003400048608868401C8860012070470368002B63
:100350000CDB03689B0509D50368DB0506D4086040
:10036000002048600120886050680BE00368002B83
:100370000ADB03689B0507D40368DB0504D48B689C
:100380005B1C8B60C068506000207047D400002068
:1003900005490028886902D040F0020001E020F001
:1003A000020088617047000000900240F0B5124ED4
:1003B00000244FF0004744F2F45C551E706013E0D7
:1003C00000EB44131F60C4EBC41E0EEB4E0E01EB9A
:1003D0008E0EC3E901CEAC4204D203F1200EC3F865
:1003E0000CE000E0D860641C9442E9D30349C86083
:1003F0000348B060F0BD0000D4000020009002402F
:1004000080BA002005490028886902D040F40050D5
:1004100001E020F400508861704700000090024025
:10042000F0B50F4C00234FF48016551E206011E0EC
:1004300000EB43142660C3EBC31707EB470701EB40
:100440008707A760AB4203D204F12007E76000E012
:10045000E0605B1C9342EBD302490861F0BD0000F1
:10046000D40000200090024002680A4302607047F6
:1004700010B501214C06204601F020F82046BDE8C9
:100480001040002101F01AB801B581B00198009028
:10049000002801D0401EFAE70CBD00000248816927
:1004A00041F4801181617047009002401CB5012128
:1004B00040F2E71000F0F6FF0121880301F016F882
:1004C0004FF48070009003208DF8050002208DF815
:1004D000040000208DF80600494C8DF8070069469D
:1004E000204600F0D3FC0021600101F055F8002007
:1004F00001F098FA862000906946204600F0C6FC7C
:100500000B220121204600F012FD0B220221204681
:1005100000F00DFD0B220721204600F008FD4FF4EE
:100520009070384C00906946204600F0AFFC0B22DA
:100530000521204600F0FBFC0B220821204600F09C
:10054000F6FC3E20304C00906946204600F09EFCB0
:100550000B220121204600F0EAFC0B22022120465A
:1005600000F0E5FC0B220321204600F0E0FC0B220A
:100570000421204600F0DBFC0B220521204600F080
:10058000D6FC4FF4D040214C00906946204600F044
:100590007DFC0B221146204600F0C9FC0B220D21E8
:1005A000204600F0C4FC0B220E21204600F0BFFCC8
:1005B000CC20174C00906946204600F067FC0B22C7
:1005C0000221204600F0B3FC0B220321204600F05C
:1005D000AEFC0B220621204600F0A9FC0B220721CD
:1005E000204600F0A4FC20150A4C009069462046E5
:1005F00000F04CFC0B220A21204600F098FC1CBDA8
:1006000000000240000402400008024000180240BE
:10061000001C024000200240034900200968C9076D
:1006200000D00120704700000090024030B50A4B16
:1006300059680A689C68C2F30D42121FA568012D13
:1006400002D92468A46800E08C68CD685D6002600F
:10065000C0E9014130BD0000D40000202DE9F04187
:1006600088B00027804E0097044605973069884679
:1006700020F01C0501A800F045FF7C4902987C4A47
:100680000144914202D245F0080516E079497A4AC0
:100690000144914202D245F00C050EE07749784AB8
:1006A0000144914209D3774908447749884202D2EC
:1006B00045F0040501E045F0100535614FF40042B6
:1006C0000021404600F032FA00282DD06F48FFF795
:1006D000DBFE2068B0B36E4D05980121401C0590EB
:1006E000404600F099F9400702D40598A842F3D398
:1006F0000598A84217D04FF4805200214046059734
:1007000000F014FA00280FD005980121401C059034
:10071000404600F081F9800602D40598A842F3D340
:100720000598A84203D1002008B0BDE8F08110214F
:100730004046059700F070F9410704D54FF4006179
:10074000216201E008E02762800701D5676113E0BC
:100750004FF4804060610FE0206A6169C00840EAA0
:10076000510082B20021404600F0E0F90028DBD0C1
:100770006FF07F40FFF788FE316846480140D4E9BA
:1007800001021043E26854F8103F1A4310436268B4
:100790001043A2681043E268104322691043626963
:1007A0001043A2691043E2691043226A1043626A4F
:1007B0001043084330602834D4E900010843D4E9E9
:1007C0000212114308432169084361690843A16982
:1007D0000843E16908437060206AB060606AF060B5
:1007E000B1694FF641700140D4E90B021043238DEB
:1007F000626B42EA03421043A26B1043E26B104368
:100800000843B061D4E910010843F06122498A69C4
:1008100022480240D4E912031843D4E914352B438B
:100820001843A36D1843E36D1843236E1843636E9A
:100830001843A36E184310438861D4E91B02104388
:10084000626F54F8783F1A431043626840EA8200AE
:10085000A268104340F400000860086840F080007F
:100860000860012060E700000080024000D3CEFE57
:10087000C0E1E40040F1E9FD40787D0100796CFCC5
:10088000005A6202001F0AFA80F0FA02FFFF0F000E
:10089000FFFF04000F8120FF00900240233FDEF89D
:1008A000054B8A88184402640A78D1F8011042EA9C
:1008B00001214164704700000080024000B5AFB0E4
:1008C00001214FF0606000F0EDFDFFF7D1FD00F079
:1008D000CFF800BFFFF7A0FE0128FBD0684600F06C
:1008E000E0F80120009000204FF40071CDE90A10DB
:1008F000090407901190CDE920010E9014901390F7
:100900000A1115902590269023920420CDE9280104
:1009100080032A9080012B9040122C9040002E9052
:1009200001216846FFF79AFE014948602FB000BDDB
:100930001000002005490028086802D040F004009B
:1009400001E020F0040008607047000000800240D1
:1009500005490028086802D040F0080001E020F0B6
:10096000080008607047000000800240F0B5284D84
:1009700000242A681168002901DA0020F0BD40F245
:10098000F453984213D9B0FBF3F103FB110606B1FF
:10099000491C01290BD0C1F10106C6EBC61606EBB6
:1009A000460600EB86004F1EC0F30C0023E01168E2
:1009B00041F040511160C0F30C005060106840F0ED
:1009C00000401060D068286018E034B92E68D6F86E
:1009D00000C04CF0805CC6F800C05360BC4204D13B
:1009E000166846F0005616605060166846F00046DD
:1009F0001660D268641C8C42E7D32A6005484169BE
:100A0000490703D504214161002141600120F0BD67
:100A1000D40000200090024018B500220092124A33
:100A200013694FF6FF7403F01C0304EAC020184357
:100A30004FF4F86303EA8111014321F0020040F012
:100A40000100106109480099491C00911169C9070A
:100A500002D000998142F6D30099814201D1002051
:100A600018BD506980B218BD00800240FFFF04002D
:100A70000248016841F001010160704700900240A6
:100A800000B50120FFF764FFFFF708FD0120FFF725
:100A900051FF0120FFF7B6FC01205DF804EBFFF7E2
:100AA00077BC012101600021416081604FF48042E8
:100AB000C160C0E90412D2108161C0E9071241622D
:100AC0008162C1620163416340228163C0E90F1208
:100AD0002022C0E91121C164016541658165802240
:100AE000C165C0E918128166C16601674167D20419
:100AF0008167C0E91F125210C0E921211311C0E91A
:100B00002331C0F89410C0F89810C0F89C10C0E9C8
:100B100028125212C0F8A8209201C0F8AC2052123C
:100B2000C0E92C21C0F8B8107047000038B5002388
:100B30000093114B1C694FF6FF7504F01C0405EA85
:100B4000C02020434FF4F86404EA8111014341F0CE
:100B500003005A61186109480099491C00911969FC
:100B6000C90702D000998142F6D30099814201D190
:100B7000002038BD012038BD00800240FFFF040086
:100B800010B54FF48044204600F012F8002807D03A
:100B9000012000F08FF82046BDE8104000F002B8B8
:100BA00010BD00000149086070470000143C01407E
:100BB000064A014600201268044B0A4014331B68A1
:100BC0000B4202D0002A00D001207047003C0140B7
:100BD00030B51A498379026853B30B6893430B60AD
:100BE0000A1D13680468A343136002790A4413685A
:100BF000046823431360114A083213680468A3434E
:100C00001360131D1C680568AC431C604479102CEC
:100C100005D021440A68006802430A6030BD1168AB
:100C2000046821431160196800680143196030BDF0
:100C30000079084401689143016030BD003C0140E7
:100C400030B585B00121022000F02CFC01218D037C
:100C5000284600F04BFC00248DF810408DF813401E
:100C600003A91348039500F011F90E21012000F0AB
:100C7000DFFE8DF804400C2000958DF8050001255D
:100C80008DF806506846FFF7A3FF4FF4A06000F010
:100C9000FDFB28208DF808008DF809408DF80A40EA
:100CA0008DF80B5002A800F0BFFB05B030BD00006E
:100CB0000004024010B51221FFF7AEFE800432D5C9
:100CC000194C2078C04320704FF4784000F01AFB94
:100CD00020784FF6FF7488B100F07EFAC08813A127
:100CE00000EB800080B200F0F1F900F075FAC088E6
:100CF00014A100EB400004EA400010E000F06CFAA0
:100D0000C0880AA100EB800080B200F0DFF900F09B
:100D100063FAC08811A100EB400004EA4000BDE87E
:100D2000104000F0D3B910BD1000002020204E6507
:100D300074776F726B204361626C65206973202049
:100D4000000000002020202020756E706C75676701
:100D50006564202020202020000000002020206E3C
:100D60006F7720636F6E6E6563746564202020204A
:100D70000000000010B504461121FFF74DFE40F0C1
:100D8000030211212046FFF7D1FE00280CD01221CA
:100D90002046FFF741FE40F0200212212046FFF7D7
:100DA000C5FE002800D0012010BD00004FF02042F9
:100DB00002EB80000029016802D041F0010101E04E
:100DC000014A114001607047FEFF0F0030B5D0E9C5
:100DD00001121143D0E903231A4311434269036806
:100DE000114382691143C2691143026A1143426A85
:100DF0001143826A1143C26A1143026B11434FF0DF
:100E0000204242F823108168082906D1016802EBCC
:100E100081010B6843F040030B60416BD1E9003462
:100E200043EA04138C688D89240244EA0544234371
:100E30000C8A43EA04530C7D896943EA04630B433B
:100E4000016802EB81014B60C16AB1F5804F07D0A8
:100E500000686FF0704102EB8000C0F8041130BDF3
:100E6000816B0068D1E9003443EA04138C680D8A71
:100E7000240244EA055423430C7D896943EA046350
:100E800002EB80000B43C0F8043130BDF0B5002305
:100E9000012403270D6804FA03F21540954242D15C
:100EA000D0F800C05E0007FA06F52CEA050CC0F881
:100EB00000C091F804C0D0F800E00CFA06FC4CEA3F
:100EC0000E0CC0F800C091F804C0BCF1010F02D0B4
:100ED000BCF1020F1FD1D0F808C02CEA050CC0F8F5
:100EE00008C091F805C0D0F808E00CFA06FC4CEAFE
:100EF0000E0CC0F808C0D0F804C02CEA020CC0F8F0
:100F000004C0426891F806C00CFA03FC1FFA8CFC7E
:100F100042EA0C024260C268AA43C260CA79C5684C
:100F2000B2402A43C2605B1C102BB3D3F0BD4B0709
:100F3000DB0E9A40C90810B500EB8100016A0F244E
:100F40009C40A1430162016A1143016210BDFEE7AA
:100F500030B50546002440F23F11204600F0C6F9A6
:100F60004FF0D041222008804FF496304D80641C11
:100F70008442FBD330BD00001CB50121782000F075
:100F800091FA4CF23370009002208DF804008DF835
:100F9000050000208DF80600404C8DF807006946DA
:100FA0002046FFF773FF0C2200212046FFF7BFFF0A
:100FB0000C2201212046FFF7BAFF0C220421204613
:100FC000FFF7B5FF0C2205212046FFF7B0FF0C22EA
:100FD00008212046FFF7ABFF0C2209212046FFF72E
:100FE000A6FF0C220A212046FFF7A1FF0C220E21AA
:100FF0002046FFF79CFF0C220F212046FFF797FFAA
:101000004FF68070264C009069462046FFF73EFF61
:101010000C2207212046FFF78AFF0C2208212046D8
:10102000FFF785FF0C2209212046FFF780FF0C22E5
:101030000A212046FFF77BFF0C220B212046FFF7F9
:1010400076FF0C2211462046FFF771FF0C220D217E
:101050002046FFF76CFF0C220E212046FFF767FFAA
:101060000C220F212046FFF762FF01200D4C00905B
:1010700069462046FFF70AFF0C2200212046FFF7B1
:1010800056FF2015084C009069462046FFF7FEFEEB
:101090000C220A212046FFF74AFF1CBD000C02402B
:1010A000001002400014024000180240064B10B429
:1010B0005B68203AD2B21C68DB88534304EB4302DE
:1010C00010BC00F01FB80000E0000020F0B50D4695
:1010D000074640F23F140A4E08E021463846FFF723
:1010E000E5FF70688088201A84B26D1C2A78002A77
:1010F00005D07168601C80B289888842EDD2F0BD4D
:10110000E00000202DE9F043904689460026054680
:1011100000F0ECF84FF0D047184C29E0222038803E
:1011200000201BE00C23B1FBF3F34FEAC30C802338
:1011300003FA0CF338F816C0034113EA0C0F01D17F
:101140000C2906D9012383401CEA030F03D10C2983
:1011500001D9618800E021887980401C9188814212
:10116000E0D86D1CADB24946284600F0BFF8761CA9
:101170006268D088B042D1D8BDE8F083E00000209A
:1011800000B5012197B0084600F0A4F905200F90A2
:1011900000200921CDE91001149004211590CDE91A
:1011A000001012901021CDE90201139004900590D7
:1011B000069009020790CDE908010A900B900C9067
:1011C0000FA80D900E906846FFF700FE0121042045
:1011D000FFF7ECFD17B000BD014840687047000004
:1011E000E000002010B500F0E1F9002000F0E8FB7D
:1011F000012000F0E5FB022000F0E2FB032000F0FC
:10120000DFFB002000F000FC012000F0FDFB0220CD
:1012100000F0FAFB032000F0F7FB0020FFF798FE38
:10122000002000F05BF84FF6FF74204600F06AF8EB
:10123000FFF7D2FF0EA10020FFF748FFFFF7CCFF1A
:10124000C08811A1FFF742FFFFF7C6FFC08814A1B5
:1012500004EA4000FFF73AFFFFF7BEFFC088BDE891
:10126000104000EB400080B213A1FFF72FBF000039
:10127000202020202053544D33324634783720200C
:101280002020202000000000202053544D333246FF
:101290002D34205365726965732020200000000002
:1012A00020544350206563686F73657276657220C1
:1012B00044656D6F000000002020202020202020A9
:1012C000202020202020202020202020000000009E
:1012D0004FF0D041088048887047000001B5BDF844
:1012E00000000149488008BDE00000200B4600B521
:1012F0000146202000F00EF8194621205DF804EB8D
:1013000000F008B801B5BDF800000149088008BD2B
:10131000E00000204FF0D042108051807047000064
:1013200010B58CB002F016F802F0F0F81E4801F08B
:1013300063FA08906FF0FF0001F05EFA09901A4816
:10134000093801F059FA0A900A200024CDE900403A
:10135000A823C02215A103A800F02EFCFFF73CFF34
:10136000C0884FF6FF7101EAC00014A1FFF7AEFE7E
:10137000FFF732FFC08803A900EBC00080B2FFF77F
:10138000A5FE144814490094CDE901100AAB09AA3E
:1013900008A9124802F0F6F8104802F02FF90F4899
:1013A00002F078F90CB010BD0A00A8C02020256416
:1013B0002E25642E25642E25640000002020537401
:1013C000617469632049502061646472657373209D
:1013D00020200000D125000825260008200100203B
:1013E00031B50C4C00982168401AFA2803D30098B4
:1013F000206004F0B3FA00986168401A41F2883125
:10140000884205D300986060BDE8384001F0B6B866
:1014100038BD000008000020014801F017B90000A5
:1014200020010020FEE7704770B50F21C4780278D4
:1014300001234FF0E026E4B1124C246804F4E06488
:10144000C4F5E064C4F30724C4F10405E140447822
:10145000AC4085780D4025430B4C2901115500788F
:1014600000F01F018B40400906EB8000C0F80031FE
:1014700070BD02F01F008340500906EB8000C0F8E9
:10148000803170BD0CED00E000E400E0024908434B
:1014900002490860704700000000FA050CED00E00A
:1014A00070470000044A0029116801D0014300E0A0
:1014B000814311607047000030380240044A00291F
:1014C000116801D0014300E08143116070470000C2
:1014D00010380240044A0029116801D0014300E09D
:1014E000814311607047000038380240044A0029E7
:1014F000116801D0014300E0814311607047000092
:101500004438024070B5204A1168204C11F00C019B
:1015100004D01F4E042903D0082903D004601BE027
:10152000066019E01849091F0B68C3F380550B6862
:1015300003F03F0315B1B6FBF3F301E0B4FBF3F3A3
:101540000C680968C4F388146343C1F30141491C62
:101550004900B3FBF1F1016011680F2303EA111197
:101560000C4B5C5C0168E14041601468072505EAAA
:1015700094241C5D21FA04F48460126805EA523256
:101580009A5CD140C16070BD083802400024F4006C
:1015900040787D01C1000020034A1368084323F00E
:1015A000EC63184310607047083802402DE9F84F8B
:1015B00000200090FFF7E0FCFFF7E2FD052000F0BF
:1015C0009DFC0020FFF784FEA0F513414FF48076C8
:1015D0004FF4E06740F2022341F2B07540F2371851
:1015E00040F239194FF4E85A40F2023B41F2180434
:1015F000009020397ED1F101E520FFF78BFE01211B
:101600000020FFF787FE31460120FFF783FE3946B1
:101610000220FFF77FFE41F230010320FFF77AFE40
:1016200000210420FFF776FE19460820FFF772FE1E
:1016300000210920FFF76EFE00210A20FFF76AFE55
:1016400000210C20FFF766FE00210D20FFF762FE4F
:1016500000210F20FFF75EFE00211020FFF75AFE49
:1016600000211120FFF756FE00211220FFF752FE45
:1016700000211320FFF74EFE142000F03FFC294606
:101680001020FFF747FE41461120FFF743FE0520DB
:1016900000F034FC49461220FFF73CFE052000F024
:1016A0002DFC51461320FFF735FE13212920FFF7AB
:1016B00031FE052000F022FC00212020FFF72AFE49
:1016C00000212120FFF726FE06213020FFF722FE11
:1016D00021113120FFF71EFE03213220FFF71AFEF1
:1016E000B11D3520FFF716FE40F602313620FFF718
:1016F00011FE00E06BE059463720FFF70BFEF91DA5
:101700003820FFF707FE07213920FFF703FE4FF4CB
:10171000C0613C20FFF7FEFD40F20B213D20FFF7AA
:10172000F9FD00215020FFF7F5FDEF215120FFF7D3
:10173000F1FD00215220FFF7EDFD40F23F11532053
:10174000FFF7E8FD4FF41C516020FFF7E3FD012196
:101750006120FFF7DFFD00216A20FFF7DBFD00219C
:101760008020FFF7D7FD00218120FFF7D3FD002166
:101770008220FFF7CFFD00218320FFF7CBFD002162
:101780008420FFF7C7FD00218520FFF7C3FD10214E
:101790009020FFF7BFFD00219220FFF7BBFD032142
:1017A0009320FFF7B7FD4FF488719520FFF7B2FD46
:1017B00000219720FFF7AEFD00219820FFF7AAFD3A
:1017C00021460320FFF7A6FD40F27311EDE0A0F5DE
:1017D000134125397ED101210020FFF79BFD3146C1
:1017E0000120FFF797FD39460220FFF793FD2146C0
:1017F0000320FFF78FFD00210420FFF78BFD194622
:101800000820FFF787FD00210920FFF783FD002155
:101810000A20FFF77FFD00210C20FFF77BFD002150
:101820000D20FFF777FD00210F20FFF773FD00214A
:101830001020FFF76FFD00211120FFF76BFD002145
:101840001220FFF767FD00211320FFF763FD14202E
:1018500000F054FB29461020FFF75CFD41461120A3
:10186000FFF758FD052000F049FB49461220FFF71D
:1018700051FD052000F042FB51461320FFF74AFDC1
:1018800013212920FFF746FD052000F037FB00213A
:101890002020FFF73FFD00212120FFF73BFD07211E
:1018A0003020FFF737FD59463120FFF733FD40F276
:1018B000051319463220FFF72DFD40F20625294673
:1018C0003520FFF727FD40F6080631463620FFF7A2
:1018D00021FD00E06CE029463720FFF71BFD40F2B8
:1018E00004513820FFF716FD07213920FFF712FDBC
:1018F00019463C20FFF70EFD31463D20FFF70AFD5B
:1019000000215020FFF706FDEF215120FFF702FDD7
:1019100000215220FFF7FEFC40F23F115320FFF759
:10192000F9FC4FF427416020FFF7F4FC012161200E
:10193000FFF7F0FC00216A20FFF7ECFC002180207B
:10194000FFF7E8FC00218120FFF7E4FC0021822062
:10195000FFF7E0FC00218320FFF7DCFC002184205E
:10196000FFF7D8FC00218520FFF7D4FC1021902040
:10197000FFF7D0FC00219220FFF7CCFC032193203D
:10198000FFF7C8FC4FF488719520FFF7C3FC0021D6
:101990009720FFF7BFFC00219820FFF7BBFC2146F2
:1019A0000320FFF7B7FC40F233110720FFF7B2FC2A
:1019B0000248A0F108014860BDE8F88FE800002067
:1019C0001CB504460E48012150F82400FFF76AFDBB
:1019D0000B4800210A3830F81400009001208DF8DF
:1019E00004008DF806108DF8070002208DF8050020
:1019F0000448694650F82400FFF748FA1CBD00006F
:101A000010700008000100200349044A31F810104A
:101A100052F8200001837047067000080001002082
:101A2000704700000149086070470000DC00274251
:101A300010B58A0721F003040649130F21440F2231
:101A40000C689A4094430C600A68984002430A600C
:101A500010BD0000083801400CB500202749019056
:101A600000900A6842F480320A604FF4A0630A686A
:101A700002F400320092019A521C0192009A12B9AB
:101A8000019A9A42F3D10A68920334D5012000905A
:101A90001A484030026842F08052026018480268DA
:101AA00042F4804202601548083002680260026811
:101AB00042F400420260026842F4A0520260031F36
:101AC000104A1A600A6842F080720A600A6892013D
:101AD000FCD50D4A40F205611160016821F0030157
:101AE0000160016841F0020101600168C1F38101F8
:101AF0000229FAD10CBD00900CBD00000038024054
:101B00000070004019544007003C02404FF0E021B3
:101B10000428086903D020F004000861704740F0F1
:101B20000400FAE700F02EB8124810B5016841F43D
:101B3000700101601048016841F0010101600E4A26
:101B400000210832116002680C4B1A400260031D2C
:101B50000B4A1A60026822F48022026006480C30A8
:101B60000160FFF779FF03494FF00060803908609A
:101B700010BD000088ED00E000380240FFFFF6FED7
:101B800010300024024801680A31016070470000EB
:101B900000000020FEE700000FB4054B10B503A9BC
:101BA000044A029800F02CF810BC5DF814FB000009
:101BB000C92700081C0100200FB4084B10B504A968
:101BC00002AA039800F01CF8044602A9002000F0C5
:101BD000C1F8204610BC5DF814FB0000551D00083C
:101BE00002E008C8121F08C1002AFAD170477047E6
:101BF000002001E001C1121F002AFBD17047000044
:101C00002DE9FF4F89B09B460446002597E0252823
:101C100033D10027641C4E49B84601222378203B6B
:101C200002FA03F0084202D00743641CF6E720786A
:101C30002E2819D114F8010F47F004072A280ED0D6
:101C40006FF02F022078A0F1300109290CD808EBA1
:101C5000880102EB410100EB0108641CF2E70A98DD
:101C6000641C50F8048B0A90207800286BD06428FC
:101C700008D0692806D0752820D05A460B9990477D
:101C80006D1C5BE00A994FF00A0901C90A9100280E
:101C900004DAC0F100004FF02D0102E0390504D54F
:101CA0002B218DF82010012103E0F90704D0202119
:101CB000F7E78A4608AE0EE00021FAE70A994FF0EE
:101CC0000A0901C90A91F7E74946FEF7AAFA01F1A4
:101CD000300106F8011D0028F6D1ADEB060000F139
:101CE0002009780701D44FF00108C84502DDA8EBB0
:101CF000090000E000208046002706E008A85A46B8
:101D0000C05D0B9990476D1C7F1C5745F6DB04E0C6
:101D100030205A460B9990476D1CB8F10001A8F18C
:101D20000108F5DC05E016F8010B5A460B999047BF
:101D30006D1CB9F10001A9F10109F4DC641C2078E3
:101D400000287FF464AF0DB02846BDE8F08F000096
:101D5000092801000A68531C0B60107070470000CE
:101D60001FB5416A064B0122CDE90013CDE90212ED
:101D700000F12B031946034A00F076FB04B010BDB6
:101D8000FA5D0008F45D00087CB50446406A00284E
:101D900031D0007900282ED02434E0798DF800006D
:101DA000207A8DF80100607A8DF80200A07A8DF813
:101DB0000300E07A8DF80400207B8DF8050054F8CC
:101DC0002409D1F80E208D6903790831012B13D035
:101DD000022B01D143797BB1006882420BD10622EC
:101DE0006846FEF711FA002805D0606A007A78B1DB
:101DF000204600F015F87CBD00688242F8D085428C
:101E0000F9D106226846FEF7FFF90028F0D17CBD23
:101E10002046FFF7A5FF616A642008727CBD0000C0
:101E20002DE9F04105460027446A01F0D1FB10B1CD
:101E3000284601F0E9FB00266E60AE60EE6044B318
:101E40002671E6806671266084F80860B5F82F0078
:101E5000164E304400F0D0FC01F02AFC696A497A41
:101E60000844134980B20843B04201D200F57E40D5
:101E70001049884201D9A0F57E4000F0BDFC2060E9
:101E8000607A401C6072284600F016F83846BDE8BB
:101E9000F0810A2001F078FA040004D02660666020
:101EA00026816C62D2E74FF0FF30F0E70001FEA917
:101EB0000000FEA9FFFEFEA910B550F8241F012264
:101EC0000A7100224A71C27A037B447A42EA0362B1
:101ED000837A00681B0443EA04231A4300B1407A62
:101EE00010440A22B0FBF2F302FB1300C880487AC8
:101EF0000A2802D94FF41670C88010BD01B581B010
:101F00000449019848430090002801D0401EFAE798
:101F10000CBD0000A086010000280BD0026A002A38
:101F200008D0937C082B05D10968926A914201D1AF
:101F300000F084B87047000070B506000DD0346A18
:101F400074B100224FF49A71104601F0B5FB606144
:101F500048B1E27C37494AB10BE06FF0090070BD2F
:101F60006FF0080070BD4FF0FF3070BD0A68521C62
:101F70000A600968216041680120A1610870A169B7
:101F800000254870A16906208870A069C570206886
:101F900000F032FCA1694860A0690581A069458113
:101FA000A069C560A07C0A2803D0052801D00428B8
:101FB00002D1A1697068C860A0695FF00001056185
:101FC000A0694561A069856196F82A00884203D915
:101FD000701890F82B0000E0002001F11C02A369AA
:101FE000491C89B298541029EED3002000F12C012D
:101FF000A269401C80B255544028F7D35FF000001E
:1020000000F16C01A269401C80B255548028F7D3BE
:10201000094800F0F1FBA169C1F8EC00A58300209C
:10202000A26900F1F0015054401C80B24428F7D35B
:10203000002070BD1C00002063538263F8B5046A61
:1020400006460C21204600F096F83046FFF774FF54
:10205000050027D101223521204600F03BF804215C
:10206000204600F047F804223221204600F032F8E2
:10207000A06A01F01DFB0146204600F043F820460F
:1020800000F061F8A08BF03081B2606901F090FC43
:1020900000964323074A6169606803F0DFFD30461C
:1020A00000F00AF8E07C401CE0741420E08328462D
:1020B000F8BD0000F05D000810B5002809D0046AE2
:1020C000002C06D0606908B101F020FC002060619E
:1020D000A06110BD10B5838B84691C445B1C838395
:1020E00084F8F010818B83690B44491C818383F849
:1020F000F02010BD828B83691344521C828383F8C5
:10210000F010704710B5828B84690B0E1444521C7A
:10211000828384F8F030828B84690B0C1444521C47
:10212000828384F8F030828B84690B0A1444521C39
:10213000828384F8F030828B83691344521C82833B
:1021400083F8F01010BD002814D0818B8369FF2222
:102150000B44491C818383F8F020002205E0836949
:102160000B44491C818383F8F020818B4429F6D3EA
:102170008B07F4D17047827C8A4202D0817400219F
:10218000C17470472DE9F84391468846060074D023
:10219000B9F80A002A286DD3D9F80450012005F1B6
:1021A0000E0400F02BFB2188884263D140F20460CA
:1021B00000F024FBA18888425CD14FF4006000F05D
:1021C0001DFB6188884255D140F6060000F016FBE1
:1021D000A98988424ED121463046FFF7D5FDD4F873
:1021E0000E000090A169706820B1814202D10127E0
:1021F0003B4601E000273B4604F1080269463046B1
:1022000003F084FDE08800F0F9FA012802D00228EA
:1022100030D12BE04FB3022000F0F0FAE080D4F888
:102220000E00A0617068C4F80E00706A062118B133
:10223000007908B1124801E004F108000246491E85
:1022400011F0FF0104EB0100037A8374535C6B54BB
:1022500018F80130037205EB010318F801009871BA
:10226000EDD1B26949463046904703E069463046B1
:10227000FFF752FE484601F049FBBDE8F883000035
:10228000F45D000830B4002810D04A6883684568BF
:10229000D2F81A401D401C4002F10E01AC4205D19B
:1022A0000023921D30BC0C3103F030BD30BC7047B0
:1022B0002DE9FC410E46054614460E21304601F03C
:1022C00047FB18B16FF00100BDE8FC8129462046AC
:1022D00000F085FB08B1234B28E04FF0704001F07F
:1022E000E7F9216800EA01074FF0604001F0E0F9EA
:1022F000874222D101208DF8000000208DF80100D6
:102300005E208DF80200206801F0D2F9C0F306408B
:102310008DF80300206801F0CBF9000A8DF8040065
:10232000206801F0C5F98DF805006B4605F12B0218
:102330003146284600F006F9C6E7A86821686A68B1
:1023400001400240914203D0E86838B105F10C0425
:1023500032462146284600F007F8B5E76FF0030043
:10236000B2E70000F45D00082DE9F05F0D468246FB
:1023700000F12B0B14464FF0FF385146284600F071
:102380002EFB08BB4FF0704001F092F9296800EA7B
:1023900001064FF0604001F08BF9864214D09DB1E8
:1023A000286888B10121284600F064F900280DDB77
:1023B000DFF8B09000EB800609EB8607B87B38B1F8
:1023C000012807D034B10BE06FF00900BDE8F09FA1
:1023D0000120B8732946504600F0A2F8804604B3A5
:1023E000B87B4D46022802D0012808D038E007F11A
:1023F00008035A462146504600F0A4F82FE0204634
:10240000017B01290ED001890022032001F054F93B
:10241000070025D0214601F0FDF958B1384601F0FA
:1024200075FA1DE000680028EAD12746204601F031
:10243000E6FAAFB1062001F095F80100EED00020D9
:10244000C1E9000755F8260008B905E01046026802
:10245000002AFBD1016001E045F8261000208046EB
:102460004046B3E7F07C00202DE9F05F93468946B3
:102470000746984600222A210320DDF82CA001F00F
:102480001BF906000DD075680D9805F10E0400F0DB
:10249000B5F9E080796A062039B1097929B11F4977
:1024A00004E04FF0FF30BDE8F09F5946401E10F0A9
:1024B000FF0004EB000218F8003013721AF8003025
:1024C00093740A5C2A5405EB000319F800209A71F2
:1024D000ECD10A980068C4F80E000C980068A0615E
:1024E000012000F08BF920804FF4006000F086F9A5
:1024F000608040F2046000F081F9A08040F60600A0
:1025000000F07CF9A881BA69314638469047044604
:10251000304601F0FBF92046C5E70000F45D0008F5
:102520001FB50123064C021DCDE90213CDE900249D
:1025300000F12B031946A21FFFF796FF04B010BD50
:10254000FA5D00082DE9F0414D680E460746062465
:10255000641E14F0FF0405EB0401185D2855105D9E
:102560008871F5D14FF4006000F048F9A881314638
:102570003846BA69BDE8F041104700002DE9F04146
:102580000025124CA84600BF05EB850704EB870623
:10259000F07B401CC0B2F073B17B022902D001294C
:1025A00003D00DE0F02802D20AE0022808D354F844
:1025B000270018B100F011F944F8278086F80E8042
:1025C0006D1CEDB20A2DDFD3BDE8F081F07C002058
:1025D00070B5044640680D46808900F00FF9B0F5EB
:1025E000006F04D0A0F5006006380AD112E0214641
:1025F0002846FFF747FE6FF00D01204601F0A8F9CD
:1026000018B1204601F082F90AE02946204600F080
:1026100095FA05E0224605F12B012846FFF7B2FDA9
:10262000002070BD10B5732180F83210742180F83D
:102630003310044941610449816100F0AFFD00207D
:1026400010BD0000B12200089132000870B50546A7
:1026500000F0DEFD040009D02A69294690470500F4
:1026600002D0204601F052F9284670BD4FF0FF30ED
:1026700070BD00002DE9F35F4FF00A0A4FF0000132
:10268000DFF83CB10400D14652460D460E4657468F
:102690000B4616D04B4890F8008008EB880C0BEBEB
:1026A0008C0090F80EC0BCF1020F0AD1D4F800C023
:1026B0004068844505D14FFA88F0BDE8FC9F0A2A9E
:1026C00007D1DFF8FCE001EB810C0EEB8C00807B86
:1026D00060B101EB810B0EEB8B0090F80EC0BCF1EA
:1026E000010F05D0BCF1020F1AD02AE04AB228E04F
:1026F0002CB1D4F800C0D0F80480C44517D05EF8DF
:102700002BC0C07BBCF1000F04D0984219D34FB24C
:10271000034616E0A84214D34FFA81FA054610E0AA
:102720004CB1D4F800C0D0F80480C44503D125488A
:10273000017048B2C1E7C07BB04202D34FFA81F9C1
:102740000646491CC9B20A29B9D301994FF0FF3096
:102750004FF000080A2A05D08907AED40A2A06DA03
:10276000D5B21CE0C907A8D001998907A5D4B9F151
:102770000A0F02DA09F0FF0511E0BAF10A0F02DAD6
:102780000AF0FF050BE00A2F97DAFDB20C4E05EBBD
:10279000850756F8270000F020F846F827800848FB
:1027A00005EB850200EB8200414680F80E800CB1FB
:1027B00022684260C1730348057068B27DE700007B
:1027C000F07C0020C000002038B504468DF80000E1
:1027D00069460320ABBE204638BD70B5044608E00C
:1027E0002546D5E9004001F091F82946062000F081
:1027F00081FE002CF4D170BD00BA704740BA70471A
:102800000A46032100F08AB82DE9FE4F44680546C8
:102810008A46208800F04EFFC0F303204FEA80096B
:10282000C9F100018846284601F092F8002870D1CD
:10283000288904286DD368680078082869D10126A2
:102840004FF0704000F034FF216900EA01074FF0BB
:10285000604000F02DFF874200D10026514604F170
:10286000100000F0BCF8002853D1002E51D0288968
:1028700008284ED3284600F08EF8E8BB22212846CF
:1028800001F066F8D0B14946284601F061F898BBDE
:1028900029890022022000F00FFF060039D02946C6
:1028A00000F0B8FF40BB41463046746801F050F874
:1028B00010BB284601F02AF8354605E06FF02101EB
:1028C000284601F045F8B8B96868E1682269E26015
:1028D0002161002606704680208900F0EBFEC0B220
:1028E00040F47F40FFF78AFF2081668149462846F1
:1028F00001F02EF800B900E00BE00121CDE9006104
:10290000FF230022CDF808A004F10C01284600F0B6
:10291000F5F92846BDE8FE4F00F0F8BF2DE9FC4769
:1029200091460E46804600222421012000F0C4FE7C
:10293000050024D06C68D8F804701C22267084F836
:1029400001900026A680E6806868D8F80410083058
:10295000FDF736FC66806989204600F016F8608035
:102960000120CDE90060FF2307F10C020021284679
:1029700000F0AAF92846BDE8FC4700F0C7BFBDE853
:10298000FC870A460B21FFF7C9BF10B500F098FC81
:10299000C04380B210BD70B500242646054613E042
:1029A0006989686800F08CFC2044010C11FA80F4FD
:1029B000A87AC00707D0C6F10100C6B2E0B2C4F3DE
:1029C000072141EA00242D68002DE9D126B1E0B2AB
:1029D000C4F3072141EA0024E04380B270BD0068DF
:1029E000421C12D088B191F8312092070BD54A6869
:1029F000824208D0896800EA01030A40934202D16A
:102A00000143491C01D0002070470120704700009D
:102A10002DE9F74F84B0022205984FF014080021E9
:102A2000058D104600F048FE070020D042487D8109
:102A30003D8120F003047C60049814224168204604
:102A4000FDF7BEFBE08800F035FEC0F30C0900F492
:102A50000050029004980089143886B2143DE8179B
:102A600005EB5070C0F3CF00CDE9000553E04FF007
:102A7000FF3007B0BDE8F08F0198864201DC0120ED
:102A800000E000205FEA000A0298C9F30C0545EA5D
:102A9000000547D0304680B283460246434604F1E3
:102AA0001401049800F0FEFE40441FFA80F8284606
:102AB000FFF7A4FEE0800BF1140080B2FFF79EFE4A
:102AC00060800020608114212046FFF75EFF608156
:102AD000BAF1000F05D006F1140081B2384600F0BB
:102AE00067FF00221146022000F0E6FD05001ED01F
:102AF000394600F07DFE05982946069A43699847B5
:102B0000284600F003FFA6EB0B00009986B209EB04
:102B100001001FFA80F9002EAED1384600F0F6FE13
:102B20000020A6E7009845F40055C000B3E73846FA
:102B300000F0ECFE9BE70000137700202DE9F05F2A
:102B4000446806468846208800F0B4FD0421B1EBB5
:102B5000103F12D1208800F0ADFDC0F303204FF6E6
:102B6000FF7101EA8009608800F0A4FD72890146C6
:102B70004A4502D33089884203D2304600F0C6FE6F
:102B800062E0304600F014FFDFF834A1012745462B
:102B900004F1100B284600F01BFD68B1281D0BD076
:102BA000686848B12169814204D029465846FFF738
:102BB00016FF08B15DB117E01FB10027DAF8005029
:102BC00000E02D68454500D12D68002DE2D1208917
:102BD00000F070FDC0B2112806D104EB0900408856
:102BE00000F068FD44282DD0E06898B1414604F11A
:102BF0000C00FFF7F4FE0028BFD14FF0704000F04A
:102C000057FDE16800EA01074FF0604000F050FD19
:102C10008742B2D0002DB0D043F6FF70FFF7EEFD33
:102C2000E188084205D0304600F0CEF806000BD00F
:102C30007468244D41463046C5E9018400F010FF18
:102C400028B138E04546E5E70020BDE8F09F20893F
:102C500000F030FDC0B2012813D006280CD0112896
:102C6000414605D004F11000FFF7B9FE70B11FE036
:102C7000304602F02BFF1EE04146304601F096FB45
:102C800019E041463046FFF7BFFD14E04FF07040B9
:102C900000F00EFD216900EA01074FF0604000F0EE
:102CA00007FD874204D0022130467460FFF7A8FD7B
:102CB000304600F02BFE00206860A860C4E70000EA
:102CC00034000020AC0000202DE9FE438146DDE900
:102CD0000A541F4616468846104600F03BFA50B18B
:102CE0000095CDE901403B4632464146484600F05A
:102CF00005F8BDE8FE836FF00300FAE72DE9F05F09
:102D00001F46DDE90BA5DDF828B05FEA0208894619
:102D1000064641D01421304600F01AFE18B16FF07B
:102D20000100BDE8F09F7468208900F0C3FC67F3E0
:102D30001F20FFF763FD208100F0BCFC20F0FF00A6
:102D400040EA0A00FFF75AFD2081D8F80000206110
:102D50001FFA8BF040F48A40FFF750FD2080308945
:102D6000FFF74CFD174F60804FF0000AA4F806A053
:102D70003888FFF743FDA0803888401C3880B9F1BF
:102D8000000F02D0D9F8000010B9281D00D06868E3
:102D9000E060A4F80AA002E0706800F11008288D35
:102DA00048B13189814206D9424629463046BDE8BC
:102DB000F05FFFF72DBE4246314628466B69BDE8FD
:102DC000F05F1847AC0000202DE9F14F4FF0000AEA
:102DD00000984568288800F06DFCC0F303200528A2
:102DE0007ED1E88800F066FCC0044FEA104968888C
:102DF00000F060FC0446288800F05CFCC0F303206F
:102E0000404204EB80001FFA80F8009800F0F9FCC3
:102E1000514E0746308838440A2809D93946284691
:102E200000F062F900285BD0308838440A2857D86F
:102E30004FF0000B74680DE06069E968884207D1C3
:102E4000A0692969884203D1A089A988884204D051
:102E5000A2462468002CEFD106E02CB1E88800F0EF
:102E600029FCC00419D023E0052000F07BFB0400FE
:102E70000AD13946284600F037F9B84266DB05200A
:102E800000F070FB040061D02021FDF7B2F90320AF
:102E9000E07770682060746004E0E08900F00AFC6C
:102EA000C00405D01422294604F10800FDF788F972
:102EB000308838443080E88800F0FCFB800406D479
:102EC000A07F40F00100A07709EB0800A083204616
:102ED000009900F043F8002836D0A08B143000E0B1
:102EE00034E0A0836068142204F108014568284694
:102EF0002F68FDF765F9A08BFFF780FC6880A5F8C7
:102F000006B0A5F80AB014212846FFF73EFD6881F7
:102F10006FF01309D4F8048009E0494638467D680B
:102F200000F016FD3946404600F04EFC2F68002F99
:102F3000F3D15146204600F08DF8404600F061FC88
:102F40003188081A30804046BDE8F88F009800F0BC
:102F5000DDFC0020F8E70000B80000202DE9F04774
:102F6000D1F8049006460D4600244FF00108B9F848
:102F7000020000F09FFB0746B9F8000000F09AFB42
:102F8000C0F30320404207EB8007B9F8060000F0C9
:102F900091FBC004010C686800220260CA1981809C
:102FA00097B2C78073681EE05A68B2F804C06145E2
:102FB0000DD2036044B1B4F806C061453CD391889A
:102FC0008F4239D8256000E0756073B11AE033D0C4
:102FD000D388994230D324B1E388634501D04FF0C0
:102FE000000813681446002BDED154B12560E18837
:102FF0008288914206D0B17F4FF00008C90714D1F2
:1030000018E07560B17FC90714D0B8F1000F0CD07B
:1030100071684968898831B9016831B14968C088E7
:103020008A88904204D04FF000084046BDE8F087FF
:103030000846F1E70020F9E7284600F0E2FB0146E8
:1030400003480288511A0180284600F05FFCF1E72E
:10305000B8000020074B30B40A465C68016884421F
:1030600001D1596000E01160014630BC052000F03C
:1030700041BA0000B80000202DE9F041446806463E
:10308000884660680025818891B9006870601422C4
:1030900006F108016068FDF793F801212046FFF76B
:1030A00070FC204600F0ADFB0546204600F02EFCEB
:1030B000746809E0606827460468384600F0A1FBA0
:1030C0000544384600F022FC002CF3D1414630463E
:1030D000FFF7C0FF03480188491B01802846BDE86F
:1030E000F0810000B80000202DE9F041184F88461B
:1030F0000646002400221146154678681AE0436906
:10310000D6F80CC0634509D18369D6F810C0634571
:1031100004D18389B6F804C0634507D06D1C22B181
:10312000C37F92F81FC0634500D80246036803B10D
:10313000014618460028E2D11AB11046FFF79CFF5D
:103140000444444501DA012DD4DC2046BDE8F08179
:10315000B800002070B505460E4804680DE0204612
:1031600000F036FA40B1A068296862680140024068
:10317000914201D1204670BD2468002CEFD1064C4D
:10318000206820B100F024FA08B1206870BD00204A
:1031900070BD0000340000203800002070B50446E7
:1031A000062004F82A0F022060700020A070E07052
:1031B00020716071A0712A3C04F12B01FDF770FBB6
:1031C00040F2DC502085322084F8310005220C4981
:1031D0000C48FDF725F905220B490C48FDF7E6F8E8
:1031E000084D00244FF4400605EB44103146FDF72E
:1031F0003BF9641C052CF7DBBDE87040FDF740BCD3
:10320000BC9C0020587E0020F87E0020B87D002065
:103210002DE9FE4300266846FDF708FADDE9017155
:103220000098884681B20322104600F045FA050056
:103230000AD00446B91962896068FCF7C1FF608949
:1032400024680644002CF5D10F4A106881680129D2
:1032500001D9016800E0414600204FF0004302E040
:103260000B60C968401C1468A4688442F8D81068D0
:103270000021816005484269120602D58022426120
:1032800081602846BDE8FE83DC00002000900240FB
:1032900070B50A4800250C460068866807E0628918
:1032A00070196168FCF78CFF608924680544002C64
:1032B000F5D1A8B2FDF75AFB002070BDD400002064
:1032C00030B4002207E003781C024378801C2343BB
:1032D000891E1A4489B20129F5D811B1007802EB90
:1032E0000022100C10FA82F0010C02D0010C11FA2D
:1032F00080F030BC80B2FFF781BA0000FDF772FFAA
:10330000FCF7BAFFFEF70CF800F0A6FD054C00BF75
:10331000FDF70CF808B1FEF77FF82068FEF760F8BB
:10332000F6E700000000002000280FD008494A6896
:1033300090420BD38A68904208D20838002202716A
:10334000CA68904200D2C86000F060BB70470000BD
:103350002000002010B50A480A4A20F003004FF46C
:1033600020535060002103804180017100F52051FD
:10337000012491600C710B804B801470D06010BDE3
:103380005B01002020000020F0B5002847D0C01CC1
:103390004FF6FC7100EA01044FF4205C0C2C01D2C2
:1033A0000C2401E064453FD8204AC4F52055D66876
:1033B0005368F01A81B235E05818077987BB07883F
:1033C0007F1A083FA7422CD3058804F1140E6D1A0A
:1033D000083D0127754514D30C440834A5B25C1987
:1033E0004FF0000E84F804E0B0F800E0A4F800E02C
:1033F0006180058007712188614503D09C1C0D53B5
:1034000000E00771B04209D1D2E902410D792DB136
:10341000A14203D009881944D160F7E70830F0BD14
:10342000FFE7595A8D42C7DC0020F8E72000002052
:103430002DE9F04FC91C4FF6FC7211404FF4205992
:103440000C2901D20C2101E0494510D8284D6C68A7
:10345000A0420ED3AA6890420BD2A0F10802131B1F
:1034600017889BB2FE1A083EB6B2B14203D94FF09C
:103470000000BDE8F08FFCD0AA461D4D07EB040C00
:103480004FF0000BEF689CF804806D68B8F1000FF6
:1034900005F1020516D001F1140CB445E9D8194420
:1034A00008318EB2A119B94201D2CAF80C1081F8C4
:1034B00004B014880C804B80168009884945D8D008
:1034C0004E53D6E719440831BCF8006089B267450D
:1034D00002D16718CAF80C700C4484F804B0268036
:1034E0006380118022884A45C3D05153C1E7000050
:1034F00020000020002905D0034A52F820300B603C
:1035000042F82010704700006C290020F0B5002020
:10351000401C80B20928FBD31048104B20F0030256
:1035200000200F4D0746273B05F1120443F8207099
:10353000002109E053F82060166043F8202035F898
:103540001060491C324489B234F810608E42F1D8C0
:10355000401C80B20928E9D3F0BD00009329002067
:10356000B45D00080146092801D300207047044AD1
:1035700052F821000028F9D0036842F82130704742
:103580006C2900202DE9F041044606A8E0C800207F
:103590006060A060E06084F831002062E5610B4D5E
:1035A0006062287884F83400401C28702046276127
:1035B00000F013F82046B04710B10020BDE8F081BC
:1035C0006868206020466C60F8E70000300000204A
:1035D00090F8310000F00100704770B51D461646A6
:1035E000044600F01FF83146204600F04FF8294607
:1035F0002046BDE8704000F010B800000149886026
:10360000704700003000002090F83110CA0703D046
:1036100021F0010180F83110704701B10968C160E3
:103620007047000070B505460C4608686968884216
:103630001ED0144800680AE001686A68914205D10A
:103640000121C66800F040FA304600E0C06800285A
:10365000F2D10D48006809E007D0016829B16A6815
:10366000914202D144B121680160C0680028F3D1C1
:103670002CB12068686070BD4FF00001F4E74FF096
:103680000000F7E7540000205000002001B1096855
:103690008160704790F83110CA0708D141F00101EC
:1036A00080F83110890602D5011DFEF739BF704739
:1036B00000BA704740BA70472DE9F05F16460D46D4
:1036C000002730B1012805D0022804D003284DD1AD
:1036D00002E0142714370E374FF0010A4FF00008AC
:1036E000F6B3012E5ED0022E5CD0032E3ED1082010
:1036F000FFF738FF04003AD0E0191330267320F0AA
:103700000300C4E90080FF1C27F00300C0F5FA7035
:1037100041462581A84200DD284660815746A4F82D
:103720000EA0A1462D1A4FF4FA7B884616E0082019
:10373000FFF718FFB8B1067380F80D80C0F800805D
:10374000A9B2C9F800000181594500D35946418109
:1037500000F110024260C7816D1A8146002D00E021
:1037600007E0E4DC2AE0204600F0D0F80020BDE8C5
:10377000F09F07F1130020F00301E81C20F0030084
:10378000084480B2FFF700FE0400F0D0E0191330C7
:1037900020F00300606025816581C4F8008084F812
:1037A0000C800BE00720FFF7DDFE0400DFD0C4F83B
:1037B000048025816581C4F800802673A4F80EA0DA
:1037C00084F80D802046D2E710B500280FD00029DC
:1037D0000DD004E003890C8923440381104602685C
:1037E000002AF7D102890B891A440281016010BDB9
:1037F00010B50C46FFF7E8FF2046BDE8104000F08A
:10380000FEB8002102E0491C0068C9B20028FAD1C4
:10381000084670472DE9F0474FF000070C460500B9
:103820003E4604D01CB128892189884203D26FF01A
:103830000900BDE8F0876FF0080968896189C01B3D
:10384000891B884201DB88B200E080B28046606854
:103850004246811968683844FCF7B2FC07EB08005F
:1038600087B206EB080086B26889B84201D12D689C
:1038700000276089B04201D8246800262CB16089F5
:103880002189884201D1206830B93DB168892989F0
:10389000884203D1286808B14846CAE7002CCCD139
:1038A0000020C6E72DE9F047164689464FF000088C
:1038B000002806D0B9F1000F02D00027044620E00E
:1038C0000020BDE8F0872BB16089984202D8181A11
:1038D00083B215E06089C01A85B2B54200D9354679
:1038E00060682A46C11809EB0700FCF769FC08EB81
:1038F00005001FFA80F8781987B2701B86B2002382
:1039000024680EB1002CDED14046DAE770B50028FD
:1039100015D00024C189491E0904090CC1810DD1AB
:10392000017B056803290BD001290CD002290AD09C
:10393000FFF7FAFC641CE4B22800EBD1204670BD0E
:103940000146082001E001460720FFF7D3FDF1E71B
:1039500010B541B138B1002907DA4A4293B2428921
:103960009A4223D302E0002010BD8BB2027B446850
:1039700032B1032A04D0022A0AD0012A08D015E065
:10398000621A00F1100342609A4208D244600DE0CE
:1039900000290BDA42899A4208D3621A42604289AE
:1039A0000A444281028911440181DCE7012010BDF3
:1039B00070B502898A4221D98A1A0D46044605E06B
:1039C000281A85B220891044208124686089A84281
:1039D000F6D3207B50B96089A84207D0A088001B8D
:1039E000284481B22046FFF723FD044665812581E6
:1039F000206808B1FFF78AFF0020206070BD002812
:103A000002D0C189491CC1817047000030B51349FB
:103A100003884A681344941C98420DD01D795DB9FF
:103A20008D68AB4208D0CD689D4200D1C8601D882A
:103A300005801B88851A1D534388134483420BD08D
:103A40001D79002D08D1CD68854200D1CB60018859
:103A500019800088991A015330BD00002000002011
:103A60002DE9F0474668824600273089FFF722FE9D
:103A7000DFF8509000F0FF080025D9F800401CE066
:103A8000217C414516D1D4F814C0BCF1000F11D0EF
:103A900006F10C0352462146A069E04750B14FF0B1
:103AA000000A012735B1E068E860D9F80010E1604C
:103AB000C9F800402546E4680FB9002CE0D138462B
:103AC000BDE8F0873C0000202DE9FF5F0446007C44
:103AD0008B460A2832D0D4F858A0D4F82490BCB32E
:103AE00020680290201D00D060680390278B268CF0
:103AF00021461948D4F81480D4F8905001F0A8F861
:103B0000A06F08B101F095FD606F08B101F091FD63
:103B100021460220FFF7EEFC1DB16FF00401404684
:103B2000A847BBF1000F07D0CDE9007603AB02AA8E
:103B30004946504601F01FFDBDE8FF9F064821465B
:103B4000001D01F085F821460220FFF7D3FCF3E7C2
:103B5000FFE700200290C7E754000020C1617047D2
:103B60006FF00400704700002DE9F0410646022086
:103B7000FFF7F8FC364D040038D100210A46AB6847
:103B8000A86906E0046B1C1B8C4201D32146024647
:103B9000C0680028F6D11AB101211046FFF794FF42
:103BA0000220FFF7DFFC040020D17F2300210A461A
:103BB000D5F808C068690DE0447CB44209D89C423D
:103BC00007D8076BACEB07078F4202D33946024692
:103BD0002346C0680028EFD11AB101211046FFF733
:103BE00073FF0220FFF7BEFC04002ED0A021FCF7DB
:103BF00000FB4020607440F66830A4F86E00183472
:103C00000023A4F858302082608204F80E3CFF2084
:103C100004F80D0C4FF40670208406202086A3853E
:103C2000E085C01FE0830120608700F043FEE06470
:103C3000206460632065A868A06123770548E0667A
:103C40000548E06784F88530183C2046BDE8F081DF
:103C5000400000204754000800DD6D0041617047BE
:103C60002DE9F0410546007C0C4618B16FF00C00C0
:103C7000BDE8F08112B900F0EDFD024626486FF074
:103C80000A0300680BE0018B914207D1A0B30168E1
:103C900091B38CB326687EB3B1422DD0C0680028A2
:103CA000F1D11D49103948690BE0068B964207D1C6
:103CB00010B3066806B3FCB12768EFB1BE421BD053
:103CC000C0680028F1D1C8680BE0068B964207D186
:103CD00090B1066886B17CB127686FB1BE420BD047
:103CE000C0680028F1D1886909E0068B964205D1A9
:103CF00006682768BE4201D11846B9E7C0680028A7
:103D0000F3D114B1206800B128602A83C868E86044
:103D10000020CD60ACE700005000002070B50546E3
:103D2000007C0526082841D2DFE800F00418232A89
:103D30002A4040321E480024C168A94201D1C96806
:103D400006E0C16129B1C968A942FAD1E968C06930
:103D5000C1600020E8602946022007E014480024E2
:103D60002946103000F074FF29460320FFF7C2FBFC
:103D70001AE00F4800242946143000F069FFEAE7F2
:103D80000121284601F062FC04000DD12E7407E0E9
:103D90000121284601F05AFC040005D109202874AD
:103DA00015B1284600F08EFD204670BD0024FBE7CB
:103DB0004000002010B50C460121204601F07FFC98
:103DC0000C20FFF7E1FA010016D001200870002056
:103DD000C1E901402046FFF741FF0949204601F0B3
:103DE0002FFB0849204600F0B0FA01220649204680
:103DF00000F05CFF002010BD4FF0FF3010BD000050
:103E0000FD3E00084D3E0008C93E000870B50C4656
:103E100005460021FFF722FF0021284601F04CFC57
:103E20000021284601F00CFB0021284600F08DFA05
:103E300000221146284600F039FF14B12046FFF752
:103E400073FA2846BDE87040FFF768BF002801D02C
:103E5000FFF76ABA7047000010B500F0F7FC0C4C91
:103E6000206098B107220B49FFF7FAFE20B10AA0A3
:103E7000BDE81040FDF790BEFF21206800F0A6FCD1
:103E80002060BDE810400949FFF768BE08A0EFE7D1
:103E900018000020EC5D000843616E206E6F7420F6
:103EA00062696E64207063620A000000B53D00081C
:103EB00043616E206E6F7420637265617465206E5D
:103EC0006577207063620A0010B50A4601000DD0C4
:103ED000886818B1104600F051F805E0087803280A
:103EE00002D11046FFF792FF002010BD01211046BD
:103EF000FFF7EAFD6FF0040010BD00002DE9F0416E
:103F00001E4615008846044608D00027B6B18760D3
:103F10001046FFF7FBFC3046BDE8F081032020701F
:103F2000A06820B921464046FFF770FF04E012491F
:103F3000404601F0C1FB1AE00020EDE7207801289F
:103F40000AD002280CD02989404601F08EFA284672
:103F5000A760FFF7DBFCEFE702202070A260E6E736
:103F6000A06818B11146FFF743FCE5E7A2602146BF
:103F7000404600F003F8DFE7C93F00082DE9F041B3
:103F80000D46064617E001233046616801F010FD3A
:103F900020B1401C00D1AC60BDE8F0816789206889
:103FA000A86008B1FFF72BFD2046FFF7AFFC3946AC
:103FB000304601F05AFAAC68002CEDD06289B6F8B0
:103FC0006E008242DFD9E7E710B50A4601468068F5
:103FD00018B11046FFF7D2FF05E00878032802D198
:103FE0001046FFF713FF002010BD10B50446084629
:103FF000FFF7B0F838B1008D28B1283880B284427C
:1040000000D220460446204610BD00002DE9FF4F97
:104010008BB0064619999B4642EA010050EA8B7123
:1040200091466FF009007DD0B9F1000F02D10C99D3
:10403000002977D1B6F86E104846494506D200BF30
:1040400016F8220F40F08000307016E105460C98FB
:1040500003901998C00701D0042100E000211998AD
:10406000800701D50C2000E0002008440690B06EC7
:104070000890B6F870A0BAF1040FE1D24FF0000832
:10408000CDF80880318F0698081AA84200DB284630
:1040900080B200900420FFF765FA04005FD000278B
:1040A00027606760B8F1000F23D002980460189869
:1040B0000294C0071FD0069900980022084481B2DC
:1040C0001046FFF7F9FA60600028E7D0FFF799FB88
:1040D00050441FFA80FA0C9838B16068009A416821
:1040E000069808440399FCF76BF860684068A06084
:1040F00024E0A046DBE7002210460699FFF7DCFA31
:1041000060600028CAD0FFF77CFB50441FFA80FA99
:10411000A5B1012203200099FFF7CEFAD0B10AF130
:10412000010100E0ABE01FFA81FA039941600399B5
:10413000A160626801461046FFF746FBBAF1040F22
:104140000DD80098A08114216068FFF701FC0028B9
:1041500005D105E06068FFF7D9FB0020606080E0D2
:10416000606840682061308BFEF748FB2169088059
:10417000308CFEF743FB216948800898FEF73CFB32
:1041800021694860206947824FF6C070FEF736FB10
:104190002169898900EA01075846FEF72FFB07438A
:1041A000206987811998A07320698089FFF782FAB6
:1041B000069900F03F008908090301F5A041084372
:1041C000FEF71CFB2169888100980099281A0504D4
:1041D00008982D0C084408900398084403907FF435
:1041E00051AF756F002D7FD000E00546286800288C
:1041F000FBD1E5B328698089FFF75CFA800700D01E
:104200000120A989401872D028698089FFF752FAE5
:1042100080076CD15FEA8B7002D0BBF1010F66D1D1
:10422000A989B8F80C000844318F88425FD8A97B6F
:1042300098F80E0081425AD128694068FFF738FA91
:10424000A9894718D8F810004068FFF731FA87426B
:104250004DD10699D8F8040014314942FFF778FB94
:1042600080B116F8220F40F08000307000E03BE093
:104270005FEA080001D001F0DCF94FF0FF300FB029
:10428000BDE8F08FD8F80400418951B902680021D7
:10429000C8F804200160AAF101011FFA81FAFFF7B2
:1042A00035FB5FEACB7007D00120FEF7A7FA29693A
:1042B0008A89104388810CE0D8F804106868FFF7F9
:1042C00083FAA989B8F80C000844A881D8F800003E
:1042D0002860444502D1A8892C460090414604201C
:1042E000FFF708F905E002E0C6F8748001E0C5F8C0
:1042F00000805FEA8B7003D009F101001FFA80F99A
:104300005FEACB7005D096F8220040F0200086F8D6
:10431000220056F8681F01EB09003060F188A1EB1C
:104320000900F080A6F808A06CB1009858B1206987
:1043300048B11898800706D40820FEF75FFA216973
:104340008A8910438881002099E7C0F8901070474F
:1043500070B51548446923E0E26F7AB1D4F884500F
:1043600025B1002321466069A84704E000232146C7
:10437000184601F068F808B90020E06794F82200B8
:10438000C1070CD040F0020084F82200204600F063
:1043900099FA94F8220020F0030084F82200E468DF
:1043A000002CD9D170BD0000400000202DE9FC4157
:1043B0000646B54D40680C46A8600088FFF77AF9BC
:1043C0007168C0F3032001EB80006860A868008872
:1043D000FFF770F9C0F30320800041423046FFF739
:1043E000B7FA00287ED1308914287BD3A8682146EB
:1043F0001030FEF7F4FA0028F4D14FF07040FFF7C8
:1044000057F9A968096900EA01044FF06040FFF715
:104410004FF9844266D068688089FFF74BF9000B3A
:10442000800041423046FFF793FA0028DAD16868ED
:104430000088FFF73FF90146686801804088FFF770
:1044400039F90146686841804068FFF731F9014653
:1044500068684160E9608068FFF72AF9014668688A
:1044600081602961C089FFF725F901466868C1812B
:104470008089FFF71FF900F03F002870318980071D
:1044800000D0012008448149688000200A68144651
:104490003AE06B68278CB3F800C0674532D1278BB0
:1044A0005B889F422ED1AB686768D3F80CC0674524
:1044B00028D127681B699F4224D118B1E368C360E3
:1044C000E2600C6014B3DFF8C8810027C8F8007000
:1044D0003189A8F80C107168C8E901616968C8F8E9
:1044E000101000E05FE06F616F70E26F002A67D02C
:1044F000D4F884C0BCF1000F5AD000232146606973
:10450000E0475AE02046E468002CC2D161480068C8
:1045100015E06968028C0B889A420FD1028B49889A
:104520008A420BD1A9684268CB689A4206D10268D8
:1045300009698A4202D101F0DBF934E0C068002841
:10454000E7D1554B00211868024615E005D00468F4
:104550001CB1AF683F69BC420CD16F68048B7F8887
:10456000BC4207D119B1C468CC60C260186000F0C9
:10457000B9F818E00146C0680028E7D1686880896A
:10458000FFF798F840070ED4686801884088CDE9A5
:104590000001AB686988E8681A4601440C331032A0
:1045A000286900F0E8FF3046BDE8FC41FFF7AEB9EE
:1045B00000232146184600F046FF0028F3D1E767A4
:1045C0002046AC6100F078FB401D52D068780107AE
:1045D00007D5D4F8902032B16FF00501606990479B
:1045E00001E0C00608D52146284800F031FB2146ED
:1045F0000220FEF77FFF3CE0B4F86C202AB1D4F82B
:10460000803013B12146606998476A692E46C2B16D
:104610003078000703D5507B40F001005073D4F888
:1046200084C0BCF1000F04D0002321466069E0473C
:1046300004E000232146184600F005FF08B1706928
:10464000E0677078800610D5D4F884C0BCF1000F04
:1046500005D000231A4621466069E04705E00023A3
:104660001A462146184600F0EEFE2046B76100F0DB
:1046700029F9AF61D8F804004446002802D0FFF7BA
:1046800045F96760BDE8FC818C00002054000020E3
:10469000FC76002058000020500000207CB5044625
:1046A000002214210120FFF707F8050018D0A06DA3
:1046B000401EFEF7A1F8034600222946204600F0DE
:1046C00031FA06210020CDE90001E37A221D2146BE
:1046D0002846FEF7F9FA2846BDE87C40FFF716B9F0
:1046E0007CBD00007CB5374D06462878C10610D544
:1046F000686801884088CDE900016988E868AB688E
:1047000001441A4628690C331032401C00F033FF74
:1047100055E0800753D5707CFFF726FA040044D09B
:10472000A86810F1100100D001692160318B21834C
:1047300010F10C013CD0C06860606A681088208469
:1047400003202074E8680146401C6062E062D08962
:10475000A4F85C00A4F85400491E216670696061E9
:10476000F069E061308940F29911084020811648D3
:104770000168E1600460204600F012FA208F211DDC
:10478000FFF733FC208700200121CDE9000102461C
:10479000014612232046FFF739FC05000AD000210C
:1047A0002046FFF791F928467CBD4FF0FF307CBDD5
:1047B0000020C1E72046BDE87C4000F083B800201F
:1047C0007CBD00008C0000205400002070B5044621
:1047D000007C08B1002070BD0320FEF7C3FE050079
:1047E000F9D060696861208B2883012028742089B2
:1047F00040F002002881E07AE872A07AA8723CB109
:10480000206828600F48C168A14203D1C96808E048
:104810000020F6E7C16129B1C968A142FAD1E16877
:10482000C069C1600020E06021460220FEF762FE00
:104830000548E861034810300168E96005602846D2
:1048400070BD000040000020613B00084020FFF7E1
:104850008BB90000F0B516484FF4004E00F110017E
:10486000D0E905560F684FF4805C4188491C89B235
:104870004180714501D3A0F802C02946448803E075
:104880000A8BA242F1D0C9680029F9D1324603E06F
:10489000118BA142E9D0D268002AF9D13B4603E04E
:1048A000198BA142E1D0DB68002BF9D1A0B2F0BD99
:1048B000400000200249D1E90102104448607047DD
:1048C000400000202DE9F047044668480068A042F7
:1048D00002D10020BDE8F087B4F85C10B4F85200B3
:1048E000814200D20846814694F82200656F800715
:1048F0000FD54DB128694068FEF7DAFEE16C401A29
:10490000A9890144494504D92046BDE8F04700F093
:10491000A8BEA66F4FF0000A0EB97EE006463068CA
:104920000028FBD179E028698089FEF7C3FEA06FDB
:1049300078B194F8220010F0440F0AD1616F29B1C8
:104940000A6832B98989228F914202D210F0A00FF1
:1049500071D028686067207C02280CD01020FDF7F9
:104960004DFF29698A891043888194F8220020F03C
:10497000030084F822002146284600F079F82869CF
:104980004068FEF795FE074628698089FEF792FE8B
:10499000800700D00120A98938440844A16D091A74
:1049A00000D5A06528698089FEF784FE800700D0C5
:1049B0000120A98940182CD0C5F800A0A06F68B1CB
:1049C00028694068FEF774FE074630694068FEF7C4
:1049D0006FFE381A1AD504F1780003E0A56716E0D7
:1049E000D8F800008046006850B100694068FEF7C2
:1049F0005FFE074628694068FEF75AFE381AEFD472
:104A0000D8F800002860C8F8005005E035602E4650
:104A100002E0284600F0FDFD656F0DB3286940688F
:104A2000FEF746FEE16C401AA989014449457FF62C
:104A30007AAF01E0FFE79DB194F89C0080B9286946
:104A40004068FEF735FEE16C401AA9890844B4F8C5
:104A50005C10884204D90120C4F898A084F89C0016
:104A600014F8220F20F08000207032E7A40000200C
:104A70007CB505460C46486AFDF7BEFE296988608C
:104A8000608DFDF7BBFE2969C881618D606A0844AD
:104A9000E0622E69A87B1436C00703D01F48FDF7DB
:104AA000ABFE30600CB1206840B9201DFEF752FB10
:104AB000002831D0011D08D040682060B4F93600CC
:104AC0004FF00006401C02D002E00020F5E7E68629
:104AD000E06B38B912480068E06328694068FEF767
:104AE000E7FD20646968288A8A88801A4A89121A30
:104AF0004A8169680A89101A088169682869221D33
:104B00004860286906210682A07ACDE90001E37A8F
:104B100021466868FEF7D8F87CBD0000B4050402A1
:104B2000480000202DE9F04105461F461646008B3F
:104B30004C68FDF763FE2080288CFDF75FFE6080E7
:104B40006760686AFDF758FEA0604FF6C070FDF719
:104B500055FEA18900EA01071020FDF74FFE07432B
:104B6000A781688DFDF74AFEE08100276782A08952
:104B7000FEF7A0FDF11706EB91718910090300F013
:104B80003F0001F5A041084380B2FDF737FEA08148
:104B90002782698D686A0844E8622046BDE8F08192
:104BA00070B51E4E0546706800F114048089FEF74A
:104BB00081FD0521B1EB103F1ED270688089FEF7A0
:104BC00079FD6FF0040101EB1030090C01EA80005F
:104BD000002140F2B4520DE0635C002B0CD0012B9D
:104BE0000BD0022B04EB010309D05B78002B03D020
:104BF000194489B28142EFD370BD491CF9E75E7850
:104C0000042EF9D1091D8142F6D85B885BBA934224
:104C100000D803B913462B87EBE700008C00002077
:104C200070B50446007C002811D00A280FD0012856
:104C30000DD0E06F002510B1FEF768FEE567606FEC
:104C400000F0F7FCA06F00F0F4FC6567A56770BD8D
:104C500070B50C460168A14202D1C96801600BE041
:104C6000114806E0C968A14203D1C069E168C1608A
:104C700002E0C1610029F5D100252046E560FFF77B
:104C8000CFFF207C0A280CD001280AD094F82200FB
:104C9000C10706D040F0020084F822002046FFF74A
:104CA00011FE257470BD000040000020C0F88C107B
:104CB00080F83520704700002DE9FC5FCD4D04469B
:104CC000287841071DD5207C022815D0616AE86844
:104CD000421A15D4228D1144401A002810DC68783D
:104CE00040F00800687014F8220F20F001002070D6
:104CF0006FF00500BDE8FC9FA06D29698842EED0E9
:104D000075E180070ED5207C02280BD0032809D03E
:104D100094F8220040F0020084F822002046FFF7B9
:104D2000D1FD64E1B4484FF0000A0068206384F8C4
:104D30009DA02046FFF734FF207CDFF8C082801E54
:104D4000AF4FB04E4FF0040B4FF00A090828D7D2EE
:104D5000DFE800F00468BFC3F0BFEFEE2878C106BB
:104D6000CED580074ED5A06F00694068FEF7A0FC45
:104D70002A69401C904242D1B4F86E00401CA4F84D
:104D80006E00E8680146401C6062E264E0626868A8
:104D9000491EC089A4F85C00216684F810B0208FF9
:104DA000211DFFF722F900EB80014FF6FF722087EB
:104DB00002EA4101A4F85410B4F85210012900D1BC
:104DC0004000A4F85200B4F87000401EA4F870002F
:104DD000A06F0168A16771B1A4F836A084F84AA059
:104DE00000F017FCD4F88830002B91D00022214627
:104DF000606998478CE74FF0FF31E186F0E728784B
:104E0000C0068ED5686801884088CDE90001AB688E
:104E10006988E8681A46014403F10C0302F11002A4
:104E2000286948E02878C10648D5E16C2869A0EBDC
:104E30000101491E33D4A16D411A00292FDC84F8E9
:104E400010B0E3695BB1002221466069984730B138
:104E500001212046FEF738FE6FF004004AE7B4F85F
:104E60005260204600F0D0F8B4F86C0010B1401E3B
:104E7000A4F86C00208F012E01D14FEA4000A4F865
:104E800052006878800618D594F8220040F002009D
:104E900084F822002046FFF715FD07205DE06968D1
:104EA0000A884988CDE900126A88E968AB6811442C
:104EB0001A460C33103200F05EFB98E0800707D5ED
:104EC000606AE968401E884202D1204600F0EBFA91
:104ED0008DE0204600F098F8D3E7204600F094F8E3
:104EE00068788006002828784FEAC0602EDA00280B
:104EF00021DAA06D296988421DD194F8220040F082
:104F0000020084F822002046FFF7DCFC2046FFF771
:104F100087FE3868A04202D1C068386051E0306036
:104F2000C0B3C068A042FAD13168E068C86048E008
:104F30004FE030E013E094F8220040F0020084F8E3
:104F400022002046FFF7BEFC082006E000284EDACB
:104F5000A06D296988424AD10620207447E0204686
:104F600000F052F86878800641D594F8220040F0AD
:104F7000020084F822002046FFF7A4FC2046FFF739
:104F80004FFE3868A042C7D0306018B1C068A04258
:104F9000FAD1C9E715E0204600F036F82878C006B7
:104FA00025D5A06D2969884221D12046FFF738FE1A
:104FB0003868A042B0D0306018B1C068A042FAD1C1
:104FC000B2E784F81090D8F80010E160C8F800400B
:104FD0000DE0204600F018F82878C00607D5A06D2F
:104FE0002969884203D1687840F010006870002079
:104FF00080E600008C0000204800002058000020BF
:10500000540000205C0000202DE9F041F94D0446D9
:105010004FF000062878C0067ED5B4F85C30616E8B
:10502000276EE86803EB0102B7EB000C0BD4874254
:1050300002D12F69CF1B06D42F69B94210D16968FC
:10504000C98999420CD96968C989A4F85C1020669D
:105050002869606621B194F89C0008B184F89C60CE
:10506000E36C2969C81A00282DDCA4F86C606888F4
:1050700030BBB4F85C70606E3844904220D1B4F913
:10508000360000281CDB8B421AD194F850000146F0
:10509000401C884201D984F8500094F8500003283D
:1050A00009D9B4F85210208F084480B2884201D93F
:1050B000A4F85200A3E002D1204600F018FA9EE0C6
:1050C00084F850609BE0421E78D4A26D8A1A002AB0
:1050D00074DC94F82220530706D522F0040204F869
:1050E000222F628E2286223C3434A675628AB4F95D
:1050F000103002EBE302A2822087628F10446087A7
:105100002677A16114F8240C343C042835D3B4F874
:105110005200B4F8541000E0ADE08842218F04D270
:10512000014489B2814207D827E0494391FBF0F15D
:10513000014489B2884220D2A4F852101DE0386898
:10514000A0677868FEF75DFBB4F86C0050B1386971
:105150008089FEF7AFFAC00704D0B4F86C00401E97
:10516000A4F86C007868FEF74CFBB4F87010081ACD
:10517000A4F87000384600F04CFAA06FD0B1006976
:105180004068FEF795FA0746A06F00698089FEF730
:1051900091FA800700D001203844A76FB9890844EC
:1051A0002969401A0028CADD27B1E68684F83460F0
:1051B00025E003E04FF0FF30E086F7E7A4F86C60ED
:1051C0001DE0386860677868FEF71BFBB4F86C0078
:1051D00050B138698089FEF76DFAC00704D0B4F881
:1051E0006C00401EA4F86C007868FEF70AFBB4F867
:1051F0007010081AA4F87000384600F00AFA606FC0
:10520000B8B100694068FEF753FA0746606F00695D
:105210008089FEF74FFA800700D001203844676F7D
:10522000B98901442869411A03D4A16D401A0028A4
:10523000C7DDE06BF8B1216C2A69891A1BD56E496C
:105240000988081AB4F94410A0EBE10000B2014447
:1052500009B2A4F84410002801DA404200B23C34FC
:10526000B4F90A20A0EBA2001044608100EBE10039
:10527000A08144F83C696B88002B7CD0616AEA68A5
:10528000DFF87881A1EB0200471E2BD41344CB1A20
:105290005B1C002B26DCD8F80470798981420ADA7D
:1052A0003989091A89B203E039817E813F68801A01
:1052B0007A898242F8DB404201B23846FEF748FB69
:1052C0007968C8F80810AB89616AB8F80C20A1EBBE
:1052D0000303A2EB0302A8F80C20E960D8F8100041
:1052E00041600AE0501A0CD594F8220040F0020008
:1052F00084F822002046FFF7E5FA606AE968081A98
:1053000077D4218D606A4218E9688A1A521C002AF3
:105310007CDC88427AD1D8F8100047468089FEF7B5
:10532000C9F9800701D0012100E00021B889B84601
:10533000084480B26880218D814237D2D8F81000AD
:105340008089FEF7B7F9C00712D04FF6C070FDF79D
:1053500055FA0746D8F8100080890740FEF7AAF9E9
:1053600000F03E00FDF74AFA0743D8F810008781A5
:10537000208D474600E04EE0A8F80C00D8F8100059
:105380008089FEF797F9800702D5B889401EB88159
:10539000B9897868FEF70CFB38698089FEF78AF9CD
:1053A000800700D00120B98908446880E96880B28C
:1053B00001446162218D081A2085204600F0DEFA42
:1053C000D8F8041040460A890AB169614660D8F8E5
:1053D00010008089FEF76EF9C00703D0687840F0AE
:1053E0002000687094F82200C10709D020F0010065
:1053F0001DE00BE08C00002048000020FC7600201F
:1054000040F0010084F82200BDE8F0812046BDE8AC
:10541000F04100F026B9606AE9680A1A05D4228DC5
:105420001044081A401C0028EEDD94F8220040F0D9
:10543000020084F822002046BDE8F041FFF742BA9E
:10544000C0F88410704710B51400084606D02189B2
:1054500000F00BF82046FEF759FA00E00BB10020EF
:1054600010BDBDE81040FEF759BC10B50446008DD4
:10547000084480B240F668312085884200D92185F1
:10548000204600F07BFA40F2DA2188420ADB94F8E9
:10549000220040F0020084F822002046BDE81040BF
:1054A000FFF710BA10BD2DE9F041866F0446002EBB
:1054B0001BD0306804F17405A06700E02D682868EF
:1054C00050B100694068FEF7F3F80746306940685C
:1054D000FEF7EEF8381AF1D4286830603C342E60BC
:1054E000A07B401CA07300202060BDE8F08110B5B7
:1054F0000446806F002826D094F82200400722D46A
:105500002046FFF7D0FFB4F85210B4F85C00814297
:1055100001D9400800E04808A4F8540081B2208F67
:10552000B1EB400F05D24FF6FF7101EA4001A4F83C
:10553000541089B200EB40002234084420862078C1
:1055400040F00400207010BD816F002912D000E0EF
:1055500011460A68002AFBD1426F0A600022816F5F
:10556000C0E91D1290F84A10491C80F84A10C26325
:10557000FFF7A8B970472DE9FC5F9046DDE90C9A6A
:105580000E4683461F46002214210120FEF794F8A0
:1055900005003CD048466C68FDF730F92080504645
:1055A000FDF72CF960805846FDF726F9606030461B
:1055B000FDF722F9A0604FF6C070FDF71FF9A18931
:1055C00000EA01061420FDF719F90643A68140F60A
:1055D0006830FDF713F9E08100266682A089FEF7A6
:1055E00069F800F03F0040F4A040FDF707F9A08102
:1055F00026820620CDE90060FF233A464146284630
:10560000FDF762FB2846BDE8FC5FFEF77FB9BDE809
:10561000FC9F70B504004FF0000508D0606810B121
:10562000FEF774F9054621460420FDF763FF28467E
:1056300070BD70B5002405E00568FFF7EAFF20445F
:10564000C4B228460028F7D1204670BD1CB50023FF
:105650000122CDE900230B4600221146FEF7D6FCBD
:105660001CBD7CB504460026324614210120FEF7FD
:1056700023F805001DD094F8220020F0030084F8E0
:105680002200A06DFDF7B8F80346324629462046B1
:10569000FFF748FA0621A07ACDE90001E37A221D3E
:1056A00021462846FDF710FB2846FEF72FF900207B
:1056B0007CBD6FF001007CBDC0F880107047417464
:1056C000704700002DE9FC47854D4FF4FA79A86832
:1056D000401C0027A860BA466C69E0E0217C4FF0CE
:1056E0000008022903D194F84A0006281AD094F839
:1056F0004A200C2A18D094F89C30BBB1D4F89800FA
:105700007849401CC4F89800595C884243D3C4F8D7
:1057100098A0072B02D25B1C84F89C30204600F036
:105720005EF938E0012640E0012634E0B4F93600A5
:10573000002801DB401CE086A06F60B3B4F936306E
:10574000B4F94800834226DB02290AD04434608839
:10575000B4F9001000EBE1006349895C8840A08047
:10576000443CA4F836A0B4F85210B4F85C0081426E
:1057700000D208464108A4F85410208F814205D277
:105780004FF6FF7101EA4001A4F85410A4F852004A
:105790002046FFF7D9FE207C062806D1206BA96899
:1057A000081A282801D906F10106207A000729D510
:1057B000207C042801D0072824D14C48D4F8942018
:1057C000D5F808C01044B0FBF9F3206BACEB000037
:1057D000834203D2761C4FF0010813E094F89D3009
:1057E00042F29F4C13FB0CF302EBC302B2FBF9F144
:1057F000814207D22046FEF751FF94F89D00401CDD
:1058000084F89D00207C032802D0092807D00BE0F3
:10581000206BA968081A282806D9761C04E0206B9A
:10582000A968081AF028F8D816B32046FFF7F8F947
:10583000E0680FB1F86000E06861D4F890201AB118
:105840006FF0040160699047B8F1000F09D0218C16
:10585000208BCDE90001231D2246616AA06DFFF770
:105860008AFE21460220E668FDF744FE344616E033
:1058700014F8340F401CC0B220706178343C884268
:105880000BD384F834A0D4F88C201AB12146606977
:10589000904710B92046FFF715F82746E4684FF007
:1058A0000006002C7FF41AAFAC6915E0206BA968E4
:1058B000081AF02806D92046FFF7B2F9E06826B1A9
:1058C000F06003E02646E46806E0A8612146022075
:1058D000E768FDF70FFE3C46002CE7D1BDE8FC87EA
:1058E00040000020D75D0008DF5D0008B84C0A00CA
:1058F0001CB5184C21784A072AD48A0717D5426A62
:10590000E1688B1A18D4038D1A448A1A002A13DC12
:10591000606802884088CDE90002A36860881A4662
:1059200001440C3310322069FFF725FE10E0C9074F
:1059300002D0094909680163618849B190F82210D1
:1059400041F0020180F82210BDE81C40FEF7BABF0A
:1059500000201CBD8C0000204800002010B5FEF780
:10596000F7FC05480178491C0170C80703D0BDE861
:105970001040FFF7A7BE10BD4000002070B5058D98
:10598000426A038F541940F2B456C16AB34200D937
:1059900033460B44E31A02D44585601A70BD531A8E
:1059A000002B01DD002100E0891A4185002070BD37
:1059B0001CB5047C042C08D0072C06D0022C04D083
:1059C000032C02D06FF007001CBD32B10024CDE9DA
:1059D00000342346FEF71AFB1CBD00201CBD2DE938
:1059E000FC41846F054614B96C6F002C3DD02069D2
:1059F0008089FDF75FFEC00701D0A089F8B10027BC
:105A0000152100220120FDF757FE06002DD0206948
:105A10000022314643682846FFF784F880468FB15C
:105A20004FF6C070FCF7EAFEB8F80C1000EA01046B
:105A30001120FCF7E3FE0443A8F80C4006E0012720
:105A40001421DEE7A068716800780875062100203F
:105A5000CDE90001EB7A2A1D29463046FDF734F9DD
:105A60003046BDE8FC41FDF751BFBDE8FC810000B8
:105A7000F0B5154B00251C6803E0A04200D10125BC
:105A8000E468002CF9D101B109680160A2B9196874
:105A90004FF480520C4647F6FF7607E04F8A974254
:105AA00003D1521C92B2214600E0C96821B1B24232
:105AB000F4D16FF00A00F0BD428215B91968C160D7
:105AC00018600020F0BD0000A80000202DE9F84F6C
:105AD0004568064689462888FDF7ECFDC0F303219A
